BZCABR00179125123700100003803REC       20230823113418MOVIoperadorRe007479000000048366844
BZMOV00000000000000000000000000202302112023021100000000004042377324R000000917716425CBCONSUMO CELULAR CLARO                                                000000000000000001000000000000000001340400000000000941011024JACINTO GEOVANNY REYES MORAN                                               000000000000000000000XDIRCUE00000000000000000000241033 FONDOS INSUFICIENTES                    0000000000000000000000000
BZMOV00000000000000000000000000202302112023021100000000004068137258R000000923852578CBCONSUMO CELULAR CLARO                                                000000000000000001000000000000000001340400000000000061255327JACINTO GEOVANNY REYES MORAN                                               000000000000000000000XDIRCUE00000000000000000000241033 FONDOS INSUFICIENTES                    0000000000000000000000000
BZMOV00000000000000000000000000202302112023021100000000004068196115R000000802715896CBCONSUMO CELULAR CLARO                                                000000000000000001000000000000000001340400000000001301111068ALBARO AGUSTIN VALLE BERMUDEZ                                              000000000000000000000XDIRCUE00000000000000000000241033 FONDOS INSUFICIENTES                    0000000000000000000000000
BZMOV00000000000000000000000000202302112023021100000000004104485564R000000909425928CBCONSUMO CELULAR CLARO                                                000000000000000001000000000000000001340300000000000875023870ENRIQUE TORRES MATAMOROS                                                   000000000000000000000XDIRCUE00000000000000000000241033 FONDOS INSUFICIENTES                    0000000000000000000000000
BZMOV00000000000000000000000000202302112023021100000000004115232331R000001708037575CBCONSUMO CELULAR CLARO                                                000000000000000001000000000000000001340400000000004011053115WALTER BLAS PEREZ YANEZ                                                    000000000000000000000XDIRCUE00000000000000000000241033 FONDOS INSUFICIENTES                    0000000000000000000000000
BZMOV00000000000000000000000000202302112023021100000000004116092196R000000917492142CBCONSUMO CELULAR CLARO                                                000000000000000001000000000000000001340400000000000001597067YOLANDA NARCISA MERINO REINOSO                                             000000000000000000000XDIRCUE00000000000000000000241033 FONDOS INSUFICIENTES                    0000000000000000000000000
BZMOV00000000000000000000000000202302112023021100000000004121032465R000001711765485CBCONSUMO CELULAR CLARO                                                000000000000000001000000000000000001340400000000005001119199MEGHANN PATRICIA GONZALEZ MOYA                                             000000000000000000000XDIRCUE00000000000000000000241057 CUENTA CANCELADA/CERRADA                0000000000000000000000000
BZMOV00000000000000000000000000202302112023021100000000004121170115R000000922219688CBCONSUMO CELULAR CLARO                                                000000000000000001000000000000000001340300000000000985012872MEGHANN PATRICIA GONZALEZ MOYA                                             000000000000000000000XDIRCUE00000000000000000000241033 FONDOS INSUFICIENTES                    0000000000000000000000000
BZMOV00000000000000000000000000202302112023021100000000004121444547R000000800014987CBCONSUMO CELULAR CLARO                                                000000000000000001000000000000000001340400000000001301007142ZOILA ELOIS CEVALLOS SOLIS                                                 000000000000000000000XDIRCUE00000000000000000000241057 CUENTA CANCELADA/CERRADA                0000000000000000000000000
BZMOV00000000000000000000000000202302112023021100000000004122115975R000000918299983CBCONSUMO CELULAR CLARO                                                000000000000000001000000000000000001340400000000000001428403CAICEDO TENORIO FRANKLIN GREGORIO                                          000000000000000000000XDIRCUE00000000000000000000241033 FONDOS INSUFICIENTES                    0000000000000000000000000
BZMOV00000000000000000000000000202302112023021100000000004125563773R000001302602428CBCONSUMO CELULAR CLARO                                                000000000000000001000000000000000001340300000000001105031586CAICEDO TENORIO FRANKLIN GREGORIO                                          000000000000000000000XDIRCUE00000000000000000000241033 FONDOS INSUFICIENTES                    0000000000000000000000000
BZMOV00000000000000000000000000202302112023021100000000004126019898R000000923989354CBCONSUMO CELULAR CLARO                                                000000000000000001000000000000000001340400000000000951072750SABINA CONSUELO ARRIAGA SAMANI                                             000000000000000000000XDIRCUE00000000000000000000241033 FONDOS INSUFICIENTES                    0000000000000000000000000
BZMOV00000000000000000000000000202302112023021100000000004126060178R000000919794123CBCONSUMO CELULAR CLARO                                                000000000000000001000000000000000001340400000000000061211897SABINA CONSUELO ARRIAGA SAMANI                                             000000000000000000000XDIRCUE00000000000000000000241033 FONDOS INSUFICIENTES                    0000000000000000000000000
BZMOV00000000000000000000000000202302112023021100000000004126246679R000000923389969CBCONSUMO CELULAR CLARO                                                000000000000000001000000000000000001340400000000000851112581NICOLAS FERNANDO ITURRALDE VAL                                             000000000000000000000XDIRCUE00000000000000000000241033 FONDOS INSUFICIENTES                    0000000000000000000000000
BZMOV00000000000000000000000000202302112023021100000000004126261550R000001306236058CBCONSUMO CELULAR CLARO                                                000000000000000001000000000000000001340400000000003001136357NICOLAS FERNANDO ITURRALDE VAL                                             000000000000000000000XDIRCUE00000000000000000000241033 FONDOS INSUFICIENTES                    0000000000000000000000000
BZMOV00000000000000000000000000202302112023021100000000004126339877R000000909386633CBCONSUMO CELULAR CLARO                                                000000000000000001000000000000000001340300000000000005135701ING. YORLLY OYAGUE AVILES                                                  000000000000000000000XDIRCUE00000000000000000000241033 FONDOS INSUFICIENTES                    0000000000000000000000000
BZMOV00000000000000000000000000202302112023021100000000004126368656R000000905072559CBCONSUMO CELULAR CLARO                                                000000000000000001000000000000000001340400000000000001629727MEDARDO SEBERINO REYES YAGUAL                                              000000000000000000000XDIRCUE00000000000000000000241033 FONDOS INSUFICIENTES                    0000000000000000000000000
BZMOV00000000000000000000000000202302112023021100000000004126486516R000000922716675CBCONSUMO CELULAR CLARO                                                000000000000000001000000000000000001340400000000000031140843JASSER SAHID BARQUET DOMENECH                                              000000000000000000000XDIRCUE00000000000000000000241033 FONDOS INSUFICIENTES                    0000000000000000000000000
BZMOV00000000000000000000000000202302112023021100000000004127021625R000000910416668CBCONSUMO CELULAR CLARO                                                000000000000000001000000000000000001340400000000000002954380JASSER SAHID BARQUET DOMENECH                                              000000000000000000000XDIRCUE00000000000000000000241033 FONDOS INSUFICIENTES                    0000000000000000000000000
BZMOV00000000000000000000000000202302112023021100000000004127138930R000000921626255CBCONSUMO CELULAR CLARO                                                000000000000000001000000000000000001340400000000000061124977MIGUEL EDUARDO CHOEZ SANTANA                                               000000000000000000000XDIRCUE00000000000000000000241033 FONDOS INSUFICIENTES                    0000000000000000000000000
BZMOV00000000000000000000000000202302112023021100000000004127407203R000000913727673CBCONSUMO CELULAR CLARO                                                000000000000000001000000000000000001340400000000000001823691HOLGER IVAN MACIAS ANCHUNDIA                                               000000000000000000000XDIRCUE00000000000000000000230352 SERVICIO SUSPENDIDO POR CLIENTE         0000000000000000000000000
BZMOV00000000000000000000000000202302112023021100000000004127510667R000000900828096CBCONSUMO CELULAR CLARO                                                000000000000000001000000000000000001340400000000000001246447LUIS ARMANDO MARQUEZ HINOSTROZA                                            000000000000000000000XDIRCUE00000000000000000000241033 FONDOS INSUFICIENTES                    0000000000000000000000000
BZMOV00000000000000000000000000202302112023021100000000004127577788R000000912641693CBCONSUMO CELULAR CLARO                                                000000000000000001000000000000000001340400000000002021032177LUZ MARIA VELEZ SAAVEDRA                                                   000000000000000000000XDIRCUE00000000000000000000241033 FONDOS INSUFICIENTES                    0000000000000000000000000
BZMOV00000000000000000000000000202302112023021100000000004127659474R000000909456204CBCONSUMO CELULAR CLARO                                                000000000000000001000000000000000001340400000000000851015989FAJARDO SOLORZANO ALFREDO IVAN                                             000000000000000000000XDIRCUE00000000000000000000241033 FONDOS INSUFICIENTES                    0000000000000000000000000
BZMOV00000000000000000000000000202302112023021100000000004127895631R000000912103694CBCONSUMO CELULAR CLARO                                                000000000000000001000000000000000001340300000000000055500586MIGUEL AVILA RENDON           CLARA NAVAS DE AVILA                         000000000000000000000XDIRCUE00000000000000000000241033 FONDOS INSUFICIENTES                    0000000000000000000000000
BZMOV00000000000000000000000000202302112023021100000000004128436948R000000916965502CBCONSUMO CELULAR CLARO                                                000000000000000001000000000000000001340300000000000035049559MIGUEL AVILA RENDON           CLARA NAVAS DE AVILA                         000000000000000000000XDIRCUE00000000000000000000241033 FONDOS INSUFICIENTES                    0000000000000000000000000
BZMOV00000000000000000000000000202302112023021100000000004133009250R000000913085494CBCONSUMO CELULAR CLARO                                                000000000000000001000000000000000001340300000000002055001869HELEN MONTALVAN AYALA                                                      000000000000000000000XDIRCUE00000000000000000000241033 FONDOS INSUFICIENTES                    0000000000000000000000000
BZMOV00000000000000000000000000202302112023021100000000004133310597R000000912801909CBCONSUMO CELULAR CLARO                                                000000000000000001000000000000000001340400000000000002293108HELEN MONTALVAN AYALA                                                      000000000000000000000XDIRCUE00000000000000000000241033 FONDOS INSUFICIENTES                    0000000000000000000000000
BZMOV00000000000000000000000000202302112023021100000000004133318909R000001205569831CBCONSUMO CELULAR CLARO                                                000000000000000001000000000000000001340400000000000971031786HELEN MONTALVAN AYALA                                                      000000000000000000000XDIRCUE00000000000000000000241033 FONDOS INSUFICIENTES                    0000000000000000000000000
BZMOV00000000000000000000000000202302112023021100000000004133641016R000000916408602CBCONSUMO CELULAR CLARO                                                000000000000000001000000000000000001340300000000000865007413ARACELY  SALTOS ORDOÃ‘EZ                                                   000000000000000000000XDIRCUE00000000000000000000241033 FONDOS INSUFICIENTES                    0000000000000000000000000
BZMOV00000000000000000000000000202302112023021100000000004133861173R000001702461284CBCONSUMO CELULAR CLARO                                                000000000000000001000000000000000001340400000000001001217617ARACELY  SALTOS ORDOÃ‘EZ                                                   000000000000000000000XDIRCUE00000000000000000000241033 FONDOS INSUFICIENTES                    0000000000000000000000000
BZMOV00000000000000000000000000202302112023021100000000004134279173R000001710103373CBCONSUMO CELULAR CLARO                                                000000000000000001000000000000000001340300000000005085000204PABLO DANILO CALERO                                                        000000000000000000000XDIRCUE00000000000000000000241033 FONDOS INSUFICIENTES                    0000000000000000000000000
BZMOV00000000000000000000000000202302112023021100000000004134291516R000000916352818CBCONSUMO CELULAR CLARO                                                000000000000000001000000000000000001340400000000000921069724ANDY RAUL CRUZ OLEAS                                                       000000000000000000000XDIRCUE00000000000000000000241033 FONDOS INSUFICIENTES                    0000000000000000000000000
BZMOV00000000000000000000000000202302112023021100000000004134296199R000000701520835CBCONSUMO CELULAR CLARO                                                000000000000000001000000000000000001340400000000000021053273JARA MOREIRA ABEL ANTONIO                                                  000000000000000000000XDIRCUE00000000000000000000241033 FONDOS INSUFICIENTES                    0000000000000000000000000
BZMOV00000000000000000000000000202302112023021100000000004134300068R000000905352027CBCONSUMO CELULAR CLARO                                                000000000000000001000000000000000001340300000000000855004347GEORGINA  MACIAS GARCIA                                                    000000000000000000000XDIRCUE00000000000000000000241033 FONDOS INSUFICIENTES                    0000000000000000000000000
BZMOV00000000000000000000000000202302112023021100000000004134356962R000000503712374CBCONSUMO CELULAR CLARO                                                000000000000000001000000000000000001340400000000002001175209GEORGINA  MACIAS GARCIA                                                    000000000000000000000XDIRCUE00000000000000000000241033 FONDOS INSUFICIENTES                    0000000000000000000000000
BZMOV00000000000000000000000000202302112023021100000000004134357821R000000802835652CBCONSUMO CELULAR CLARO                                                000000000000000001000000000000000001340400000000001301089578GEORGINA  MACIAS GARCIA                                                    000000000000000000000XDIRCUE00000000000000000000241033 FONDOS INSUFICIENTES                    0000000000000000000000000
BZMOV00000000000000000000000000202302112023021100000000004134462816R000000907809388CBCONSUMO CELULAR CLARO                                                000000000000000001000000000000000001340400000000000002469386GEORGINA  MACIAS GARCIA                                                    000000000000000000000XDIRCUE00000000000000000000241033 FONDOS INSUFICIENTES                    0000000000000000000000000
BZMOV00000000000000000000000000202302112023021100000000004135996759R000000300687159CBCONSUMO CELULAR CLARO                                                000000000000000001000000000000000001340300000000006005006386ROMULO ANTONIO NAVAS GARATE                                                000000000000000000000XDIRCUE00000000000000000000241033 FONDOS INSUFICIENTES                    0000000000000000000000000
BZMOV00000000000000000000000000202302112023021100000000004137022869R000000913795076CBCONSUMO CELULAR CLARO                                                000000000000000001000000000000000001340400000000000871123495ROMULO ANTONIO NAVAS GARATE                                                000000000000000000000XDIRCUE00000000000000000000241033 FONDOS INSUFICIENTES                    0000000000000000000000000
BZMOV00000000000000000000000000202302112023021100000000004137223020R000001206199240CBCONSUMO CELULAR CLARO                                                000000000000000001000000000000000001340400000000000921044832DANIEL ANTONIO LOMAS INTRIAGO                                              000000000000000000000XDIRCUE00000000000000000000241033 FONDOS INSUFICIENTES                    0000000000000000000000000
BZMOV00000000000000000000000000202302112023021100000000004137345542R000000911708782CBCONSUMO CELULAR CLARO                                                000000000000000001000000000000000001340300000000000005200650ROBERTO GUERRERO DELGADO                                                   000000000000000000000XDIRCUE00000000000000000000241033 FONDOS INSUFICIENTES                    0000000000000000000000000
BZMOV00000000000000000000000000202302112023021100000000004137436929R000001203316532CBCONSUMO CELULAR CLARO                                                000000000000000001000000000000000001340300000000002005010301HOLGER GUILBERTO RUIZ AYALA                                                000000000000000000000XDIRCUE00000000000000000000241033 FONDOS INSUFICIENTES                    0000000000000000000000000
BZMOV00000000000000000000000000202302112023021100000000004137675583R000000922464680CBCONSUMO CELULAR CLARO                                                000000000000000001000000000000000001340400000000000061197981HOLGER GUILBERTO RUIZ AYALA                                                000000000000000000000XDIRCUE00000000000000000000241033 FONDOS INSUFICIENTES                    0000000000000000000000000
BZMOV00000000000000000000000000202302112023021100000000004137745637R000000922574058CBCONSUMO CELULAR CLARO                                                000000000000000001000000000000000001340400000000000021386791HOLGER GUILBERTO RUIZ AYALA                                                000000000000000000000XDIRCUE00000000000000000000241033 FONDOS INSUFICIENTES                    0000000000000000000000000
BZMOV00000000000000000000000000202302112023021100000000004137761179R000000104841358CBCONSUMO CELULAR CLARO                                                000000000000000001000000000000000001340400000000004001075241EDMUNDO BALTASAR QUEZADA QUEZA                                             000000000000000000000XDIRCUE00000000000000000000241033 FONDOS INSUFICIENTES                    0000000000000000000000000
BZMOV00000000000000000000000000202302112023021100000000004137943096R000000927825042CBCONSUMO CELULAR CLARO                                                000000000000000001000000000000000001340400000000000011073613ZHENZHEN LIN                                                               000000000000000000000XDIRCUE00000000000000000000241033 FONDOS INSUFICIENTES                    0000000000000000000000000
BZMOV00000000000000000000000000202302112023021100000000004138178533R000000910376037CBCONSUMO CELULAR CLARO                                                000000000000000001000000000000000001340400000000000001316305MORA PACHAY VICENTE  MARTIN                                                000000000000000000000XDIRCUE00000000000000000000241033 FONDOS INSUFICIENTES                    0000000000000000000000000
BZMOV00000000000000000000000000202302112023021100000000004138251178R000001711134898CBCONSUMO CELULAR CLARO                                                000000000000000001000000000000000001340300000000000005118720DENISE HIDALGO JIJON                                                       000000000000000000000XDIRCUE00000000000000000000241033 FONDOS INSUFICIENTES                    0000000000000000000000000
BZMOV00000000000000000000000000202302112023021100000000004138439252R000001308788791CBCONSUMO CELULAR CLARO                                                000000000000000001000000000000000001340400000000001101076094JUAN GUALBERTO CALLE MITE                                                  000000000000000000000XDIRCUE00000000000000000000241033 FONDOS INSUFICIENTES                    0000000000000000000000000
BZMOV00000000000000000000000000202302112023021100000000004143198514R000000704047083CBCONSUMO CELULAR CLARO                                                000000000000000001000000000000000001340300000000003005014050ANDREA  ESPINOZA ESPINOZA                                                  000000000000000000000XDIRCUE00000000000000000000241033 FONDOS INSUFICIENTES                    0000000000000000000000000
BZMOV00000000000000000000000000202302112023021100000000004144634130R000000921381703CBCONSUMO CELULAR CLARO                                                000000000000000001000000000000000001340400000000000001832145TOBAR ROSERO CHRISTIAN DANIEL                                              000000000000000000000XDIRCUE00000000000000000000241033 FONDOS INSUFICIENTES                    0000000000000000000000000
BZMOV00000000000000000000000000202302112023021100000000004144691801R000000917774598CBCONSUMO CELULAR CLARO                                                000000000000000001000000000000000001340400000000001821000999TOBAR ROSERO CHRISTIAN DANIEL                                              000000000000000000000XDIRCUE00000000000000000000241057 CUENTA CANCELADA/CERRADA                0000000000000000000000000
BZMOV00000000000000000000000000202302112023021100000000004144808626R000001719412015CBCONSUMO CELULAR CLARO                                                000000000000000001000000000000000001340400000000001621022765JULIO DANIEL CASTRO BUSTAMANTE                                             000000000000000000000XDIRCUE00000000000000000000241033 FONDOS INSUFICIENTES                    0000000000000000000000000
BZMOV00000000000000000000000000202302112023021100000000004144981977R000001202789952CBCONSUMO CELULAR CLARO                                                000000000000000001000000000000000001340400000000000951101750DARWIN ERNESTO IBANEZ LOMBEIDA                                             000000000000000000000XDIRCUE00000000000000000000241033 FONDOS INSUFICIENTES                    0000000000000000000000000
BZMOV00000000000000000000000000202302112023021100000000004145070868R000000922614169CBCONSUMO CELULAR CLARO                                                000000000000000001000000000000000001340400000000000002442412DARWIN ERNESTO IBANEZ LOMBEIDA                                             000000000000000000000XDIRCUE00000000000000000000241033 FONDOS INSUFICIENTES                    0000000000000000000000000
BZMOV00000000000000000000000000202302112023021100000000004145073242R000000920619186CBCONSUMO CELULAR CLARO                                                000000000000000001000000000000000001340400000000000931203540DARWIN ERNESTO IBANEZ LOMBEIDA                                             000000000000000000000XDIRCUE00000000000000000000241057 CUENTA CANCELADA/CERRADA                0000000000000000000000000
BZMOV00000000000000000000000000202302112023021100000000004145129185R000000917725269CBCONSUMO CELULAR CLARO                                                000000000000000001000000000000000001340300000000000955016020MA. DE LOURDES MARIN                                                       000000000000000000000XDIRCUE00000000000000000000241033 FONDOS INSUFICIENTES                    0000000000000000000000000
BZMOV00000000000000000000000000202302112023021100000000004145155740R000000800464380CBCONSUMO CELULAR CLARO                                                000000000000000001000000000000000001340400000000001021004127LUIS ALBERTO ALBAN ALVAREZ                                                 000000000000000000000XDIRCUE00000000000000000000241033 FONDOS INSUFICIENTES                    0000000000000000000000000
BZMOV00000000000000000000000000202302112023021100000000004145426988R000000914906920CBCONSUMO CELULAR CLARO                                                000000000000000001000000000000000001340400000000000041139073LUIS ALBERTO ALBAN ALVAREZ                                                 000000000000000000000XDIRCUE00000000000000000000241033 FONDOS INSUFICIENTES                    0000000000000000000000000
BZMOV00000000000000000000000000202302112023021100000000004145429059R000000801823733CBCONSUMO CELULAR CLARO                                                000000000000000001000000000000000001340400000000001301050660EUGENIO SALVADOR PACHECO MENDO                                             000000000000000000000XDIRCUE00000000000000000000241033 FONDOS INSUFICIENTES                    0000000000000000000000000
BZMOV00000000000000000000000000202302112023021100000000004145608837R000000909815516CBCONSUMO CELULAR CLARO                                                000000000000000001000000000000000001340400000000000001037693WASHINGTON OMAR ALVAREZ TRIGUERO                                           000000000000000000000XDIRCUE00000000000000000000241033 FONDOS INSUFICIENTES                    0000000000000000000000000
BZMOV00000000000000000000000000202302112023021100000000004146044637R000000922854385CBCONSUMO CELULAR CLARO                                                000000000000000001000000000000000001340400000000000911103366RAMIREZ PINEDA JOSE LUIS                                                   000000000000000000000XDIRCUE00000000000000000000241033 FONDOS INSUFICIENTES                    0000000000000000000000000
BZMOV00000000000000000000000000202302112023021100000000004146063868R000000916267099CBCONSUMO CELULAR CLARO                                                000000000000000001000000000000000001340400000000000001976471OTTO ENRIQUE VASCONCELLOS CARV                                             000000000000000000000XDIRCUE00000000000000000000241033 FONDOS INSUFICIENTES                    0000000000000000000000000
BZMOV00000000000000000000000000202302112023021100000000004146211065R000001712367265CBCONSUMO CELULAR CLARO                                                000000000000000001000000000000311001340400000000005091010249MARIA JHADIRA CEVALLOS MEJIA                                               000000000000000000000PDIRCUE00000000000000000000200000 TRANSACCION EXITOSA                     0000000000000000000000000
BZMOV00000000000000000000000000202302112023021100000000004146281899R000000914473616CBCONSUMO CELULAR CLARO                                                000000000000000001000000000000000001340400000000000041077387WILFRIDO ESPAÑA QUINONEZ                                                   000000000000000000000XDIRCUE00000000000000000000241033 FONDOS INSUFICIENTES                    0000000000000000000000000
BZMOV00000000000000000000000000202302112023021100000000004146506140R000000909034324CBCONSUMO CELULAR CLARO                                                000000000000000001000000000000000001340400000000000061105009PILAR ELIZABETH VERA FLORES                                                000000000000000000000XDIRCUE00000000000000000000241033 FONDOS INSUFICIENTES                    0000000000000000000000000
BZMOV00000000000000000000000000202302112023021100000000004146836394R000000927070565CBCONSUMO CELULAR CLARO                                                000000000000000001000000000000000001340400000000000931076590OLBER EDUARDO BAQUE ALVARADO                                               000000000000000000000XDIRCUE00000000000000000000241033 FONDOS INSUFICIENTES                    0000000000000000000000000
BZMOV00000000000000000000000000202302112023021100000000004147048100R000001204174799CBCONSUMO CELULAR CLARO                                                000000000000000001000000000000000001340400000000000931096240PENAFIEL INSUASTI DARWIN LUIS                                              000000000000000000000XDIRCUE00000000000000000000241033 FONDOS INSUFICIENTES                    0000000000000000000000000
BZMOV00000000000000000000000000202302112023021100000000004147070064R000000923653901CBCONSUMO CELULAR CLARO                                                000000000000000001000000000000000001340400000000000911106390ADRIANA MARIA MENOSCAL SOLIZ                                               000000000000000000000XDIRCUE00000000000000000000241033 FONDOS INSUFICIENTES                    0000000000000000000000000
BZMOV00000000000000000000000000202302112023021100000000004147193074R000000917063224CBCONSUMO CELULAR CLARO                                                000000000000000001000000000000000001340400000000000921042618ELSA MARGOT BENAVIDES MORAN                                                000000000000000000000XDIRCUE00000000000000000000241033 FONDOS INSUFICIENTES                    0000000000000000000000000
BZMOV00000000000000000000000000202302112023021100000000004148522780R000000918996745CBCONSUMO CELULAR CLARO                                                000000000000000001000000000000000001340400000000000001916419JESSICA PAOLA GRANDA MONTOYA                                               000000000000000000000XDIRCUE00000000000000000000241033 FONDOS INSUFICIENTES                    0000000000000000000000000
BZMOV00000000000000000000000000202302112023021100000000004150934272R000000105472468CBCONSUMO CELULAR CLARO                                                000000000000000001000000000000000001340400000000004001081871MAYRA CATALINA TEPAN LOJANO                                                000000000000000000000XDIRCUE00000000000000000000241033 FONDOS INSUFICIENTES                    0000000000000000000000000
BZMOV00000000000000000000000000202302112023021100000000004151975066R000000923483887CBCONSUMO CELULAR CLARO                                                000000000000000001000000000000000001340400000000000011119691MAYRA CATALINA TEPAN LOJANO                                                000000000000000000000XDIRCUE00000000000000000000241033 FONDOS INSUFICIENTES                    0000000000000000000000000
BZMOV00000000000000000000000000202302112023021100000000004153268584R000000800117426CBCONSUMO CELULAR CLARO                                                000000000000000001000000000000000001340400000000001301039540CORNELIA ALBARINA CAMACHO OLAY                                             000000000000000000000XDIRCUE00000000000000000000241033 FONDOS INSUFICIENTES                    0000000000000000000000000
BZMOV00000000000000000000000000202302112023021100000000004158208261R000000916728041CBCONSUMO CELULAR CLARO                                                000000000000000001000000000000000001340400000000000021100293SALTOS BOHORQUEZ JULIO ALFREDO                                             000000000000000000000XDIRCUE00000000000000000000241033 FONDOS INSUFICIENTES                    0000000000000000000000000
BZMOV00000000000000000000000000202302112023021100000000004158473995R000001719942631CBCONSUMO CELULAR CLARO                                                000000000000000001000000000000000001340400000000005011064619EDITH ALEXANDRA BARBA CASTELLA                                             000000000000000000000XDIRCUE00000000000000000000241033 FONDOS INSUFICIENTES                    0000000000000000000000000
BZMOV00000000000000000000000000202302112023021100000000004159309830R000000909092579CBCONSUMO CELULAR CLARO                                                000000000000000001000000000000000001340300000000000015023175EDITH ALEXANDRA BARBA CASTELLA                                             000000000000000000000XDIRCUE00000000000000000000241033 FONDOS INSUFICIENTES                    0000000000000000000000000
BZMOV00000000000000000000000000202302112023021100000000004159402082R000000909698573CBCONSUMO CELULAR CLARO                                                000000000000000001000000000000000001340300000000000025074688ANDRES LEON VERDESOTO                                                      000000000000000000000XDIRCUE00000000000000000000241033 FONDOS INSUFICIENTES                    0000000000000000000000000
BZMOV00000000000000000000000000202302112023021100000000004159507214R000000930381256CBCONSUMO CELULAR CLARO                                                000000000000000001000000000000000001340400000000000001905999NANCY MARIBEL CHOEZ ZAMBRANO                                               000000000000000000000XDIRCUE00000000000000000000241033 FONDOS INSUFICIENTES                    0000000000000000000000000
BZMOV00000000000000000000000000202302112023021100000000004160235772R000000802727545CBCONSUMO CELULAR CLARO                                                000000000000000001000000000000000001340400000000001301040938PAOLA DE LOS ANGELES TORRES BO                                             000000000000000000000XDIRCUE00000000000000000000241033 FONDOS INSUFICIENTES                    0000000000000000000000000
BZMOV00000000000000000000000000202302112023021100000000004160673831R000000921498051CBCONSUMO CELULAR CLARO                                                000000000000000001000000000000000001340400000000000931026364LILIANA ISABEL TORRES FIGUEROA                                             000000000000000000000XDIRCUE00000000000000000000241033 FONDOS INSUFICIENTES                    0000000000000000000000000
BZMOV00000000000000000000000000202302112023021100000000004162315352R000000926979683CBCONSUMO CELULAR CLARO                                                000000000000000001000000000000000001340400000000000003062059LILIANA ISABEL TORRES FIGUEROA                                             000000000000000000000XDIRCUE00000000000000000000241033 FONDOS INSUFICIENTES                    0000000000000000000000000
BZMOV00000000000000000000000000202302112023021100000000004163181304R000000151615879CBCONSUMO CELULAR CLARO                                                000000000000000001000000000000000001340300000000004075013479LILIANA ISABEL TORRES FIGUEROA                                             000000000000000000000XDIRCUE00000000000000000000241033 FONDOS INSUFICIENTES                    0000000000000000000000000
BZMOV00000000000000000000000000202302112023021100000000004163499771R000001307115426CBCONSUMO CELULAR CLARO                                                000000000000000001000000000000000001340400000000000841160453LILIANA ISABEL TORRES FIGUEROA                                             000000000000000000000XDIRCUE00000000000000000000241033 FONDOS INSUFICIENTES                    0000000000000000000000000
BZMOV00000000000000000000000000202302112023021100000000004164956886R000000914699376CBCONSUMO CELULAR CLARO                                                000000000000000001000000000000000001340300000000000875016610DOLLY JANINA MARTINEZ SALAZAR                                              000000000000000000000XDIRCUE00000000000000000000241033 FONDOS INSUFICIENTES                    0000000000000000000000000
BZMOV00000000000000000000000000202302112023021100000000004166766216R000001720540820CBCONSUMO CELULAR CLARO                                                000000000000000001000000000000000001340400000000005061205553DOLLY JANINA MARTINEZ SALAZAR                                              000000000000000000000XDIRCUE00000000000000000000241057 CUENTA CANCELADA/CERRADA                0000000000000000000000000
BZMOV00000000000000000000000000202302112023021100000000004166866488R000000912925773CBCONSUMO CELULAR CLARO                                                000000000000000001000000000000000001340300000000000875028099DOLLY JANINA MARTINEZ SALAZAR                                              000000000000000000000XDIRCUE00000000000000000000241033 FONDOS INSUFICIENTES                    0000000000000000000000000
BZMOV00000000000000000000000000202302112023021100000000004167453097R000001206060863CBCONSUMO CELULAR CLARO                                                000000000000000001000000000000000001340400000000000021668773DOLLY JANINA MARTINEZ SALAZAR                                              000000000000000000000XDIRCUE00000000000000000000241033 FONDOS INSUFICIENTES                    0000000000000000000000000
BZMOV00000000000000000000000000202302112023021100000000004167758737R000000925412850CBCONSUMO CELULAR CLARO                                                000000000000000001000000000000000001340400000000000921124828DOLLY JANINA MARTINEZ SALAZAR                                              000000000000000000000XDIRCUE00000000000000000000241033 FONDOS INSUFICIENTES                    0000000000000000000000000
BZMOV00000000000000000000000000202302112023021100000000004167794358R000001206012872CBCONSUMO CELULAR CLARO                                                000000000000000001000000000000000001340400000000000851484045DOLLY JANINA MARTINEZ SALAZAR                                              000000000000000000000XDIRCUE00000000000000000000241033 FONDOS INSUFICIENTES                    0000000000000000000000000
BZMOV00000000000000000000000000202302112023021100000000004168180219R000000942073669CBCONSUMO CELULAR CLARO                                                000000000000000001000000000000000001340400000000000003318971DOLLY JANINA MARTINEZ SALAZAR                                              000000000000000000000XDIRCUE00000000000000000000241033 FONDOS INSUFICIENTES                    0000000000000000000000000
BZMOV00000000000000000000000000202302112023021100000000006046414869R000001203633761CBCONSUMO CELULAR CLARO                                                000000000000000001000000000000000001340400000000000981087686AMAIQUEMA MORALES FREDDY FERNANDO                                          000000000000000000000XDIRCUE00000000000000000000241033 FONDOS INSUFICIENTES                    0000000000000000000000000
BZMOV00000000000000000000000000202302112023021100000000006047313323R000000908731474CBCONSUMO CELULAR CLARO                                                000000000000000001000000000000000001340400000000000911048234JOSE VICENTE REYES BECERRA                                                 000000000000000000000XDIRCUE00000000000000000000241033 FONDOS INSUFICIENTES                    0000000000000000000000000
BZMOV00000000000000000000000000202302112023021100000000006051367798R000000928390343CBCONSUMO CELULAR CLARO                                                000000000000000001000000000000000001340400000000000002000090JANINA PAOLA MENDEZ ARMIJOS                                                000000000000000000000XDIRCUE00000000000000000000241033 FONDOS INSUFICIENTES                    0000000000000000000000000
BZMOV00000000000000000000000000202302112023021100000000006054541506R000000703374124CBCONSUMO CELULAR CLARO                                                000000000000000001000000000000000001340400000000000031209451JUAN CARLOS BURGOS HIGUERA                                                 000000000000000000000XDIRCUE00000000000000000000241033 FONDOS INSUFICIENTES                    0000000000000000000000000
BZMOV00000000000000000000000000202302112023021100000000006061042638R000000905378238CBCONSUMO CELULAR CLARO                                                000000000000000001000000000000000001340400000000000921016460VARGAS ZAMORA EDUARDO AURELIO                                              000000000000000000000XDIRCUE00000000000000000000241057 CUENTA CANCELADA/CERRADA                0000000000000000000000000
BZMOV00000000000000000000000000202302112023021100000000006065897636R000000918760547CBCONSUMO CELULAR CLARO                                                000000000000000001000000000000000001340400000000000821040101QUINTO OCANA JACINTO ARTURO                                                000000000000000000000XDIRCUE00000000000000000000241033 FONDOS INSUFICIENTES                    0000000000000000000000000
BZMOV00000000000000000000000000202302112023021100000000006066442908R000000800464380CBCONSUMO CELULAR CLARO                                                000000000000000001000000000000000001340400000000001021004127LUIS ALBERTO ALBAN ALVAREZ                                                 000000000000000000000XDIRCUE00000000000000000000241033 FONDOS INSUFICIENTES                    0000000000000000000000000
BZMOV00000000000000000000000000202302112023021100000000006067800941R000000941092470CBCONSUMO CELULAR CLARO                                                000000000000000001000000000000000001340400000000000061305365LUIS ALBERTO ALBAN ALVAREZ                                                 000000000000000000000XDIRCUE00000000000000000000230352 SERVICIO SUSPENDIDO POR CLIENTE         0000000000000000000000000
BZMOV00000000000000000000000000202302112023021100000000006068071782R000000930164553CBCONSUMO CELULAR CLARO                                                000000000000000001000000000000000001340400000000001741114988LUIS ALBERTO ALBAN ALVAREZ                                                 000000000000000000000XDIRCUE00000000000000000000241033 FONDOS INSUFICIENTES                    0000000000000000000000000
BZMOV00000000000000000000000000202302112023021100000000006068280084R000000950316455CBCONSUMO CELULAR CLARO                                                000000000000000001000000000000000001340400000000000981418406ALEJANDRO NICOLAS YANZA CARIAPUMA                                          000000000000000000000XDIRCUE00000000000000000000241033 FONDOS INSUFICIENTES                    0000000000000000000000000
BZMOV00000000000000000000000000202302112023021100000000006068411366R000000927994178CBCONSUMO CELULAR CLARO                                                000000000000000001000000000000000001340400000000000881190129JEFFERSON MANUEL PIN LEON                                                  000000000000000000000XDIRCUE00000000000000000000241033 FONDOS INSUFICIENTES                    0000000000000000000000000
BZMOV00000000000000000000000000202302112023021100000000006068477036R000000914976907CBCONSUMO CELULAR CLARO                                                000000000000000001000000000000000001340400000000000841099933FRANCISCO RUBEN CEDILLO URQUIZ                                             000000000000000000000XDIRCUE00000000000000000000241033 FONDOS INSUFICIENTES                    0000000000000000000000000
BZMOV00000000000000000000000000202302112023021100000000006068574558R000000950385104CBCONSUMO CELULAR CLARO                                                000000000000000001000000000000000001340400000000000051861201FRANCISCO RUBEN CEDILLO URQUIZ                                             000000000000000000000XDIRCUE00000000000000000000241033 FONDOS INSUFICIENTES                    0000000000000000000000000
BZMOV00000000000000000000000000202302112023021100000000006068578927R000001311406878CBCONSUMO CELULAR CLARO                                                000000000000000001000000000000000001340400000000000021492199ADRIAN GABRIEL JAYA RICAURTE                                               000000000000000000000XDIRCUE00000000000000000000241033 FONDOS INSUFICIENTES                    0000000000000000000000000
BZMOV00000000000000000000000000202302112023021100000000006068603580R000001201234950CBCONSUMO CELULAR CLARO                                                000000000000000001000000000000000001340400000000000851388423ADRIAN GABRIEL JAYA RICAURTE                                               000000000000000000000XDIRCUE00000000000000000000241033 FONDOS INSUFICIENTES                    0000000000000000000000000
BZMOV00000000000000000000000000202302112023021100000000006068652069R000000915867329CBCONSUMO CELULAR CLARO                                                000000000000000001000000000000000001340400000000000003227223ADRIAN GABRIEL JAYA RICAURTE                                               000000000000000000000XDIRCUE00000000000000000000241033 FONDOS INSUFICIENTES                    0000000000000000000000000
BZMOV00000000000000000000000000202302112023021100000000006068770267R000000915275119CBCONSUMO CELULAR CLARO                                                000000000000000001000000000000000001340400000000000981087862ADRIAN GABRIEL JAYA RICAURTE                                               000000000000000000000XDIRCUE00000000000000000000241033 FONDOS INSUFICIENTES                    0000000000000000000000000
BZMOV00000000000000000000000000202302112023021100000000006068795628R000000927308734CBCONSUMO CELULAR CLARO                                                000000000000000001000000000000000001340400000000000011221469ANNABELL DEL ROCIO TORRES CARDENAS                                         000000000000000000000XDIRCUE00000000000000000000241033 FONDOS INSUFICIENTES                    0000000000000000000000000
BZMOV00000000000000000000000000202302112023021100000000006068818971R000001715543540CBCONSUMO CELULAR CLARO                                                000000000000000001000000000000000001340400000000000003339953ANNABELL DEL ROCIO TORRES CARDENAS                                         000000000000000000000XDIRCUE00000000000000000000241033 FONDOS INSUFICIENTES                    0000000000000000000000000
BZMOV00000000000000000000000000202302112023021100000000006068862596R000001203947872CBCONSUMO CELULAR CLARO                                                000000000000000001000000000000000001340400000000001651040885ANNABELL DEL ROCIO TORRES CARDENAS                                         000000000000000000000XDIRCUE00000000000000000000241033 FONDOS INSUFICIENTES                    0000000000000000000000000
BZMOV00000000000000000000000000202302112023021100000000006068924516R000000928833300CBCONSUMO CELULAR CLARO                                                000000000000000001000000000000000001340400000000000002251710GABRIELA ALEJANDRA SANDOVAL ME                                             000000000000000000000XDIRCUE00000000000000000000241033 FONDOS INSUFICIENTES                    0000000000000000000000000
BZMOV00000000000000000000000000202302112023021100000000008512115257R000000921793022CBCONSUMO CELULAR CLARO                                                000000000000000001000000000000000001340400000000000971071054ANGULO CHILA ARTEMIO MELANIO                                               000000000000000000000XDIRCUE00000000000000000000241033 FONDOS INSUFICIENTES                    0000000000000000000000000
BZMOV00000000000000000000000000202302112023021100000000008512769229R000000915072839CBCONSUMO CELULAR CLARO                                                000000000000000001000000000000000001340400000000000001677031FREDDY SEGUNDO LARROSA BAYONA                                              000000000000000000000XDIRCUE00000000000000000000241033 FONDOS INSUFICIENTES                    0000000000000000000000000
BZMOV00000000000000000000000000202302112023021100000000008512826213R000000953876042CBCONSUMO CELULAR CLARO                                                000000000000000001000000000000000001340400000000000003398633FREDDY SEGUNDO LARROSA BAYONA                                              000000000000000000000XDIRCUE00000000000000000000241033 FONDOS INSUFICIENTES                    0000000000000000000000000
BZMOV00000000000000000000000000202302112023021100000000008512857330R000000104474564CBCONSUMO CELULAR CLARO                                                000000000000000001000000000000000001340400000000004051017651DIANA ALEXANDRA QUITUISACA ARI                                             000000000000000000000XDIRCUE00000000000000000000241033 FONDOS INSUFICIENTES                    0000000000000000000000000
BZMOV00000000000000000000000000202302112023021100000000008512901322R000000911917854CBCONSUMO CELULAR CLARO                                                000000000000000001000000000000000001340400000000007001137523DIANA ALEXANDRA QUITUISACA ARI                                             000000000000000000000XDIRCUE00000000000000000000241033 FONDOS INSUFICIENTES                    0000000000000000000000000
BZMOV00000000000000000000000000202302112023021100000000008512927280R000000924665110CBCONSUMO CELULAR CLARO                                                000000000000000001000000000000000001340400000000000941199984DIANA ALEXANDRA QUITUISACA ARI                                             000000000000000000000XDIRCUE00000000000000000000241033 FONDOS INSUFICIENTES                    0000000000000000000000000
BZMOV00000000000000000000000000202302112023021100000000008512932860R000000918615253CBCONSUMO CELULAR CLARO                                                000000000000000001000000000000000001340300000000001215012970ANGEL ALFREDO CEDEÑO DELGADO                                               000000000000000000000XDIRCUE00000000000000000000241033 FONDOS INSUFICIENTES                    0000000000000000000000000
BZMOV00000000000000000000000000202302112023021100000000008512967921R000000914295480CBCONSUMO CELULAR CLARO                                                000000000000000001000000000000000001340300000000000845006571HECTOR RICARDO CALLE NOBOA                                                 000000000000000000000XDIRCUE00000000000000000000241033 FONDOS INSUFICIENTES                    0000000000000000000000000
BZMOV00000000000000000000000000202302112023021100000000008513009289R000000915456644CBCONSUMO CELULAR CLARO                                                000000000000000001000000000000000001340400000000000941147672ERIK YUKIO DELGADO CAJAPE                                                  000000000000000000000XDIRCUE00000000000000000000241033 FONDOS INSUFICIENTES                    0000000000000000000000000
BZMOV00000000000000000000000000202302112023021100000000008513038105R000001312543273CBCONSUMO CELULAR CLARO                                                000000000000000001000000000000000001340400000000001001271457ERIK YUKIO DELGADO CAJAPE                                                  000000000000000000000XDIRCUE00000000000000000000241033 FONDOS INSUFICIENTES                    0000000000000000000000000
BZMOV00000000000000000000000000202302112023021100000000008513116111R000000923926596CBCONSUMO CELULAR CLARO                                                000000000000000001000000000000000001340400000000000001574437DANIEL DAVID MENDIETA ZAMBRANO                                             000000000000000000000XDIRCUE00000000000000000000241033 FONDOS INSUFICIENTES                    0000000000000000000000000
BZMOV00000000000000000000000000202302112023021100000000008513169213R000000923127088CBCONSUMO CELULAR CLARO                                                000000000000000001000000000000000001340400000000000003093477DANIEL DAVID MENDIETA ZAMBRANO                                             000000000000000000000XDIRCUE00000000000000000000241033 FONDOS INSUFICIENTES                    0000000000000000000000000
BZMOV00000000000000000000000000202302112023021100000000008513292747R000000922219688CBCONSUMO CELULAR CLARO                                                000000000000000001000000000000000001340300000000000985012872DANIEL DAVID MENDIETA ZAMBRANO                                             000000000000000000000XDIRCUE00000000000000000000241033 FONDOS INSUFICIENTES                    0000000000000000000000000
BZMOV00000000000000000000000000202302112023021100000000008513977591R000002400419624CBCONSUMO CELULAR CLARO                                                000000000000000001000000000000000001340400000000007001188717DANIEL DAVID MENDIETA ZAMBRANO                                             000000000000000000000XDIRCUE00000000000000000000241033 FONDOS INSUFICIENTES                    0000000000000000000000000
BZMOV00000000000000000000000000202302112023021100000000008514323126R000000959010034CBCONSUMO CELULAR CLARO                                                000000000000000001000000000000000001340400000000000003248123DANIEL DAVID MENDIETA ZAMBRANO                                             000000000000000000000XDIRCUE00000000000000000000241057 CUENTA CANCELADA/CERRADA                0000000000000000000000000
BZMOV00000000000000000000000000202302112023021100000000008514588217R000000923480487CBCONSUMO CELULAR CLARO                                                000000000000000001000000000000000001340400000000000881107075MARIA KLEYS VERA PLAZA                                                     000000000000000000000XDIRCUE00000000000000000000241033 FONDOS INSUFICIENTES                    0000000000000000000000000
BZMOV00000000000000000000000000202302112023021100000000008515106514R000000942097528CBCONSUMO CELULAR CLARO                                                000000000000000001000000000000000001340400000000000003416493MARIA KLEYS VERA PLAZA                                                     000000000000000000000XDIRCUE00000000000000000000241033 FONDOS INSUFICIENTES                    0000000000000000000000000
BZMOV00000000000000000000000000202302112023021100000000008515487823R000000919369272CBCONSUMO CELULAR CLARO                                                000000000000000001000000000000000001340400000000000002606398MARIA KLEYS VERA PLAZA                                                     000000000000000000000XDIRCUE00000000000000000000241033 FONDOS INSUFICIENTES                    0000000000000000000000000
BZMOV00000000000000000000000000202302112023021100000000008515504437R000001717718868CBCONSUMO CELULAR CLARO                                                000000000000000001000000000000000001340400000000001611026321VERONICA PAOLA CRUZ CABAY                                                  000000000000000000000XDIRCUE00000000000000000000241033 FONDOS INSUFICIENTES                    0000000000000000000000000
BZMOV00000000000000000000000000202302112023021100000000008515523539R000000913222881CBCONSUMO CELULAR CLARO                                                000000000000000001000000000000000001340400000000000881081055ANDREA CELESTE MURILLO SUAREZ                                              000000000000000000000XDIRCUE00000000000000000000241033 FONDOS INSUFICIENTES                    0000000000000000000000000
BZMOV00000000000000000000000000202302112023021100000000008515580327R000000922515747CBCONSUMO CELULAR CLARO                                                000000000000000001000000000000000001340400000000000061327751ANDREA CELESTE MURILLO SUAREZ                                              000000000000000000000XDIRCUE00000000000000000000241033 FONDOS INSUFICIENTES                    0000000000000000000000000
BZMOV00000000000000000000000000202302112023021100000000008515661090R000000916040611CBCONSUMO CELULAR CLARO                                                000000000000000001000000000000000001340400000000002031062243VICENTE LUIS VARGAS MORENO                                                 000000000000000000000XDIRCUE00000000000000000000241033 FONDOS INSUFICIENTES                    0000000000000000000000000
BZMOV00000000000000000000000000202302112023021100000000008515975454R000000915710883CBCONSUMO CELULAR CLARO                                                000000000000000001000000000000000001340400000000000003196279VICENTE LUIS VARGAS MORENO                                                 000000000000000000000XDIRCUE00000000000000000000241033 FONDOS INSUFICIENTES                    0000000000000000000000000
BZMOV00000000000000000000000000202302112023021100000000008516062953R000001400083497CBCONSUMO CELULAR CLARO                                                000000000000000001000000000000000001340400000000000031332415VICENTE LUIS VARGAS MORENO                                                 000000000000000000000XDIRCUE00000000000000000000241033 FONDOS INSUFICIENTES                    0000000000000000000000000
BZMOV00000000000000000000000000202302112023021100000000008516530565R000000959273418CBCONSUMO CELULAR CLARO                                                000000000000000001000000000000000001340400000000000002941514MARIA GABRIELA LOPEZ ESPINOZA                                              000000000000000000000XDIRCUE00000000000000000000241033 FONDOS INSUFICIENTES                    0000000000000000000000000
BZMOV00000000000000000000000000202302112023021100000000008516908635R000001758689598CBCONSUMO CELULAR CLARO                                                000000000000000001000000000000000001340400000000000003281387MARIA GABRIELA LOPEZ ESPINOZA                                              000000000000000000000XDIRCUE00000000000000000000241057 CUENTA CANCELADA/CERRADA                0000000000000000000000000
BZMOV00000000000000000000000000202302112023021100000000008517166596R000000951407543CBCONSUMO CELULAR CLARO                                                000000000000000001000000000000000001340400000000000003627707LOPEZ VERA BYRON ANDRES                                                    000000000000000000000XDIRCUE00000000000000000000241033 FONDOS INSUFICIENTES                    0000000000000000000000000
BZMOV00000000000000000000000000202302112023021100000000008517804842R000000927971945CBCONSUMO CELULAR CLARO                                                000000000000000001000000000000000001340400000000000911497970LOPEZ VERA BYRON ANDRES                                                    000000000000000000000XDIRCUE00000000000000000000241033 FONDOS INSUFICIENTES                    0000000000000000000000000
BZMOV00000000000000000000000000202302112023021100000000008517889380R000000941430175CBCONSUMO CELULAR CLARO                                                000000000000000001000000000000000001340400000000000941275164LOPEZ VERA BYRON ANDRES                                                    000000000000000000000XDIRCUE00000000000000000000241033 FONDOS INSUFICIENTES                    0000000000000000000000000
BZMOV00000000000000000000000000202302112023021100000000008517890036R000001205409376CBCONSUMO CELULAR CLARO                                                000000000000000001000000000000000001340400000000002001167153SILVIA PATRICIA GANCHOZO GIRALDO                                           000000000000000000000XDIRCUE00000000000000000000241033 FONDOS INSUFICIENTES                    0000000000000000000000000
BZMOV00000000000000000000000000202302112023021100000000008518036238R000000702532227CBCONSUMO CELULAR CLARO                                                000000000000000001000000000000000001340400000000003011009963ANDREA KATHERINE MORENO ORDOÑEZ                                            000000000000000000000XDIRCUE00000000000000000000241033 FONDOS INSUFICIENTES                    0000000000000000000000000
BZMOV00000000000000000000000000202302112023021100000000008518609961R000000950312538CBCONSUMO CELULAR CLARO                                                000000000000000001000000000000000001340400000000000951261162ANDREA KATHERINE MORENO ORDOÑEZ                                            000000000000000000000XDIRCUE00000000000000000000241033 FONDOS INSUFICIENTES                    0000000000000000000000000
BZMOV00000000000000000000000000202302112023021100000000008518711685R000002150232938CBCONSUMO CELULAR CLARO                                                000000000000000001000000000000000001340400000000000981557534ANDREA KATHERINE MORENO ORDOÑEZ                                            000000000000000000000XDIRCUE00000000000000000000241033 FONDOS INSUFICIENTES                    0000000000000000000000000
BZMOV00000000000000000000000000202302112023021100000000008519018076R000000917615247CBCONSUMO CELULAR CLARO                                                000000000000000001000000000000000001340300000000001755002349MANUEL LEON MONTALVAN                                                      000000000000000000000XDIRCUE00000000000000000000241033 FONDOS INSUFICIENTES                    0000000000000000000000000
BZMOV00000000000000000000000000202302112023021100000000008519576694R000000915145668CBCONSUMO CELULAR CLARO                                                000000000000000001000000000000000001340400000000000941228412MANUEL LEON MONTALVAN                                                      000000000000000000000XDIRCUE00000000000000000000241033 FONDOS INSUFICIENTES                    0000000000000000000000000
BZMOV00000000000000000000000000202302112023021100000000008519582432R000000952335727CBCONSUMO CELULAR CLARO                                                000000000000000001000000000000000001340400000000000911565466GAVILANES SALAVARRIA STEEVEN JOAO                                          000000000000000000000XDIRCUE00000000000000000000241033 FONDOS INSUFICIENTES                    0000000000000000000000000
BZMOV00000000000000000000000000202302112023021100000000008519590412R000001206256719CBCONSUMO CELULAR CLARO                                                000000000000000001000000000000000001340400000000000002883914GAVILANES SALAVARRIA STEEVEN JOAO                                          000000000000000000000XDIRCUE00000000000000000000241033 FONDOS INSUFICIENTES                    0000000000000000000000000
BZMOV00000000000000000000000000202302112023021100000000008519605742R000602370801001CBCONSUMO CELULAR CLARO                                                000000000000000001000000000000000001340300000000001825000181GAVILANES SALAVARRIA STEEVEN JOAO                                          000000000000000000000XDIRCUE00000000000000000000241033 FONDOS INSUFICIENTES                    0000000000000000000000000
BZMOV00000000000000000000000000202302112023021100000000008519606418R000000925230559CBCONSUMO CELULAR CLARO                                                000000000000000001000000000000000001340400000000000851376841GAVILANES SALAVARRIA STEEVEN JOAO                                          000000000000000000000XDIRCUE00000000000000000000241033 FONDOS INSUFICIENTES                    0000000000000000000000000
BZMOV00000000000000000000000000202302112023021100000000008519606449R000001206068445CBCONSUMO CELULAR CLARO                                                000000000000000001000000000000000001340400000000006001107167GAVILANES SALAVARRIA STEEVEN JOAO                                          000000000000000000000XDIRCUE00000000000000000000241033 FONDOS INSUFICIENTES                    0000000000000000000000000
BZMOV00000000000000000000000000202302112023021100000000008519607665R000001206309005CBCONSUMO CELULAR CLARO                                                000000000000000001000000000000000001340400000000002031108907GAVILANES SALAVARRIA STEEVEN JOAO                                          000000000000000000000XDIRCUE00000000000000000000241033 FONDOS INSUFICIENTES                    0000000000000000000000000
BZMOV00000000000000000000000000202302112023021100000000008519622806R000000803065283CBCONSUMO CELULAR CLARO                                                000000000000000001000000000000000001340400000000001301027952ANDRES ORLANDO VALENCIA GUEVAR                                             000000000000000000000XDIRCUE00000000000000000000241033 FONDOS INSUFICIENTES                    0000000000000000000000000
BZMOV00000000000000000000000000202302112023021100000000008520407295R000000955090923CBCONSUMO CELULAR CLARO                                                000000000000000001000000000000000001340400000000000003391859ANDRES ORLANDO VALENCIA GUEVAR                                             000000000000000000000XDIRCUE00000000000000000000241033 FONDOS INSUFICIENTES                    0000000000000000000000000
BZMOV00000000000000000000000000202302112023021100000000008520692308R000000908029655CBCONSUMO CELULAR CLARO                                                000000000000000001000000000000000001340400000000000941293134ANDRES ORLANDO VALENCIA GUEVAR                                             000000000000000000000XDIRCUE00000000000000000000241033 FONDOS INSUFICIENTES                    0000000000000000000000000
BZMOV00000000000000000000000000202302112023021100000000008520693779R000000927469007CBCONSUMO CELULAR CLARO                                                000000000000000001000000000000000001340400000000000911570516ANDRES ORLANDO VALENCIA GUEVAR                                             000000000000000000000XDIRCUE00000000000000000000241033 FONDOS INSUFICIENTES                    0000000000000000000000000
BZMOV00000000000000000000000000202302112023021100000000008520747691R000000929590396CBCONSUMO CELULAR CLARO                                                000000000000000001000000000000000001340400000000000931106520ABAD VILLAMAR MITCHELL ALEXANDER                                           000000000000000000000XDIRCUE00000000000000000000241033 FONDOS INSUFICIENTES                    0000000000000000000000000
BZMOV00000000000000000000000000202302112023021100000000008520771883R000000917584294CBCONSUMO CELULAR CLARO                                                000000000000000001000000000000000001340400000000000001760123VICTOR EBENEZER PAZMINO MORAN                                              000000000000000000000XDIRCUE00000000000000000000241033 FONDOS INSUFICIENTES                    0000000000000000000000000
BZMOV00000000000000000000000000202302112023021100000000008520778875R000000914801170CBCONSUMO CELULAR CLARO                                                000000000000000001000000000000000001340400000000000941210240VICTOR EBENEZER PAZMINO MORAN                                              000000000000000000000XDIRCUE00000000000000000000230352 SERVICIO SUSPENDIDO POR CLIENTE         0000000000000000000000000
BZMOV00000000000000000000000000202302112023021100000000008521006193R000001722197306CBCONSUMO CELULAR CLARO                                                000000000000000001000000000000000001340400000000000861189627DOMINGUEZ CAMPOVERDE EFREN DANILO                                          000000000000000000000XDIRCUE00000000000000000000241033 FONDOS INSUFICIENTES                    0000000000000000000000000
BZMOV00000000000000000000000000202302112023021100000000008521204713R000000919747279CBCONSUMO CELULAR CLARO                                                000000000000000001000000000000000001340400000000001781017384PEDRO ALEJANDRO VALLEJO BOSSO                                              000000000000000000000XDIRCUE00000000000000000000241033 FONDOS INSUFICIENTES                    0000000000000000000000000
BZMOV00000000000000000000000000202302112023021100000000008521489084R000001718124694CBCONSUMO CELULAR CLARO                                                000000000000000001000000000000000001340400000000001641083075PEDRO ALEJANDRO VALLEJO BOSSO                                              000000000000000000000XDIRCUE00000000000000000000241033 FONDOS INSUFICIENTES                    0000000000000000000000000
BZMOV00000000000000000000000000202302112023021100000000008522351987R000000925971756CBCONSUMO CELULAR CLARO                                                000000000000000001000000000000000001340400000000000961026272EDDY DANIEL BASTIDAS MACIAS                                                000000000000000000000XDIRCUE00000000000000000000241033 FONDOS INSUFICIENTES                    0000000000000000000000000
BZMOV00000000000000000000000000202302112023021100000000008522380384R000000926472390CBCONSUMO CELULAR CLARO                                                000000000000000001000000000000000001340400000000000011161261EDDY DANIEL BASTIDAS MACIAS                                                000000000000000000000XDIRCUE00000000000000000000241033 FONDOS INSUFICIENTES                    0000000000000000000000000
BZMOV00000000000000000000000000202302112023021100000000008522390626R000000931537906CBCONSUMO CELULAR CLARO                                                000000000000000001000000000000000001340400000000001741069720EDDY DANIEL BASTIDAS MACIAS                                                000000000000000000000XDIRCUE00000000000000000000241033 FONDOS INSUFICIENTES                    0000000000000000000000000
BZMOV00000000000000000000000000202302112023021100000000008522406700R000000924617624CBCONSUMO CELULAR CLARO                                                000000000000000001000000000000000001340400000000000021668597EDDY DANIEL BASTIDAS MACIAS                                                000000000000000000000XDIRCUE00000000000000000000241033 FONDOS INSUFICIENTES                    0000000000000000000000000
BZMOV00000000000000000000000000202302112023021100000000008522459072R000000951564608CBCONSUMO CELULAR CLARO                                                000000000000000001000000000000000001340400000000000003517707EDDY DANIEL BASTIDAS MACIAS                                                000000000000000000000XDIRCUE00000000000000000000241033 FONDOS INSUFICIENTES                    0000000000000000000000000
BZMOV00000000000000000000000000202302112023021100000000008522487439R000001718317660CBCONSUMO CELULAR CLARO                                                000000000000000001000000000000000001340400000000005011071521DENNIS FERNANDA LOPEZ ZAMBRANO                                             000000000000000000000XDIRCUE00000000000000000000241033 FONDOS INSUFICIENTES                    0000000000000000000000000
BZMOV00000000000000000000000000202302112023021100000000008522545037R000000926345596CBCONSUMO CELULAR CLARO                                                000000000000000001000000000000000001340400000000000911436636DENNIS FERNANDA LOPEZ ZAMBRANO                                             000000000000000000000XDIRCUE00000000000000000000241057 CUENTA CANCELADA/CERRADA                0000000000000000000000000
BZMOV00000000000000000000000000202302112023021100000000008523119451R000001750400952CBCONSUMO CELULAR CLARO                                                000000000000000001000000000000000001340400000000005001627191REBECA MICHELLE SIGCHA DE LA CRUZ                                          000000000000000000000XDIRCUE00000000000000000000241033 FONDOS INSUFICIENTES                    0000000000000000000000000
BZMOV00000000000000000000000000202302112023021100000000008523145189R000000950422089CBCONSUMO CELULAR CLARO                                                000000000000000001000000000000000001340400000000000021480539ESCOBAR GUACHILEMA JHONATAN PAUL                                           000000000000000000000XDIRCUE00000000000000000000241033 FONDOS INSUFICIENTES                    0000000000000000000000000
BZMOV00000000000000000000000000202302112023021100000000008523151842R000000952756112CBCONSUMO CELULAR CLARO                                                000000000000000001000000000000000001340400000000000981400570ESCOBAR GUACHILEMA JHONATAN PAUL                                           000000000000000000000XDIRCUE00000000000000000000241033 FONDOS INSUFICIENTES                    0000000000000000000000000
BZMOV00000000000000000000000000202302112023021100000000008523175706R000000930053467CBCONSUMO CELULAR CLARO                                                000000000000000001000000000000000001340400000000000002944494ESCOBAR GUACHILEMA JHONATAN PAUL                                           000000000000000000000XDIRCUE00000000000000000000241033 FONDOS INSUFICIENTES                    0000000000000000000000000
BZMOV00000000000000000000000000202302112023021100000000008523237204R000001310900509CBCONSUMO CELULAR CLARO                                                000000000000000001000000000000000001340400000000002001174477ESCOBAR GUACHILEMA JHONATAN PAUL                                           000000000000000000000XDIRCUE00000000000000000000241033 FONDOS INSUFICIENTES                    0000000000000000000000000
BZMOV00000000000000000000000000202302112023021100000000008523245475R000000916000755CBCONSUMO CELULAR CLARO                                                000000000000000001000000000000000001340400000000001741140950ESCOBAR GUACHILEMA JHONATAN PAUL                                           000000000000000000000XDIRCUE00000000000000000000241033 FONDOS INSUFICIENTES                    0000000000000000000000000
BZMOV00000000000000000000000000202302112023021100000000008523334245R000000919499632CBCONSUMO CELULAR CLARO                                                000000000000000001000000000000000001340400000000000941031192JEFFERSON DAVID GUAMAN RODRIGU                                             000000000000000000000XDIRCUE00000000000000000000241033 FONDOS INSUFICIENTES                    0000000000000000000000000
BZMOV00000000000000000000000000202302112023021100000000008523713705R000001314729722CBCONSUMO CELULAR CLARO                                                000000000000000001000000000000000001340400000000001101173872JEFFERSON DAVID GUAMAN RODRIGU                                             000000000000000000000XDIRCUE00000000000000000000241033 FONDOS INSUFICIENTES                    0000000000000000000000000
BZMOV00000000000000000000000000202302112023021100000000008523721294R000000924928500CBCONSUMO CELULAR CLARO                                                000000000000000001000000000000000001340400000000007001060023GLORIA MAGDALENA GONZALEZ SORI                                             000000000000000000000XDIRCUE00000000000000000000241033 FONDOS INSUFICIENTES                    0000000000000000000000000
BZMOV00000000000000000000000000202302112023021100000000008523782896R000000106104706CBCONSUMO CELULAR CLARO                                                000000000000000001000000000000000001340400000000004071082135GLORIA MAGDALENA GONZALEZ SORI                                             000000000000000000000XDIRCUE00000000000000000000241033 FONDOS INSUFICIENTES                    0000000000000000000000000
BZMOV00000000000000000000000000202302112023021100000000008523792288R000000916051063CBCONSUMO CELULAR CLARO                                                000000000000000001000000000000000001340400000000000002279438GLORIA MAGDALENA GONZALEZ SORI                                             000000000000000000000XDIRCUE00000000000000000000241033 FONDOS INSUFICIENTES                    0000000000000000000000000
BZMOV00000000000000000000000000202302112023021100000000008523800535R000000925743809CBCONSUMO CELULAR CLARO                                                000000000000000001000000000000000001340400000000000061252283RICARDO XAVIER RODRIGUEZ VISCAINO                                          000000000000000000000XDIRCUE00000000000000000000241033 FONDOS INSUFICIENTES                    0000000000000000000000000
BZMOV00000000000000000000000000202302112023021100000000008524083772R000000951749613CBCONSUMO CELULAR CLARO                                                000000000000000001000000000000000001340400000000000911535782MEZA MENDEZ SEBASTIAN JEFFERSON                                            000000000000000000000XDIRCUE00000000000000000000241033 FONDOS INSUFICIENTES                    0000000000000000000000000
BZMOV00000000000000000000000000202302112023021100000000008524131205R000000920386158CBCONSUMO CELULAR CLARO                                                000000000000000001000000000000000001340400000000000041188093MEZA MENDEZ SEBASTIAN JEFFERSON                                            000000000000000000000XDIRCUE00000000000000000000241033 FONDOS INSUFICIENTES                    0000000000000000000000000
BZMOV00000000000000000000000000202302112023021100000000008524143485R000000921359873CBCONSUMO CELULAR CLARO                                                000000000000000001000000000000000001340400000000000941380340MEZA MENDEZ SEBASTIAN JEFFERSON                                            000000000000000000000XDIRCUE00000000000000000000241033 FONDOS INSUFICIENTES                    0000000000000000000000000
BZMOV00000000000000000000000000202302112023021100000000008524143864R000000059906391CBCONSUMO CELULAR CLARO                                                000000000000000001000000000000000001340400000000000002899434ORLANDO JOSE RODRIGUEZ LOVERA                                              000000000000000000000XDIRCUE00000000000000000000241033 FONDOS INSUFICIENTES                    0000000000000000000000000
BZMOV00000000000000000000000000202302112023021100000000008524145567R000000932268675CBCONSUMO CELULAR CLARO                                                000000000000000001000000000000000001340400000000000003480333ORLANDO JOSE RODRIGUEZ LOVERA                                              000000000000000000000XDIRCUE00000000000000000000241033 FONDOS INSUFICIENTES                    0000000000000000000000000
BZMOV00000000000000000000000000202302112023021100000000008524214393R000001726311796CBCONSUMO CELULAR CLARO                                                000000000000000001000000000000000001340400000000000051818007ORLANDO JOSE RODRIGUEZ LOVERA                                              000000000000000000000XDIRCUE00000000000000000000241033 FONDOS INSUFICIENTES                    0000000000000000000000000
BZMOV00000000000000000000000000202302112023021100000000008524309439R000000940838741CBCONSUMO CELULAR CLARO                                                000000000000000001000000000000000001340400000000000841249393ORLANDO JOSE RODRIGUEZ LOVERA                                              000000000000000000000XDIRCUE00000000000000000000241033 FONDOS INSUFICIENTES                    0000000000000000000000000
BZMOV00000000000000000000000000202302112023021100000000008524606522R000001305418251CBCONSUMO CELULAR CLARO                                                000000000000000001000000000000000001340400000000002001183465ANGEL DIMEROT MACHUCA VELEZ                                                000000000000000000000XDIRCUE00000000000000000000241057 CUENTA CANCELADA/CERRADA                0000000000000000000000000
BZMOV00000000000000000000000000202302112023021100000000008524769387R000000923795660CBCONSUMO CELULAR CLARO                                                000000000000000001000000000000000001340400000000000021632717ANGEL DIMEROT MACHUCA VELEZ                                                000000000000000000000XDIRCUE00000000000000000000241033 FONDOS INSUFICIENTES                    0000000000000000000000000
BZMOV00000000000000000000000000202302112023021100000000008524788555R000000910273598CBCONSUMO CELULAR CLARO                                                000000000000000001000000000000000001340400000000000921254144ANGEL DIMEROT MACHUCA VELEZ                                                000000000000000000000XDIRCUE00000000000000000000241033 FONDOS INSUFICIENTES                    0000000000000000000000000
BZMOV00000000000000000000000000202302112023021100000000008524837619R000001203190218CBCONSUMO CELULAR CLARO                                                000000000000000001000000000000000001340400000000002001126377ANGEL DIMEROT MACHUCA VELEZ                                                000000000000000000000XDIRCUE00000000000000000000241033 FONDOS INSUFICIENTES                    0000000000000000000000000
BZMOV00000000000000000000000000202302112023021100000000008524850133R000000950103481CBCONSUMO CELULAR CLARO                                                000000000000000001000000000000000001340400000000001821012587ANGEL DIMEROT MACHUCA VELEZ                                                000000000000000000000XDIRCUE00000000000000000000241033 FONDOS INSUFICIENTES                    0000000000000000000000000
BZMOV00000000000000000000000000202302112023021100000000008524872737R000001712487691CBCONSUMO CELULAR CLARO                                                000000000000000001000000000000000001340400000000000971057780ANGEL DIMEROT MACHUCA VELEZ                                                000000000000000000000XDIRCUE00000000000000000000241033 FONDOS INSUFICIENTES                    0000000000000000000000000
BZMOV00000000000000000000000000202302112023021100000000008524877053R000000930087804CBCONSUMO CELULAR CLARO                                                000000000000000001000000000000000001340400000000001741157614KENNY ALFREDO ARANDA TOBAR                                                 000000000000000000000XDIRCUE00000000000000000000241033 FONDOS INSUFICIENTES                    0000000000000000000000000
BZMOV00000000000000000000000000202302112023021100000000008524878033R000000909103988CBCONSUMO CELULAR CLARO                                                000000000000000001000000000000000001340400000000000003174767SABINA MARIA RAMIREZ DELGADO                                               000000000000000000000XDIRCUE00000000000000000000241033 FONDOS INSUFICIENTES                    0000000000000000000000000
BZMOV00000000000000000000000000202302112023021100000000008524880893R000000917041329CBCONSUMO CELULAR CLARO                                                000000000000000001000000000000000001340400000000000951197960SABINA MARIA RAMIREZ DELGADO                                               000000000000000000000XDIRCUE00000000000000000000241033 FONDOS INSUFICIENTES                    0000000000000000000000000
BZMOV00000000000000000000000000202302112023021100000000008524905058R000002400087306CBCONSUMO CELULAR CLARO                                                000000000000000001000000000000000001340400000000000981451220TOMALA RAMOS WILMER IVAN                                                   000000000000000000000XDIRCUE00000000000000000000241033 FONDOS INSUFICIENTES                    0000000000000000000000000
BZMOV00000000000000000000000000202302112023021100000000008525525398R000000919482828CBCONSUMO CELULAR CLARO                                                000000000000000001000000000000000001340400000000000911491852TOMALA RAMOS WILMER IVAN                                                   000000000000000000000XDIRCUE00000000000000000000241033 FONDOS INSUFICIENTES                    0000000000000000000000000
BZMOV00000000000000000000000000202302112023021100000000008525530455R000000920222577CBCONSUMO CELULAR CLARO                                                000000000000000001000000000000000001340400000000000931266674VINCES CONTRERAS ESTHER ELIZABETH                                          000000000000000000000XDIRCUE00000000000000000000241033 FONDOS INSUFICIENTES                    0000000000000000000000000
BZMOV00000000000000000000000000202302112023021100000000008525534362R000000803517432CBCONSUMO CELULAR CLARO                                                000000000000000001000000000000000001340400000000001001309433VINCES CONTRERAS ESTHER ELIZABETH                                          000000000000000000000XDIRCUE00000000000000000000241033 FONDOS INSUFICIENTES                    0000000000000000000000000
BZMOV00000000000000000000000000202302112023021100000000008525550911R000001720708963CBCONSUMO CELULAR CLARO                                                000000000000000001000000000000000001340400000000005001305505VINCES CONTRERAS ESTHER ELIZABETH                                          000000000000000000000XDIRCUE00000000000000000000241033 FONDOS INSUFICIENTES                    0000000000000000000000000
BZMOV00000000000000000000000000202302112023021100000000008525556135R000000931408173CBCONSUMO CELULAR CLARO                                                000000000000000001000000000000000001340400000000000003462219ORTEGA PALACIOS JEAN FRANCO                                                000000000000000000000XDIRCUE00000000000000000000241033 FONDOS INSUFICIENTES                    0000000000000000000000000
BZMOV00000000000000000000000000202302112023021100000000008525580186R000001729847762CBCONSUMO CELULAR CLARO                                                000000000000000001000000000000000001340400000000000921415986ORTEGA PALACIOS JEAN FRANCO                                                000000000000000000000XDIRCUE00000000000000000000241033 FONDOS INSUFICIENTES                    0000000000000000000000000
BZMOV00000000000000000000000000202302112023021100000000008525611026R000000919945584CBCONSUMO CELULAR CLARO                                                000000000000000001000000000000000001340400000000000861078181MONTERO QUINDE LUZ MARIA                                                   000000000000000000000XDIRCUE00000000000000000000241033 FONDOS INSUFICIENTES                    0000000000000000000000000
BZMOV00000000000000000000000000202302112023021100000000008526274464R000001721267027CBCONSUMO CELULAR CLARO                                                000000000000000001000000000000000001340400000000001671020343MARCIA NATALY MALDONADO PANTOJA                                            000000000000000000000XDIRCUE00000000000000000000241033 FONDOS INSUFICIENTES                    0000000000000000000000000
BZMOV00000000000000000000000000202302112023021100000000008526287150R000000925736100CBCONSUMO CELULAR CLARO                                                000000000000000001000000000000000001340400000000000841147153MARCIA NATALY MALDONADO PANTOJA                                            000000000000000000000XDIRCUE00000000000000000000241057 CUENTA CANCELADA/CERRADA                0000000000000000000000000
BZMOV00000000000000000000000000202302112023021100000000008526295696R000000800641037CBCONSUMO CELULAR CLARO                                                000000000000000001000000000000000001340300000000000925038452MARCIA NATALY MALDONADO PANTOJA                                            000000000000000000000XDIRCUE00000000000000000000241033 FONDOS INSUFICIENTES                    0000000000000000000000000
BZMOV00000000000000000000000000202302112023021100000000008526298335R000000923075279CBCONSUMO CELULAR CLARO                                                000000000000000001000000000000000001340400000000000981572300MARCIA NATALY MALDONADO PANTOJA                                            000000000000000000000XDIRCUE00000000000000000000241033 FONDOS INSUFICIENTES                    0000000000000000000000000
BZMOV00000000000000000000000000202302112023021100000000008526306918R000000918693334CBCONSUMO CELULAR CLARO                                                000000000000000001000000000000000001340300000000004025018543VIVIANA  RODRIGUEZ AVILA                                                   000000000000000000000XDIRCUE00000000000000000000241033 FONDOS INSUFICIENTES                    0000000000000000000000000
BZMOV00000000000000000000000000202302112023021100000000008526326514R000000940376932CBCONSUMO CELULAR CLARO                                                000000000000000001000000000000000001340400000000000981644284VIVIANA  RODRIGUEZ AVILA                                                   000000000000000000000XDIRCUE00000000000000000000241033 FONDOS INSUFICIENTES                    0000000000000000000000000
BZMOV00000000000000000000000000202302112023021100000000008526783704R000000928518828CBCONSUMO CELULAR CLARO                                                000000000000000001000000000000000001340400000000002031145509VIVIANA  RODRIGUEZ AVILA                                                   000000000000000000000XDIRCUE00000000000000000000241033 FONDOS INSUFICIENTES                    0000000000000000000000000
BZMOV00000000000000000000000000202302112023021100000000008526792387R000000958802423CBCONSUMO CELULAR CLARO                                                000000000000000001000000000000000001340400000000000861210973VIVIANA  RODRIGUEZ AVILA                                                   000000000000000000000XDIRCUE00000000000000000000241033 FONDOS INSUFICIENTES                    0000000000000000000000000
BZMOV00000000000000000000000000202302112023021100000000008526822159R000000913496428CBCONSUMO CELULAR CLARO                                                000000000000000001000000000000000001340400000000000841148771VIVIANA  RODRIGUEZ AVILA                                                   000000000000000000000XDIRCUE00000000000000000000241033 FONDOS INSUFICIENTES                    0000000000000000000000000
BZMOV00000000000000000000000000202302112023021100000000008526844820R000000950227108CBCONSUMO CELULAR CLARO                                                000000000000000001000000000000000001340400000000000861224285VIVIANA  RODRIGUEZ AVILA                                                   000000000000000000000XDIRCUE00000000000000000000241033 FONDOS INSUFICIENTES                    0000000000000000000000000
BZMOV00000000000000000000000000202302112023021100000000008526853059R000000705347169CBCONSUMO CELULAR CLARO                                                000000000000000001000000000000000001340400000000003011043239JUAN CARLOS CARCELEN CUEVA                                                 000000000000000000000XDIRCUE00000000000000000000241033 FONDOS INSUFICIENTES                    0000000000000000000000000
BZMOV00000000000000000000000000202302112023021100000000008526854798R000001104803893CBCONSUMO CELULAR CLARO                                                000000000000000001000000000000000001340400000000001401196359JUAN CARLOS CARCELEN CUEVA                                                 000000000000000000000XDIRCUE00000000000000000000241033 FONDOS INSUFICIENTES                    0000000000000000000000000
BZMOV00000000000000000000000000202302112023021100000000008526879146R000000952837458CBCONSUMO CELULAR CLARO                                                000000000000000001000000000000000001340400000000000003394421JUAN CARLOS CARCELEN CUEVA                                                 000000000000000000000XDIRCUE00000000000000000000241033 FONDOS INSUFICIENTES                    0000000000000000000000000
BZMOV00000000000000000000000000202302112023021100000000008527400552R000001315950822CBCONSUMO CELULAR CLARO                                                000000000000000001000000000000000001340400000000000051906501JUAN CARLOS CARCELEN CUEVA                                                 000000000000000000000XDIRCUE00000000000000000000241033 FONDOS INSUFICIENTES                    0000000000000000000000000
BZMOV00000000000000000000000000202302112023021100000000008527427340R000000930564380CBCONSUMO CELULAR CLARO                                                000000000000000001000000000000000001340400000000000951305508JUAN CARLOS CARCELEN CUEVA                                                 000000000000000000000XDIRCUE00000000000000000000241033 FONDOS INSUFICIENTES                    0000000000000000000000000
BZMOV00000000000000000000000000202302112023021100000000008527432264R000000924970312CBCONSUMO CELULAR CLARO                                                000000000000000001000000000000000001340400000000000021583545JUAN CARLOS CARCELEN CUEVA                                                 000000000000000000000XDIRCUE00000000000000000000241033 FONDOS INSUFICIENTES                    0000000000000000000000000
BZMOV00000000000000000000000000202302112023021100000000008527444117R000000915917181CBCONSUMO CELULAR CLARO                                                000000000000000001000000000000000001340400000000001101070982JAVIER ELENO MAGALLAN MAGALLAN                                             000000000000000000000XDIRCUE00000000000000000000241033 FONDOS INSUFICIENTES                    0000000000000000000000000
BZMOV00000000000000000000000000202302112023021100000000008527454181R000000914757638CBCONSUMO CELULAR CLARO                                                000000000000000001000000000000000001340400000000000021501405JAVIER ELENO MAGALLAN MAGALLAN                                             000000000000000000000XDIRCUE00000000000000000000241033 FONDOS INSUFICIENTES                    0000000000000000000000000
BZMOV00000000000000000000000000202302112023021100000000008527820019R000000920006434CBCONSUMO CELULAR CLARO                                                000000000000000001000000000000000001340400000000000002022612CINTHYA PAOLA MONTJOY BOHORQUE                                             000000000000000000000XDIRCUE00000000000000000000241033 FONDOS INSUFICIENTES                    0000000000000000000000000
BZMOV00000000000000000000000000202302112023021100000000008527849737R000000802367433CBCONSUMO CELULAR CLARO                                                000000000000000001000000000000000001340400000000001101176988MABEL DEL CARMEN FRANCO QUIROZ                                             000000000000000000000XDIRCUE00000000000000000000241033 FONDOS INSUFICIENTES                    0000000000000000000000000
BZMOV00000000000000000000000000202302112023021100000000008527850029R000000918148065CBCONSUMO CELULAR CLARO                                                000000000000000001000000000000000001340400000000000871120477MABEL DEL CARMEN FRANCO QUIROZ                                             000000000000000000000XDIRCUE00000000000000000000241057 CUENTA CANCELADA/CERRADA                0000000000000000000000000
BZMOV00000000000000000000000000202302112023021100000000008527854101R000000927352179CBCONSUMO CELULAR CLARO                                                000000000000000001000000000000000001340400000000001831016181MABEL DEL CARMEN FRANCO QUIROZ                                             000000000000000000000XDIRCUE00000000000000000000241033 FONDOS INSUFICIENTES                    0000000000000000000000000
BZMOV00000000000000000000000000202302112023021100000000008527854776R000000912518552CBCONSUMO CELULAR CLARO                                                000000000000000001000000000000000001340400000000000861079221MARCOS ANDRES GONZALEZ QUIMI                                               000000000000000000000XDIRCUE00000000000000000000241033 FONDOS INSUFICIENTES                    0000000000000000000000000
BZMOV00000000000000000000000000202302112023021100000000008527880971R000001103758049CBCONSUMO CELULAR CLARO                                                000000000000000001000000000000000001340400000000002001100839JUAN CARLOS OROZCO HERRERA                                                 000000000000000000000XDIRCUE00000000000000000000241033 FONDOS INSUFICIENTES                    0000000000000000000000000
BZMOV00000000000000000000000000202302112023021100000000008527882063R000000924928500CBCONSUMO CELULAR CLARO                                                000000000000000001000000000000000001340400000000007001060023GLORIA MAGDALENA GONZALEZ SORI                                             000000000000000000000XDIRCUE00000000000000000000241033 FONDOS INSUFICIENTES                    0000000000000000000000000
BZMOV00000000000000000000000000202302112023021100000000008527886516R000000803082916CBCONSUMO CELULAR CLARO                                                000000000000000001000000000000000001340400000000001301061092JHONNY MARTIRES ANGULO CASTILL                                             000000000000000000000XDIRCUE00000000000000000000241033 FONDOS INSUFICIENTES                    0000000000000000000000000
BZMOV00000000000000000000000000202302112023021100000000008527888260R000000914960802CBCONSUMO CELULAR CLARO                                                000000000000000001000000000000000001340400000000000841253881ADRIAN RAFAEL MUÃ‘OZ MANOSALVAS                                            000000000000000000000XDIRCUE00000000000000000000241033 FONDOS INSUFICIENTES                    0000000000000000000000000
BZMOV00000000000000000000000000202302112023021100000000008527971296R000001250521620CBCONSUMO CELULAR CLARO                                                000000000000000001000000000000000001340400000000000011232011ADRIAN RAFAEL MUÃ‘OZ MANOSALVAS                                            000000000000000000000XDIRCUE00000000000000000000241033 FONDOS INSUFICIENTES                    0000000000000000000000000
BZMOV00000000000000000000000000202302112023021100000000008528617572R000000951672617CBCONSUMO CELULAR CLARO                                                000000000000000001000000000000000001340400000000001741096908ADRIAN RAFAEL MUÃ‘OZ MANOSALVAS                                            000000000000000000000XDIRCUE00000000000000000000230352 SERVICIO SUSPENDIDO POR CLIENTE         0000000000000000000000000
BZMOV00000000000000000000000000202302112023021100000000008528620540R000001754970273CBCONSUMO CELULAR CLARO                                                000000000000000001000000000000000001340300000000001665002950MARISOL FARIÑAS MARTINEZ                                                   000000000000000000000XDIRCUE00000000000000000000241033 FONDOS INSUFICIENTES                    0000000000000000000000000
BZMOV00000000000000000000000000202302112023021100000000008528717098R000000924613896CBCONSUMO CELULAR CLARO                                                000000000000000001000000000000000001340400000000000841331537MARISOL FARIÑAS MARTINEZ                                                   000000000000000000000XDIRCUE00000000000000000000241033 FONDOS INSUFICIENTES                    0000000000000000000000000
BZMOV00000000000000000000000000202302112023021100000000008528769628R000001709215592CBCONSUMO CELULAR CLARO                                                000000000000000001000000000000000001340300000000000875012582LUIS FERNANDO LALAMA M.                                                    000000000000000000000XDIRCUE00000000000000000000241033 FONDOS INSUFICIENTES                    0000000000000000000000000
BZMOV00000000000000000000000000202302112023021100000000008528988250R000000953859253CBCONSUMO CELULAR CLARO                                                000000000000000001000000000000000001340400000000000021786203LUIS FERNANDO LALAMA M.                                                    000000000000000000000XDIRCUE00000000000000000000241033 FONDOS INSUFICIENTES                    0000000000000000000000000
BZMOV00000000000000000000000000202302112023021100000000008529069717R000000904881174CBCONSUMO CELULAR CLARO                                                000000000000000001000000000000000001340400000000000003537303LUIS FERNANDO LALAMA M.                                                    000000000000000000000XDIRCUE00000000000000000000241057 CUENTA CANCELADA/CERRADA                0000000000000000000000000
BZMOV00000000000000000000000000202302112023021100000000008529082086R000000931246375CBCONSUMO CELULAR CLARO                                                000000000000000001000000000000000001340400000000001741159542LUIS FERNANDO LALAMA M.                                                    000000000000000000000XDIRCUE00000000000000000000241033 FONDOS INSUFICIENTES                    0000000000000000000000000
BZMOV00000000000000000000000000202302112023021100000000008529082334R000001312621848CBCONSUMO CELULAR CLARO                                                000000000000000001000000000000000001340400000000000021734963LUIS FERNANDO LALAMA M.                                                    000000000000000000000XDIRCUE00000000000000000000241033 FONDOS INSUFICIENTES                    0000000000000000000000000
