BZDET000001000000004067830395R1804459319    PADILLA FLORES ANGEL ESTUARDO                               CUE00134045001525083          1000000000098187CONSUMO CELULAR CLARO                                       001214013611359000000000087667000000000000000000000000000000                                                                                                                                       REC                               00038000000000010520001000000000000000000000000000000000000000000000000000000000000
BZDET000002000000004068137258R0923852578    ADRIAN ESPINOZA MICHEL MARIUXI                              CUE00134040061255327          1000000000003345CONSUMO CELULAR CLARO                                       001215031182464000000000002987000000000000000000000000000000                                                                                                                                       REC                               00038000000000000358001000000000000000000000000000000000000000000000000000000000000
BZDET000003000000004105642403R0905624359    BORBOR HERNANDEZ BELLA ALEJANDRA                            CUE00134040002144442          1000000000007151CONSUMO CELULAR CLARO                                       001214013595356000000000006385000000000000000000000000000766                                                                                                                                       REC                               00038000000000000766001000000000000000000000000006385000000000000000000000000006385
BZDET000004000000004114349779R0910617117    TOMALA ALAIS WINSTON FERMIN                                 CUE00134040911408236          1000000000004600CONSUMO CELULAR CLARO                                       001215045411974000000000004108000000000000000000000000000492                                                                                                                                       REC                               00038000000000000492001000000000000000000000000004108000000000000000000000000004108
BZDET000005000000004114717204R0900053380    ALVARADO SERDAN GUILLERMO SEGUNDO                           CUE00134040021144597          1000000000003134CONSUMO CELULAR CLARO                                       001214015466861000000000002799000000000000000000000000000335                                                                                                                                       REC                               00038000000000000335001000000000000000000000000002799000000000000000000000000002799
BZDET000006000000004115232331R1708037575    PEREZ YANEZ WALTER BLAS                                     CUE00134044011053115          1000000000001574CONSUMO CELULAR CLARO                                       001214011929629000000000001406000000000000000000000000000000                                                                                                                                       REC                               00038000000000000168001000000000000000000000000000000000000000000000000000000000000
BZDET000007000000004120107476R0920444742    AGUIRRE FLORES ANA CECILIA                                  CUE00134040851231013          1000000000001600CONSUMO CELULAR CLARO                                       001215046572062000000000001429000000000000000000000000000171                                                                                                                                       REC                               00038000000000000171001000000000000000000000000001429000000000000000000000000001429
BZDET000008000000004120457354R1301474316    JIMENEZ GALARZA ROSA VICTORIA                               CUE00134043001045995          1000000000001790CONSUMO CELULAR CLARO                                       001215046547341000000000001599000000000000000000000000000191                                                                                                                                       REC                               00038000000000000191001000000000000000000000000001599000000000000000000000000001599
BZDET000009000000004120675432R0916559032    BRIONES FERNANDEZ LENIN MAURICIO                            CUE00134030035039583          1000000000003085CONSUMO CELULAR CLARO                                       001215042070431000000000002755000000000000000000000000000000                                                                                                                                       REC                               00038000000000000330001000000000000000000000000000000000000000000000000000000000000
BZDET000010000000004121802463R0922079587    VARGAS GARCIA JONATAN MARCELO                               CUE00134040981011088          1000000000012300CONSUMO CELULAR CLARO                                       001214015209583000000000010983000000000000000000000000000000                                                                                                                                       REC                               00038000000000001317001000000000000000000000000000000000000000000000000000000000000
BZDET000011000000004121829546R0930428198    VARGAS ITURRALDE ALFONSO RAFAEL                             CUE00134040921077754          1000000000006998CONSUMO CELULAR CLARO                                       001214015468173000000000006249000000000000000000000000000000                                                                                                                                       REC                               00038000000000000749001000000000000000000000000000000000000000000000000000000000000
BZDET000012000000004122115975R0918299983    CAICEDO TENORIO FRANKLIN GREGORIO                           CUE00134040001428403          1000000000004466CONSUMO CELULAR CLARO                                       001214014151324000000000003988000000000000000000000000000000                                                                                                                                       REC                               00038000000000000478001000000000000000000000000000000000000000000000000000000000000
BZDET000013000000004125532287R1718502907    SUDARIO ANGULO ISRAEL ROGELIO                               CUE00134040002432746          1000000000034135CONSUMO CELULAR CLARO                                       001215041001374000000000030478000000000000000000000000000000                                                                                                                                       REC                               00038000000000003657001000000000000000000000000000000000000000000000000000000000000
BZDET000014000000004125532996R0913981403    MOLINA BUENAÑO PAULO CESAR                                  CUE00134037005009470          1000000000004702CONSUMO CELULAR CLARO                                       001215046585103000000000004199000000000000000000000000000503                                                                                                                                       REC                               00038000000000000503001000000000000000000000000004199000000000000000000000000004199
BZDET000015000000004125563773R1302602428    ANDRADE CEDEÑO LUIS AURELIO ANTONIO                         CUE00134031105031586          1000000000001633CONSUMO CELULAR CLARO                                       001214012203534000000000001459000000000000000000000000000000                                                                                                                                       REC                               00038000000000000174001000000000000000000000000000000000000000000000000000000000000
BZDET000016000000004125718547R1701674291    LEDESMA GONZALEZ ALBERTO                                    CUE00134045008006616          1000000000001790CONSUMO CELULAR CLARO                                       001215046583049000000000001599000000000000000000000000000191                                                                                                                                       REC                               00038000000000000191001000000000000000000000000001599000000000000000000000000001599
BZDET000017000000004126019898R0923989354    ARRIAGA SAMANIEGO SABINA CONSUELO                           CUE00134040951072750          1000000000002010CONSUMO CELULAR CLARO                                       001215045413973000000000001796000000000000000000000000000214                                                                                                                                       REC                               00038000000000000214001000000000000000000000000001796000000000000000000000000001796
BZDET000018000000004126286864R0926604083    AVILES FLORES JONATHAN ALEXIS                               CUE00134040021280943          1000000000000836CONSUMO CELULAR CLARO                                       001215043152168000000000000747000000000000000000000000000000                                                                                                                                       REC                               00038000000000000089001000000000000000000000000000000000000000000000000000000000000
BZDET000019000000004126486516R0922716675    BARQUET DOMENECH JASSER SAHID                               CUE00134040031140843          1000000000082423CONSUMO CELULAR CLARO                                       001215036628397000000000073592000000000000000000000000000000                                                                                                                                       REC                               00038000000000008831001000000000000000000000000000000000000000000000000000000000000
BZDET000020000000004126984166R0927371658    LOPEZ ORTIZ CARLOS ALBERTO                                  CUE00134030955010141          1000000000018949CONSUMO CELULAR CLARO                                       001214015204536000000000016919000000000000000000000000000000                                                                                                                                       REC                               00038000000000002030001000000000000000000000000000000000000000000000000000000000000
BZDET000021000000004127360752R0903587731    RUIZ CASTRO GREGORIO ALEJANDRO                              CUE00134040021132163          1000000000000642CONSUMO CELULAR CLARO                                       001215044272222000000000000574000000000000000000000000000000                                                                                                                                       REC                               00038000000000000068001000000000000000000000000000000000000000000000000000000000000
BZDET000022000000004128436948R0916965502    SABANDO GARCIA ENRIQUE FERNANDO                             CUE00134030035049559          1000000000010042CONSUMO CELULAR CLARO                                       001214012494846000000000008967000000000000000000000000000000                                                                                                                                       REC                               00038000000000001075001000000000000000000000000000000000000000000000000000000000000
BZDET000023000000004132591019R0922494927    ALVARADO SOLORZANO GABRIEL LEONARDO                         CUE00134040911257786          1000000000000224CONSUMO CELULAR CLARO                                       001215044335556000000000000201000000000000000000000000000000                                                                                                                                       REC                               00038000000000000023001000000000000000000000000000000000000000000000000000000000000
BZDET000024000000004132763524R0603209032    PILATAXI CHAFLA JUAN MANUEL                                 CUE00134031635002720          1000000000001424CONSUMO CELULAR CLARO                                       001215038708182000000000001272000000000000000000000000000152                                                                                                                                       REC                               00038000000000000152001000000000000000000000000001272000000000000000000000000001272
BZDET000025000000004133262541R1201257134    BISTIN MICHUY ROSAURA                                       CUE00134042001092899          1000000000001564CONSUMO CELULAR CLARO                                       001215044228904000000000001398000000000000000000000000000166                                                                                                                                       REC                               00038000000000000166001000000000000000000000000001398000000000000000000000000001398
BZDET000026000000004133265467R0301380234    SALAZAR VAZQUEZ FLOR ISABEL                                 CUE00134046001032881          1000000000028384CONSUMO CELULAR CLARO                                       001215042041639000000000025343000000000000000000000000000000                                                                                                                                       REC                               00038000000000003041001000000000000000000000000000000000000000000000000000000000000
BZDET000027000000004133310597R0912801909    VILLAFUERTE ALDAZ JESSICA MARIA                             CUE00134040002293108          1000000000001790CONSUMO CELULAR CLARO                                       001215046434593000000000001599000000000000000000000000000191                                                                                                                                       REC                               00038000000000000191001000000000000000000000000001599000000000000000000000000001599
BZDET000028000000004133318909R1205569831    HIDALGO GUILLEN VICENTE ALBERTO                             CUE00134040971031786          1000000000075795CONSUMO CELULAR CLARO                                       001214012210058000000000067675000000000000000000000000000000                                                                                                                                       REC                               00038000000000008120001000000000000000000000000000000000000000000000000000000000000
BZDET000029000000004133510338R1305759571    GANCHOZO FIGUEROA NANCY PATRICIA                            CUE00134030055506627          1000000000001828CONSUMO CELULAR CLARO                                       001215043219921000000000001633000000000000000000000000000000                                                                                                                                       REC                               00038000000000000195001000000000000000000000000000000000000000000000000000000000000
BZDET000030000000004133641016R0916408602    SALTOS ORDOÑEZ ARACELY DEL ROSARIO                          CUE00134030865007413          1000000000004735CONSUMO CELULAR CLARO                                       001214010720483000000000004228000000000000000000000000000000                                                                                                                                       REC                               00038000000000000507001000000000000000000000000000000000000000000000000000000000000
BZDET000031000000004133724670R1200932448    BAJAÑA BAJAÑA CARLOS SERAFIN                                CUE00134030945002466          1000000000001000CONSUMO CELULAR CLARO                                       001215042074248000000000000893000000000000000000000000000000                                                                                                                                       REC                               00038000000000000107001000000000000000000000000000000000000000000000000000000000000
BZDET000032000000004133861173R1702461284    JARAMILLO MONTEROS GUSTAVO HONORIO                          CUE00134041001217617          1000000000003860CONSUMO CELULAR CLARO                                       001215034314871000000000003448000000000000000000000000000412                                                                                                                                       REC                               00038000000000000412001000000000000000000000000003448000000000000000000000000003448
BZDET000033000000004134127396R1200952156    BECILLA JUSTILLO ANGELICA CONSUELO                          CUE00134040021146475          1000000000001365CONSUMO CELULAR CLARO                                       001214014943933000000000001219000000000000000000000000000000                                                                                                                                       REC                               00038000000000000146001000000000000000000000000000000000000000000000000000000000000
BZDET000034000000004134140201R1308719259    ROSALES PLUA JOSELO DAVID                                   CUE00134047001061657          1000000000007200CONSUMO CELULAR CLARO                                       001214015198864000000000006429000000000000000000000000000000                                                                                                                                       REC                               00038000000000000771001000000000000000000000000000000000000000000000000000000000000
BZDET000035000000004134283032R0926818444    MORA CRIOLLO LEONIDAS ALFREDO                               CUE00134040941093334          1000000000088272CONSUMO CELULAR CLARO                                       001214013337175000000000078815000000000000000000000000000000                                                                                                                                       REC                               00038000000000009457001000000000000000000000000000000000000000000000000000000000000
BZDET000036000000004134291516R0916352818    CRUZ OLEAS ANDY RAUL                                        CUE00134040921069724          1000000000001732CONSUMO CELULAR CLARO                                       001215036562919000000000001548000000000000000000000000000184                                                                                                                                       REC                               00038000000000000184001000000000000000000000000001548000000000000000000000000001548
BZDET000037000000004134297827R1307429447    CHOEZ FIGUEROA MARIO WILBER                                 CUE00134047001041375          1000000000001620CONSUMO CELULAR CLARO                                       001215038798186000000000001447000000000000000000000000000000                                                                                                                                       REC                               00038000000000000173001000000000000000000000000000000000000000000000000000000000000
BZDET000038000000004134300068R0905352027    MACIAS GARCIA GEORGINA ADALBERTA                            CUE00134030855004347          1000000000002550CONSUMO CELULAR CLARO                                       001215023696552000000000002278000000000000000000000000000272                                                                                                                                       REC                               00038000000000000272001000000000000000000000000002278000000000000000000000000002278
BZDET000039000000004134356962R0503712374    CASTILLO NAVAS RIGOBERTO ALFREDO                            CUE00134042001175209          1000000000002268CONSUMO CELULAR CLARO                                       001215025793544000000000002026000000000000000000000000000000                                                                                                                                       REC                               00038000000000000242001000000000000000000000000000000000000000000000000000000000000
BZDET000040000000004134357821R0802835652    NAPA QUIÑONEZ MONICA DEISY                                  CUE00134041301089578          1000000000057688CONSUMO CELULAR CLARO                                       001215025816693000000000051508000000000000000000000000000000                                                                                                                                       REC                               00038000000000006180001000000000000000000000000000000000000000000000000000000000000
BZDET000041000000004134462816R0907809388    SILVA CEDEÑO NARCISA DE LOS REYES                           CUE00134040002469386          1000000000003020CONSUMO CELULAR CLARO                                       001215031080174000000000002698000000000000000000000000000322                                                                                                                                       REC                               00038000000000000322001000000000000000000000000002698000000000000000000000000002698
BZDET000042000000004135996759R0300687159    NAVAS GARATE ROMULO ANTONIO                                 CUE00134036005006386          1000000000004820CONSUMO CELULAR CLARO                                       001215030005105000000000004306000000000000000000000000000514                                                                                                                                       REC                               00038000000000000514001000000000000000000000000004306000000000000000000000000004306
BZDET000043000000004136834784R0920287125    CONSTANTE ORTEGA JOSE NORBERTO                              CUE00134037005033109          1000000000016034CONSUMO CELULAR CLARO                                       001214014403723000000000014317000000000000000000000000000000                                                                                                                                       REC                               00038000000000001717001000000000000000000000000000000000000000000000000000000000000
BZDET000044000000004136973302R0921365490    LOPEZ GARCES JESSICA TATIANA                                CUE00134040851110405          1000000000000334CONSUMO CELULAR CLARO                                       001215046576450000000000000299000000000000000000000000000035                                                                                                                                       REC                               00038000000000000035001000000000000000000000000000299000000000000000000000000000299
BZDET000045000000004137228702R0920215670    ESPINOZA RODRIGUEZ ALBINA ROSALIA                           CUE00134030915014103          1000000000004924CONSUMO CELULAR CLARO                                       001215044395336000000000004398000000000000000000000000000526                                                                                                                                       REC                               00038000000000000526001000000000000000000000000004398000000000000000000000000004398
BZDET000046000000004137436929R1203316532    RUIZ AYALA HOLGER GUILBERTO                                 CUE00134032005010301          1000000000004476CONSUMO CELULAR CLARO                                       001215034371789000000000003998000000000000000000000000000478                                                                                                                                       REC                               00038000000000000478001000000000000000000000000003998000000000000000000000000003998
BZDET000047000000004137447409R0907600340    GRANJA VACA TONY ERNESTO                                    CUE00134030855027971          1000000000004824CONSUMO CELULAR CLARO                                       001215042189220000000000004308000000000000000000000000000516                                                                                                                                       REC                               00038000000000000516001000000000000000000000000004308000000000000000000000000004308
BZDET000048000000004137462464R0906932819    COELLO ANGULO MIRIAN EDITH                                  CUE00134040001043597          1000000000002537CONSUMO CELULAR CLARO                                       001215046531762000000000002266000000000000000000000000000000                                                                                                                                       REC                               00038000000000000271001000000000000000000000000000000000000000000000000000000000000
BZDET000049000000004137683931R1204629032    LOPEZ LITUMA JULIO RENE                                     CUE00134042001051315          1000000000002809CONSUMO CELULAR CLARO                                       001214015470961000000000002509000000000000000000000000000000                                                                                                                                       REC                               00038000000000000300001000000000000000000000000000000000000000000000000000000000000
BZDET000050000000004137745637R0922574058    CRUZ CRUZ RICHAR WILMER                                     CUE00134040021386791          1000000000003804CONSUMO CELULAR CLARO                                       001215039903210000000000003398000000000000000000000000000406                                                                                                                                       REC                               00038000000000000406001000000000000000000000000003398000000000000000000000000003398
BZDET000051000000004138099579R1203719925    RIVERA ROSADO LUISA CECIBEL                                 CUE00134042001041375          1000000000001006CONSUMO CELULAR CLARO                                       001215046481097000000000000899000000000000000000000000000107                                                                                                                                       REC                               00038000000000000107001000000000000000000000000000899000000000000000000000000000899
BZDET000052000000004138178533R0910376037    MORA PACHAY VICENTE MARTIN                                  CUE00134040001316305          1000000000011108CONSUMO CELULAR CLARO                                       001215043189490000000000009918000000000000000000000000000000                                                                                                                                       REC                               00038000000000001190001000000000000000000000000000000000000000000000000000000000000
BZDET000053000000004138251178R1711134898    HIDALGO JIJON DENISE                                        CUE00134030005118720          1000000000050443CONSUMO CELULAR CLARO                                       001214010130708000000000045039000000000000000000000000000000                                                                                                                                       REC                               00038000000000005404001000000000000000000000000000000000000000000000000000000000000
BZDET000054000000004138308814R0910735679    ARELLANO SILVA CARLOS WILFRED                               CUE00134047001028531          1000000000033864CONSUMO CELULAR CLARO                                       001215043122053000000000030236000000000000000000000000000000                                                                                                                                       REC                               00038000000000003628001000000000000000000000000000000000000000000000000000000000000
BZDET000055000000004138542154R0910735679    ARELLANO SILVA CARLOS WILFRED                               CUE00134047001028531          1000000000006940CONSUMO CELULAR CLARO                                       001215043122055000000000006198000000000000000000000000000742                                                                                                                                       REC                               00038000000000000742001000000000000000000000000006198000000000000000000000000006198
BZDET000056000000004138549592R0909164139    JIMENEZ VALAREZO CARLOS LUIS                                CUE00134040971012940          1000000000082649CONSUMO CELULAR CLARO                                       001215035465965000000000073794000000000000000000000000000000                                                                                                                                       REC                               00038000000000008855001000000000000000000000000000000000000000000000000000000000000
BZDET000057000000004143198514R0704047083    ESPINOZA ESPINOZA ANDREA VANESSA                            CUE00134033005014050          1000000000006268CONSUMO CELULAR CLARO                                       001214012756199000000000005598000000000000000000000000000670                                                                                                                                       REC                               00038000000000000670001000000000000000000000000005598000000000000000000000000005598
BZDET000058000000004144634130R0921381703    TOBAR ROSERO CHRISTIAN DANIEL                               CUE00134040001832145          1000000000002402CONSUMO CELULAR CLARO                                       001215045427887000000000002145000000000000000000000000000000                                                                                                                                       REC                               00038000000000000257001000000000000000000000000000000000000000000000000000000000000
BZDET000059000000004144685234R0914022157    MORAN LOPEZ MILTON MAURICIO                                 CUE00134040001530199          1000000000001847CONSUMO CELULAR CLARO                                       001215044359416000000000001650000000000000000000000000000000                                                                                                                                       REC                               00038000000000000197001000000000000000000000000000000000000000000000000000000000000
BZDET000060000000004144737473R0901365296    ORTEGA PEDRO JULIO                                          CUE00134040001154341          1000000000005820CONSUMO CELULAR CLARO                                       001214013610192000000000005198000000000000000000000000000622                                                                                                                                       REC                               00038000000000000622001000000000000000000000000005198000000000000000000000000005198
BZDET000061000000004145070868R0922614169    ACOSTA SAN LUCAS MANUEL ALEJANDRO                           CUE00134040002442412          1000000000003933CONSUMO CELULAR CLARO                                       001215037737833000000000003512000000000000000000000000000000                                                                                                                                       REC                               00038000000000000421001000000000000000000000000000000000000000000000000000000000000
BZDET000062000000004145075000R0907868905    ACHI DAVILA ASTRID ILEANA                                   CUE00134030865003242          1000000000000477CONSUMO CELULAR CLARO                                       001215046502093000000000000426000000000000000000000000000051                                                                                                                                       REC                               00038000000000000051001000000000000000000000000000426000000000000000000000000000426
BZDET000063000000004145129185R0917725269    MARIN ORTIZ MARIA DE LOURDES                                CUE00134030955016020          1000000000007227CONSUMO CELULAR CLARO                                       001214011035666000000000006453000000000000000000000000000000                                                                                                                                       REC                               00038000000000000774001000000000000000000000000000000000000000000000000000000000000
BZDET000064000000004145129249R0903336592    MASWRAY PETER JAY                                           CUE00134045021026737          1000000000001900CONSUMO CELULAR CLARO                                       001215041009369000000000001697000000000000000000000000000000                                                                                                                                       REC                               00038000000000000203001000000000000000000000000000000000000000000000000000000000000
BZDET000065000000004145189527R0920867918    CANTOS MENDEZ FANNY DEL CONSUELO                            CUE00134040941081988          1000000000007044CONSUMO CELULAR CLARO                                       001215046452587000000000006290000000000000000000000000000000                                                                                                                                       REC                               00038000000000000754001000000000000000000000000000000000000000000000000000000000000
BZDET000066000000004145371679R0921973525    JORDAN FIGUEROA FERNANDO JAVIER                             CUE00134040002394220          1000000000003585CONSUMO CELULAR CLARO                                       001215039913446000000000003201000000000000000000000000000000                                                                                                                                       REC                               00038000000000000384001000000000000000000000000000000000000000000000000000000000000
BZDET000067000000004145429059R0801823733    PACHECO MENDOZA EUGENIO SALVADOR                            CUE00134041301050660          1000000000033136CONSUMO CELULAR CLARO                                       001214014151695000000000029586000000000000000000000000000000                                                                                                                                       REC                               00038000000000003550001000000000000000000000000000000000000000000000000000000000000
BZDET000068000000004145561821R0928367283    VALENCIA GARCIA GALO MANUEL                                 CUE00134040881135447          1000000000004799CONSUMO CELULAR CLARO                                       001215046444023000000000004285000000000000000000000000000000                                                                                                                                       REC                               00038000000000000514001000000000000000000000000000000000000000000000000000000000000
BZDET000069000000004145583045R0904641412    BUSTAN MEJIA SILVIA CONSUELO                                CUE00134030005219128          1000000000002012CONSUMO CELULAR CLARO                                       001215037654241000000000001798000000000000000000000000000214                                                                                                                                       REC                               00038000000000000214001000000000000000000000000001798000000000000000000000000001798
BZDET000070000000004145883331R0918193194    CABRERA ORRALA GRINDELL ALBERTO                             CUE00134040841173757          1000000000004967CONSUMO CELULAR CLARO                                       001215046552801000000000004435000000000000000000000000000000                                                                                                                                       REC                               00038000000000000532001000000000000000000000000000000000000000000000000000000000000
BZDET000071000000004145981119R0906815402    SALAZAR SALAZAR MARITZA ELIZABETH                           CUE00134040971047206          1000000000000496CONSUMO CELULAR CLARO                                       001214015470833000000000000443000000000000000000000000000000                                                                                                                                       REC                               00038000000000000053001000000000000000000000000000000000000000000000000000000000000
BZDET000072000000004146016740R1003529862    ESPINOZA OGONAGA JHERMAN ALEXI                              CUE00134045021065531          1000000000001935CONSUMO CELULAR CLARO                                       001214015201541000000000001728000000000000000000000000000000                                                                                                                                       REC                               00038000000000000207001000000000000000000000000000000000000000000000000000000000000
BZDET000073000000004146211065R1712367265    CEVALLOS MEJIA MARIA JHADIRA                                CUE00134045091010249          1000000000002222CONSUMO CELULAR CLARO                                       001215045381869000000000001984000000000000000000000000000000                                                                                                                                       REC                               00038000000000000238001000000000000000000000000000000000000000000000000000000000000
BZDET000074000000004146214235R0300962818    QUISHPILEMA QUISHPE AIDA MARIA                              CUE00134046001052377          1000000000002432CONSUMO CELULAR CLARO                                       001215037696589000000000002172000000000000000000000000000000                                                                                                                                       REC                               00038000000000000260001000000000000000000000000000000000000000000000000000000000000
BZDET000075000000004146455598R0927247890    ESCALANTE LINDAO ANA BEATRIZ                                CUE00134040011178145          1000000000005224CONSUMO CELULAR CLARO                                       001215046538011000000000004665000000000000000000000000000000                                                                                                                                       REC                               00038000000000000559001000000000000000000000000000000000000000000000000000000000000
BZDET000076000000004146506140R0909034324    VERA FLORES PILAR ELIZABETH                                 CUE00134040061105009          1000000000003868CONSUMO CELULAR CLARO                                       001215045408588000000000003454000000000000000000000000000414                                                                                                                                       REC                               00038000000000000414001000000000000000000000000003454000000000000000000000000003454
BZDET000077000000004146574928R0925014060    GARCIA TENEMPAGUAY JOSE ANGEL                               CUE00134040002288850          1000000000007111CONSUMO CELULAR CLARO                                       001215046456021000000000006350000000000000000000000000000000                                                                                                                                       REC                               00038000000000000761001000000000000000000000000000000000000000000000000000000000000
BZDET000078000000004146661875R1203853781    HERNANDEZ MENDEZ MARIA FERNANDA                             CUE00134042051081813          1000000000000280CONSUMO CELULAR CLARO                                       001215046556064000000000000251000000000000000000000000000000                                                                                                                                       REC                               00038000000000000029001000000000000000000000000000000000000000000000000000000000000
BZDET000079000000004146836394R0927070565    BAQUE ALVARADO OLBER EDUARDO                                CUE00134040931076590          1000000000002359CONSUMO CELULAR CLARO                                       001215022751548000000000002107000000000000000000000000000000                                                                                                                                       REC                               00038000000000000252001000000000000000000000000000000000000000000000000000000000000
BZDET000080000000004147038480R0930545926    MOREIRA SALTOS BEATRIZ ELIZABETH                            CUE00134040911115844          1000000000002432CONSUMO CELULAR CLARO                                       001215041063151000000000002172000000000000000000000000000000                                                                                                                                       REC                               00038000000000000260001000000000000000000000000000000000000000000000000000000000000
BZDET000081000000004147054934R0925800005    DELGADO ERAZO JOSUE ENRIQUE                                 CUE00134040941118490          1000000000013059CONSUMO CELULAR CLARO                                       001215045375686000000000011660000000000000000000000000000000                                                                                                                                       REC                               00038000000000001399001000000000000000000000000000000000000000000000000000000000000
BZDET000082000000004147193074R0917063224    BENAVIDES MORAN ELSA MARGOT                                 CUE00134040921042618          1000000000001500CONSUMO CELULAR CLARO                                       001215044298460000000000001340000000000000000000000000000000                                                                                                                                       REC                               00038000000000000160001000000000000000000000000000000000000000000000000000000000000
BZDET000083000000004149919865R0900258799    LEON PALACIOS CARLOS ALBERTO                                CUE00134041011015195          1000000000003448CONSUMO CELULAR CLARO                                       001214015457155000000000003079000000000000000000000000000369                                                                                                                                       REC                               00038000000000000369001000000000000000000000000003079000000000000000000000000003079
BZDET000084000000004151653998R0915592794    REQUENA FRANCO MONICA DEL ROCIO                             CUE00134040961021018          1000000000000206CONSUMO CELULAR CLARO                                       001215046543016000000000000184000000000000000000000000000000                                                                                                                                       REC                               00038000000000000022001000000000000000000000000000000000000000000000000000000000000
BZDET000085000000004151810645R0801990433    ROSERO CASTILLO NELSON EDUARDO                              CUE00134040841014715          1000000000001797CONSUMO CELULAR CLARO                                       001215036656160000000000001605000000000000000000000000000000                                                                                                                                       REC                               00038000000000000192001000000000000000000000000000000000000000000000000000000000000
BZDET000086000000004153268584R0800117426    CAMACHO OLAYA CORNELIA ALBARINA                             CUE00134041301039540          1000000000006189CONSUMO CELULAR CLARO                                       001214015467248000000000005526000000000000000000000000000000                                                                                                                                       REC                               00038000000000000663001000000000000000000000000000000000000000000000000000000000000
BZDET000087000000004156553657R0917852782    MARTINETTI GUERRERO RAUL ANTONIO                            CUE00134030025048489          1000000000000232CONSUMO CELULAR CLARO                                       001215046480969000000000000208000000000000000000000000000000                                                                                                                                       REC                               00038000000000000024001000000000000000000000000000000000000000000000000000000000000
BZDET000088000000004157951605R0917524589    FERNANDEZ QUIMI WASHINGTON JAVIER                           CUE00134040021421091          1000000000001713CONSUMO CELULAR CLARO                                       001215038793639000000000001530000000000000000000000000000000                                                                                                                                       REC                               00038000000000000183001000000000000000000000000000000000000000000000000000000000000
BZDET000089000000004158418312R0912211356    SUAREZ CARPIO MARIO ENRIQUE                                 CUE00134040841051729          1000000000007488CONSUMO CELULAR CLARO                                       001214015461512000000000006686000000000000000000000000000000                                                                                                                                       REC                               00038000000000000802001000000000000000000000000000000000000000000000000000000000000
BZDET000090000000004159402082R0909698573    LEON VERDESOTO ANDRES MANUEL                                CUE00134030025074688          1000000000208879CONSUMO CELULAR CLARO                                       001214011614746000000000186500000000000000000000000000000000                                                                                                                                       REC                               00038000000000022379001000000000000000000000000000000000000000000000000000000000000
BZDET000091000000004159654114R0910813062    MERA MORA MARIA ALEXANDRA                                   CUE00134040002055512          1000000000012549CONSUMO CELULAR CLARO                                       001215042147095000000000011205000000000000000000000000000000                                                                                                                                       REC                               00038000000000001344001000000000000000000000000000000000000000000000000000000000000
BZDET000092000000004160003240R0917627788    BRAVO DUARTE FRANKLIN ARMANDO                               CUE00134030885005949          1000000000001678CONSUMO CELULAR CLARO                                       001215046416930000000000001499000000000000000000000000000179                                                                                                                                       REC                               00038000000000000179001000000000000000000000000001499000000000000000000000000001499
BZDET000093000000004160235772R0802727545    TORRES BONE PAOLA DE LOS ANGELES                            CUE00134041301040938          1000000000002066CONSUMO CELULAR CLARO                                       001215046564223000000000001845000000000000000000000000000221                                                                                                                                       REC                               00038000000000000221001000000000000000000000000001845000000000000000000000000001845
BZDET000094000000004160673831R0921498051    TORRES FIGUEROA LILIANA ISABEL                              CUE00134040931026364          1000000000002014CONSUMO CELULAR CLARO                                       001215046559330000000000001799000000000000000000000000000215                                                                                                                                       REC                               00038000000000000215001000000000000000000000000001799000000000000000000000000001799
BZDET000095000000004160737692R0802028571    MOTATO ORTEGA ROSARIO VERONICA                              CUE00134041301059734          1000000000000570CONSUMO CELULAR CLARO                                       001215045342359000000000000509000000000000000000000000000000                                                                                                                                       REC                               00038000000000000061001000000000000000000000000000000000000000000000000000000000000
BZDET000096000000004161072627R1205022567    CAMPOZANO CHAGUAY LILIA ZORAIDA                             CUE00134040002673388          1000000000010723CONSUMO CELULAR CLARO                                       001214015205614000000000009575000000000000000000000000000000                                                                                                                                       REC                               00038000000000001148001000000000000000000000000000000000000000000000000000000000000
BZDET000097000000004161281452R0928837327    BAQUE PINTO JOFFRE JONATHAN                                 CUE00134040871132461          1000000000013822CONSUMO CELULAR CLARO                                       001214014696848000000000012342000000000000000000000000000000                                                                                                                                       REC                               00038000000000001480001000000000000000000000000000000000000000000000000000000000000
BZDET000098000000004162315352R0926979683    ZAMBRANO QUISPE ANGEL EDUARDO                               CUE00134040003062059          1000000000005860CONSUMO CELULAR CLARO                                       001214010118177000000000005234000000000000000000000000000626                                                                                                                                       REC                               00038000000000000626001000000000000000000000000005234000000000000000000000000005234
BZDET000099000000004163181304R0151615879    CACERES RICARDO ARIEL                                       CUE00134034075013479          1000000000007275CONSUMO CELULAR CLARO                                       001214014163843000000000006497000000000000000000000000000778                                                                                                                                       REC                               00038000000000000778001000000000000000000000000006497000000000000000000000000006497
BZDET000100000000004165352055R0906139530    ORRALA REYES WALTER RODOLFO                                 CUE00134032055005423          1000000000007496CONSUMO CELULAR CLARO                                       001214014416097000000000006694000000000000000000000000000802                                                                                                                                       REC                               00038000000000000802001000000000000000000000000006694000000000000000000000000006694
BZDET000101000000004166559400R0902265891    VILLAO YAGUAL JUAN JOSE ALBERTO                             CUE00134040941336996          1000000000002300CONSUMO CELULAR CLARO                                       001215046589548000000000002054000000000000000000000000000246                                                                                                                                       REC                               00038000000000000246001000000000000000000000000002054000000000000000000000000002054
BZDET000102000000004166866488R0912925773    NEGRETE VALVERDE ELENA EMPERATRIZ                           CUE00134030875028099          1000000000006044CONSUMO CELULAR CLARO                                       001214011916174000000000005398000000000000000000000000000646                                                                                                                                       REC                               00038000000000000646001000000000000000000000000005398000000000000000000000000005398
BZDET000103000000004167441860R0920694809    MERO VERA ERIKA PATRICIA                                    CUE00134040951067392          1000000000017124CONSUMO CELULAR CLARO                                       001214014930133000000000015290000000000000000000000000000000                                                                                                                                       REC                               00038000000000001834001000000000000000000000000000000000000000000000000000000000000
BZDET000104000000004167453097R1206060863    CHINCHAI CASTRO LUIS EDUARDO                                CUE00134040021668773          1000000000059182CONSUMO CELULAR CLARO                                       001214011618963000000000052842000000000000000000000000000000                                                                                                                                       REC                               00038000000000006340001000000000000000000000000000000000000000000000000000000000000
BZDET000105000000004167794358R1206012872    PARREÑO LEON MARVIN ISAAC                                   CUE00134040851484045          1000000000003324CONSUMO CELULAR CLARO                                       001214015457439000000000002968000000000000000000000000000356                                                                                                                                       REC                               00038000000000000356001000000000000000000000000002968000000000000000000000000002968
BZDET000106000000004167938915R0903587731    RUIZ CASTRO GREGORIO ALEJANDRO                              CUE00134040021132163          1000000000009232CONSUMO CELULAR CLARO                                       001214015201249000000000008244000000000000000000000000000988                                                                                                                                       REC                               00038000000000000988001000000000000000000000000008244000000000000000000000000008244
BZDET000107000000004167988007R0950578286    CHILA MONTIEL ANDRES STEVEN                                 CUE00134041721042770          1000000000002102CONSUMO CELULAR CLARO                                       001215042121150000000000001877000000000000000000000000000000                                                                                                                                       REC                               00038000000000000225001000000000000000000000000000000000000000000000000000000000000
BZDET000108000000004168180219R0942073669    LOOR VALVERDE JORGE IGNACIO                                 CUE00134040003318971          1000000000018855CONSUMO CELULAR CLARO                                       001214011038765000000000016835000000000000000000000000000000                                                                                                                                       REC                               00038000000000002020001000000000000000000000000000000000000000000000000000000000000
BZDET000109000000006047313323R0908731474    REYES BECERRA JOSE VICENTE                                  CUE00134040911048234          1000000000002101CONSUMO CELULAR CLARO                                       001232000284827000000000001876000000000000000000000000000000                                                                                                                                       REC                               00038000000000000225001000000000000000000000000000000000000000000000000000000000000
BZDET000110000000006054541506R0703374124    BURGOS HIGUERA JUAN CARLOS                                  CUE00134040031209451          1000000000005299CONSUMO CELULAR CLARO                                       001232000077101000000000004732000000000000000000000000000000                                                                                                                                       REC                               00038000000000000567001000000000000000000000000000000000000000000000000000000000000
BZDET000111000000006055652028R0920119401    ANTEPARA ZAMORA JOSE LUIS                                   CUE00134040002329542          1000000000000493CONSUMO CELULAR CLARO                                       001232000276964000000000000441000000000000000000000000000000                                                                                                                                       REC                               00038000000000000052001000000000000000000000000000000000000000000000000000000000000
BZDET000112000000006067032195R0916340615    TUMBACO OSTAIZA SARA ISABEL                                 CUE00134040931164632          1000000000001736CONSUMO CELULAR CLARO                                       001232000266061000000000001551000000000000000000000000000000                                                                                                                                       REC                               00038000000000000185001000000000000000000000000000000000000000000000000000000000000
BZDET000113000000006067400059R0919366245    QUIMI LEYTON CESAR EDWIN                                    CUE00134040021523939          1000000000003184CONSUMO CELULAR CLARO                                       001232000294171000000000002843000000000000000000000000000000                                                                                                                                       REC                               00038000000000000341001000000000000000000000000000000000000000000000000000000000000
BZDET000114000000006067800941R0941092470    VEGA ORBE KLEBER GABRIEL                                    CUE00134040061305365          1000000000002448CONSUMO CELULAR CLARO                                       001232000188597000000000002186000000000000000000000000000000                                                                                                                                       REC                               00038000000000000262001000000000000000000000000000000000000000000000000000000000000
BZDET000115000000006067946114R0922527031    BRITO MALDONADO MARTHA RUTH                                 CUE00134040051784387          1000000000004045CONSUMO CELULAR CLARO                                       001232000284453000000000003612000000000000000000000000000000                                                                                                                                       REC                               00038000000000000433001000000000000000000000000000000000000000000000000000000000000
BZDET000116000000006068071782R0930164553    TAPIA APARICIO BILLY FERNANDO                               CUE00134041741114988          1000000000004265CONSUMO CELULAR CLARO                                       001232000240043000000000003809000000000000000000000000000000                                                                                                                                       REC                               00038000000000000456001000000000000000000000000000000000000000000000000000000000000
BZDET000117000000006068110698R0922541966    TOMALA TOMALA SANDRO ALONZO                                 CUE00134047001067973          1000000000003150CONSUMO CELULAR CLARO                                       001232000258352000000000002813000000000000000000000000000000                                                                                                                                       REC                               00038000000000000337001000000000000000000000000000000000000000000000000000000000000
BZDET000118000000006068552024R0926133596    CABALLERO VERA ERIKA PAOLA                                  CUE00134040871092073          1000000000002500CONSUMO CELULAR CLARO                                       001232000293607000000000002233000000000000000000000000000000                                                                                                                                       REC                               00038000000000000267001000000000000000000000000000000000000000000000000000000000000
BZDET000119000000006068705039R0914072749    LINDAO ALEJANDRO TOMAS EFRAIN                               CUE00134041751017168          1000000000000947CONSUMO CELULAR CLARO                                       001232000294281000000000000846000000000000000000000000000000                                                                                                                                       REC                               00038000000000000101001000000000000000000000000000000000000000000000000000000000000
BZDET000120000000006068740846R0916580632    MARTINEZ VARGAS MANUEL DE JESUS                             CUE00134040002314524          1000000000002500CONSUMO CELULAR CLARO                                       001232000294135000000000002233000000000000000000000000000000                                                                                                                                       REC                               00038000000000000267001000000000000000000000000000000000000000000000000000000000000
BZDET000121000000006068795628R0927308734    TORRES CARDENAS ANNABELL DEL ROCIO                          CUE00134040011221469          1000000000010725CONSUMO CELULAR CLARO                                       001232000112108000000000009576000000000000000000000000000000                                                                                                                                       REC                               00038000000000001149001000000000000000000000000000000000000000000000000000000000000
BZDET000122000000006068818971R1715543540    COELLO PASQUEL FRANCISCO JAVIER                             CUE00134040003339953          1000000000004998CONSUMO CELULAR CLARO                                       001232000146392000000000004463000000000000000000000000000000                                                                                                                                       REC                               00038000000000000535001000000000000000000000000000000000000000000000000000000000000
BZDET000123000000006068862596R1203947872    JOSE ANTONIO REYES JIMENEZ                                  CUE00134041651040885          1000000000003309CONSUMO CELULAR CLARO                                       001232000143000000000000002955000000000000000000000000000000                                                                                                                                       REC                               00038000000000000354001000000000000000000000000000000000000000000000000000000000000
BZDET000124000000008511835998R1202377618    FARRO FERNANDEZ LUIS ALBERTO                                CUE00134040911199548          1000000000002740CONSUMO CELULAR CLARO                                       001215044259933000000000002448000000000000000000000000000292                                                                                                                                       REC                               00038000000000000292001000000000000000000000000002448000000000000000000000000002448
BZDET000125000000008511994651R0916377187    SILVA BOLA?OS DANIEL RICARDO                                CUE00134030025069662          1000000000004024CONSUMO CELULAR CLARO                                       001215038813074000000000003594000000000000000000000000000430                                                                                                                                       REC                               00038000000000000430001000000000000535000000000003594000000000000000000000000003594
BZDET000126000000008512115257R0921793022    ANGULO CHILA ARTEMIO MELANIO                                CUE00134040971071054          1000000000002884CONSUMO CELULAR CLARO                                       001215036509931000000000002576000000000000000000000000000000                                                                                                                                       REC                               00038000000000000308001000000000000000000000000000000000000000000000000000000000000
BZDET000127000000008512826213R0953876042    SUAREZ MATUTE JONATHAN STEVEN                               CUE00134040003398633          1000000000098397CONSUMO CELULAR CLARO                                       001214013039068000000000087855000000000000000000000000000000                                                                                                                                       REC                               00038000000000010542001000000000000000000000000000000000000000000000000000000000000
BZDET000128000000008512932860R0918615253    CEDEÑO DELGADO ANGEL ALFREDO                                CUE00134031215012970          1000000000003956CONSUMO CELULAR CLARO                                       001214012504295000000000003533000000000000000000000000000000                                                                                                                                       REC                               00038000000000000423001000000000000000000000000000000000000000000000000000000000000
BZDET000129000000008512974738R1719535864    CARRERA HERNANDEZ DAVID ENRIQUE                             CUE00134035055016374          1000000000001207CONSUMO CELULAR CLARO                                       001215046487925000000000001078000000000000000000000000000000                                                                                                                                       REC                               00038000000000000129001000000000000000000000000000000000000000000000000000000000000
BZDET000130000000008512979171R100743137     RODRIGUEZ SIEM FREDDY RAFAEL                                CUE00134040061309671          1000000000004901CONSUMO CELULAR CLARO                                       001214015207984000000000004376000000000000000000000000000000                                                                                                                                       REC                               00038000000000000525001000000000000000000000000000000000000000000000000000000000000
BZDET000131000000008513027500R1311302150    FERNANDEZ LOOR GILMA NATACHA                                CUE00134041121141396          1000000000132482CONSUMO CELULAR CLARO                                       001215039904764000000000118288000000000000000000000000000000                                                                                                                                       REC                               00038000000000014194001000000000000000000000000000000000000000000000000000000000000
BZDET000132000000008513038105R1312543273    VELIZ ROSADO WILLIAM FRANCISCO                              CUE00134041001271457          1000000000036868CONSUMO CELULAR CLARO                                       001215042055735000000000032918000000000000000000000000000000                                                                                                                                       REC                               00038000000000003950001000000000000000000000000000000000000000000000000000000000000
BZDET000133000000008513116111R0923926596    MENDIETA ZAMBRANO DANIEL DAVID                              CUE00134040001574437          1000000000003804CONSUMO CELULAR CLARO                                       001215041035840000000000003398000000000000000000000000000406                                                                                                                                       REC                               00038000000000000406001000000000000000000000000003398000000000000000000000000003398
BZDET000134000000008515106514R0942097528    GAVILANES ONCE MERCEDES ALEJANDRA                           CUE00134040003416493          1000000000238891CONSUMO CELULAR CLARO                                       001215032629114000000000213296000000000000000000000000000000                                                                                                                                       REC                               00038000000000025595001000000000000000000000000000000000000000000000000000000000000
BZDET000135000000008515331675R0102419751    CORONEL DURAN PAUL ELI                                      CUE00134044071063657          1000000000015108CONSUMO CELULAR CLARO                                       001214015467556000000000013490000000000000000000000000000000                                                                                                                                       REC                               00038000000000001618001000000000000000000000000000000000000000000000000000000000000
BZDET000136000000008515487823R0919369272    CAIZA MACHACILLA JONATHAN PATRICIO                          CUE00134040002606398          1000000000016832CONSUMO CELULAR CLARO                                       001215036634022000000000015029000000000000000000000000000000                                                                                                                                       REC                               00038000000000001803001000000000000000000000000000000000000000000000000000000000000
BZDET000137000000008515523539R0913222881    MURILLO SUAREZ ANDREA CELESTE                               CUE00134040881081055          1000000000003914CONSUMO CELULAR CLARO                                       001215034332565000000000003496000000000000000000000000000418                                                                                                                                       REC                               00038000000000000418001000000000000000000000000003496000000000000000000000000003496
BZDET000138000000008515661090R0916040611    VARGAS MORENO VICENTE LUIS                                  CUE00134042031062243          1000000000108826CONSUMO CELULAR CLARO                                       001214011027259000000000097167000000000000000000000000000000                                                                                                                                       REC                               00038000000000011659001000000000000000000000000000000000000000000000000000000000000
BZDET000139000000008516062953R1400083497    BORJA VILLARREAL RAMON FRANCISCO                            CUE00134040031332415          1000000000002039CONSUMO CELULAR CLARO                                       001215026846715000000000001821000000000000000000000000000000                                                                                                                                       REC                               00038000000000000218001000000000000000000000000000000000000000000000000000000000000
BZDET000140000000008516199255R0914961347    SALAZAR CHIPRE MERVIN FULTON                                CUE00134040911130654          1000000000004024CONSUMO CELULAR CLARO                                       001215045320293000000000003594000000000000000000000000000430                                                                                                                                       REC                               00038000000000000430001000000000000000000000000003594000000000000000000000000003594
BZDET000141000000008516703461R0950309633    HIDALGO VERA ELVIS ENRIQUE                                  CUE00134030005277898          1000000000011931CONSUMO CELULAR CLARO                                       001215046589072000000000010653000000000000000000000000000000                                                                                                                                       REC                               00038000000000001278001000000000000000000000000000000000000000000000000000000000000
BZDET000142000000008516868633R1718921305001 HOLGUIN ANDRADES JHON JAIRO                                 CUE00134041001208641          1000000000002912CONSUMO CELULAR CLARO                                       001215044212687000000000002600000000000000000000000000000312                                                                                                                                       REC                               00038000000000000312001000000000000000000000000002600000000000000000000000000002600
BZDET000143000000008517166596R0951407543    LOPEZ VERA BYRON ANDRES                                     CUE00134040003627707          1000000000069802CONSUMO CELULAR CLARO                                       001215037705705000000000062324000000000000000000000000000000                                                                                                                                       REC                               00038000000000007478001000000000000000000000000000000000000000000000000000000000000
BZDET000144000000008517888912R1315111508    SANTANA CEDEÑO YANDRY JAVIER                                CUE00134041121152070          1000000000002982CONSUMO CELULAR CLARO                                       001215039887056000000000002663000000000000000000000000000000                                                                                                                                       REC                               00038000000000000319001000000000000000000000000000000000000000000000000000000000000
BZDET000145000000008517889380R0941430175    BAR PONGUILLO JENIFFER BRIGGITTE                            CUE00134040941275164          1000000000003132CONSUMO CELULAR CLARO                                       001215025859040000000000002798000000000000000000000000000334                                                                                                                                       REC                               00038000000000000334001000000000000000000000000002798000000000000000000000000002798
BZDET000146000000008517890036R1205409376    GANCHOZO GIRALDO SILVIA PATRICIA                            CUE00134042001167153          1000000000002070CONSUMO CELULAR CLARO                                       001215039859297000000000001849000000000000000000000000000000                                                                                                                                       REC                               00038000000000000221001000000000000000000000000000000000000000000000000000000000000
BZDET000147000000008518036238R0702532227    MORENO ORDOÑEZ ANDREA KATHERINE                             CUE00134043011009963          1000000000162886CONSUMO CELULAR CLARO                                       001215032157851000000000145434000000000000000000000000000000                                                                                                                                       REC                               00038000000000017452001000000000000000000000000000000000000000000000000000000000000
BZDET000148000000008518711685R2150232938    ACOSTA ORTIZ JEFREY ALFREDO                                 CUE00134040981557534          1000000000004381CONSUMO CELULAR CLARO                                       001215034355216000000000003912000000000000000000000000000000                                                                                                                                       REC                               00038000000000000469001000000000000000000000000000000000000000000000000000000000000
BZDET000149000000008518750573R1312511239    LOOR BRAVO JORGE ANDRES                                     CUE00134040851452175          1000000000052673CONSUMO CELULAR CLARO                                       001214014672306000000000047030000000000000000000000000000000                                                                                                                                       REC                               00038000000000005643001000000000000000000000000000000000000000000000000000000000000
BZDET000150000000008519018076R0917615247    LEON MONTALVAN MANUEL EDUARDO                               CUE00134031755002349          1000000000000932CONSUMO CELULAR CLARO                                       001215044347194000000000000833000000000000000000000000000000                                                                                                                                       REC                               00038000000000000099001000000000000000000000000000000000000000000000000000000000000
BZDET000151000000008519515037R0963393798    YAMIN GONZALEZ SAID DANIEL                                  CUE00134040951262774          1000000000060231CONSUMO CELULAR CLARO                                       001214014697259000000000053778000000000000000000000000000000                                                                                                                                       REC                               00038000000000006453001000000000000000000000000000000000000000000000000000000000000
BZDET000152000000008519576694R0915145668    RODRIGUEZ SANCHEZ ARMANDO ANIBAL                            CUE00134040941228412          1000000000001631CONSUMO CELULAR CLARO                                       001215046520586000000000001457000000000000000000000000000000                                                                                                                                       REC                               00038000000000000174001000000000000000000000000000000000000000000000000000000000000
BZDET000153000000008519582432R0952335727    GAVILANES SALAVARRIA STEEVEN JOAO                           CUE00134040911565466          1000000000042789CONSUMO CELULAR CLARO                                       001215035514043000000000038205000000000000000000000000000000                                                                                                                                       REC                               00038000000000004584001000000000000000000000000000000000000000000000000000000000000
BZDET000154000000008519597961R1710867100001 BASTIDAS MALDONADO LEONARDO RENATO                          CUE00134040841050799          1000000000000610CONSUMO CELULAR CLARO                                       001215046435246000000000000545000000000000000000000000000000                                                                                                                                       REC                               00038000000000000065001000000000000000000000000000000000000000000000000000000000000
BZDET000155000000008519605742R0602370801001 MONTES HARO FANNY JUDITH                                    CUE00134031825000181          1000000000002014CONSUMO CELULAR CLARO                                       001215033243494000000000001799000000000000000000000000000000                                                                                                                                       REC                               00038000000000000215001000000000000000000000000000000000000000000000000000000000000
BZDET000156000000008519606449R1206068445    SANTOS AGUIRRE CELSO DARIO                                  CUE00134046001107167          1000000000006272CONSUMO CELULAR CLARO                                       001214010447328000000000005601000000000000000000000000000000                                                                                                                                       REC                               00038000000000000671001000000000000000000000000000000000000000000000000000000000000
BZDET000157000000008519607536R0940083744    GOMEZ MANZO WASHINGTON LENIN                                CUE00134040941422370          1000000000004218CONSUMO CELULAR CLARO                                       001214013886776000000000003767000000000000000000000000000000                                                                                                                                       REC                               00038000000000000451001000000000000000000000000000000000000000000000000000000000000
BZDET000158000000008519619163R1724069859    TORRES AGUILAR ELMER NOLBERTO                               CUE00134041401114269          1000000000002100CONSUMO CELULAR CLARO                                       001215046452785000000000001876000000000000000000000000000000                                                                                                                                       REC                               00038000000000000224001000000000000000000000000000000000000000000000000000000000000
BZDET000159000000008519622806R0803065283    VALENCIA GUEVARA ANDRES ORLANDO                             CUE00134041301027952          1000000000021676CONSUMO CELULAR CLARO                                       001215042085258000000000019354000000000000000000000000000000                                                                                                                                       REC                               00038000000000002322001000000000000000000000000000000000000000000000000000000000000
BZDET000160000000008520105486R0922977269    ALVAREZ ALVARO CLIFFTON ISRAEL                              CUE00134040021433151          1000000000036812CONSUMO CELULAR CLARO                                       001215042131224000000000032868000000000000000000000000000000                                                                                                                                       REC                               00038000000000003944001000000000000000000000000000000000000000000000000000000000000
BZDET000161000000008520407295R0955090923    ARELLANO GUARANDA JOSSELIN ARELI                            CUE00134040003391859          1000000000003207CONSUMO CELULAR CLARO                                       001215039874770000000000002864000000000000000000000000000000                                                                                                                                       REC                               00038000000000000343001000000000000000000000000000000000000000000000000000000000000
BZDET000162000000008520671760R0931623656    MOREIRA AVILES GENESIS JACQUELINE                           CUE00134041821035101          1000000000004356CONSUMO CELULAR CLARO                                       001215043187052000000000003890000000000000000000000000000466                                                                                                                                       REC                               00038000000000000466001000000000000000000000000003890000000000000000000000000003890
BZDET000163000000008520677262R0913233201    NARANJO VERGARA LUIS ANGEL                                  CUE00134030935018099          1000000000001380CONSUMO CELULAR CLARO                                       001215046433383000000000001233000000000000000000000000000147                                                                                                                                       REC                               00038000000000000147001000000000000000000000000001233000000000000000000000000001233
BZDET000164000000008520691116R1310959786    TORRES MERCHAN FRANKLIN ELOY                                CUE00134040841176725          1000000000076297CONSUMO CELULAR CLARO                                       001214013341293000000000068123000000000000000000000000000000                                                                                                                                       REC                               00038000000000008174001000000000000000000000000000000000000000000000000000000000000
BZDET000165000000008520692308R0908029655    POTES MOLINA MANUEL JOSE                                    CUE00134040941293134          1000000000020435CONSUMO CELULAR CLARO                                       001215030087414000000000018246000000000000000000000000000000                                                                                                                                       REC                               00038000000000002189001000000000000000000000000000000000000000000000000000000000000
BZDET000166000000008520693779R0927469007    HERRERA CRUZ ANDRES LENNY                                   CUE00134040911570516          1000000000058419CONSUMO CELULAR CLARO                                       001215034358132000000000052160000000000000000000000000000000                                                                                                                                       REC                               00038000000000006259001000000000000000000000000000000000000000000000000000000000000
BZDET000167000000008520716876R0942133554    LAVAYEN ANDRADE JOHNNY ANTHONY                              CUE00134041741152670          1000000000069394CONSUMO CELULAR CLARO                                       001215038876640000000000061959000000000000000000000000000000                                                                                                                                       REC                               00038000000000007435001000000000000000000000000000000000000000000000000000000000000
BZDET000168000000008520717807R1900223338    FERNANDEZ CULCAY MARIA SUSANA                               CUE00134041401123395          1000000000021056CONSUMO CELULAR CLARO                                       001215045395393000000000018800000000000000000000000000000000                                                                                                                                       REC                               00038000000000002256001000000000000000000000000000000000000000000000000000000000000
BZDET000169000000008520768304R1721817953    UNAUCHO GUAPULEMA CRISTIAN MAURICIO                         CUE00134041651046195          1000000000022153CONSUMO CELULAR CLARO                                       001214015189080000000000019780000000000000000000000000000000                                                                                                                                       REC                               00038000000000002373001000000000000000000000000000000000000000000000000000000000000
BZDET000170000000008520778875R0914801170    CASTRO VALENCIA ALEJANDRO ENRIQUE                           CUE00134040941210240          1000000000093246CONSUMO CELULAR CLARO                                       001215028955637000000000083256000000000000000000000000000000                                                                                                                                       REC                               00038000000000009990001000000000000000000000000000000000000000000000000000000000000
BZDET000171000000008520788195R1205515115    SOLORZANO BASURTO ANGEL ANDRES                              CUE00134042051158807          1000000000002415CONSUMO CELULAR CLARO                                       001215035558245000000000002157000000000000000000000000000000                                                                                                                                       REC                               00038000000000000258001000000000000000000000000000000000000000000000000000000000000
BZDET000172000000008520964274R0917377269    JAIME CERNA XAVIER FERNANDO                                 CUE00134030915016404          1000000000015036CONSUMO CELULAR CLARO                                       001215039986832000000000013426000000000000000000000000000000                                                                                                                                       REC                               00038000000000001610001000000000000000000000000000000000000000000000000000000000000
BZDET000173000000008521202481R0953235215    BUCHELI BARZOLA ZAIDA ABIGAIL                               CUE00134040931379218          1000000000010488CONSUMO CELULAR CLARO                                       001215046489850000000000009365000000000000000000000000000000                                                                                                                                       REC                               00038000000000001123001000000000000000000000000000000000000000000000000000000000000
BZDET000174000000008521327312R1104189491    JARAMILLO CARRILLO JOHANA MARIUXI                           CUE00134041401139195          1000000000112251CONSUMO CELULAR CLARO                                       001215036507036000000000100225000000000000000000000000000000                                                                                                                                       REC                               00038000000000012026001000000000000000000000000000000000000000000000000000000000000
BZDET000175000000008521419712R0918335217    TOMALA LINO WILLIAM FERNANDO                                CUE00134047001196583          1000000000001230CONSUMO CELULAR CLARO                                       001215046578672000000000001099000000000000000000000000000131                                                                                                                                       REC                               00038000000000000131001000000000000000000000000001099000000000000000000000000001099
BZDET000176000000008521419942R0802078386    QUINTEROS AYOVI RAUL EDUARDO                                CUE00134041301034974          1000000000004231CONSUMO CELULAR CLARO                                       001215045317092000000000003778000000000000000000000000000000                                                                                                                                       REC                               00038000000000000453001000000000000000000000000000000000000000000000000000000000000
BZDET000177000000008521482963R0919873620    MISHQUERO GALARZA ANGEL ALBERTO                             CUE00134040911311558          1000000000011919CONSUMO CELULAR CLARO                                       001215046579831000000000010642000000000000000000000000000000                                                                                                                                       REC                               00038000000000001277001000000000000000000000000000000000000000000000000000000000000
BZDET000178000000008522352190R0917768467    ESPINOZA SIMISTERRA VERONICA JAZMIN                         CUE00134040051697549          1000000000003134CONSUMO CELULAR CLARO                                       001214015471798000000000002799000000000000000000000000000335                                                                                                                                       REC                               00038000000000000335001000000000000000000000000002799000000000000000000000000002799
BZDET000179000000008522514274R0953530797    MARTINEZ BENITES SILVIA REBECA                              CUE00134040951345970          1000000000017246CONSUMO CELULAR CLARO                                       001215044235625000000000015399000000000000000000000000000000                                                                                                                                       REC                               00038000000000001847001000000000000000000000000000000000000000000000000000000000000
BZDET000180000000008523027667R0923085740    RAMIREZ LINDAO SEBASTIAN ALEJANDRO                          CUE00134041781005582          1000000000002524CONSUMO CELULAR CLARO                                       001215043119353000000000002254000000000000000000000000000270                                                                                                                                       REC                               00038000000000000270001000000000000000000000000002254000000000000000000000000002254
BZDET000181000000008523151842R0952756112    CORONEL PEREA JOSUE GREGORIO                                CUE00134040981400570          1000000000003918CONSUMO CELULAR CLARO                                       001215025782334000000000003499000000000000000000000000000419                                                                                                                                       REC                               00038000000000000419001000000000000000000000000003499000000000000000000000000003499
BZDET000182000000008523237204R1310900509    INTRIAGO VERA VIVIANA GUADALUPE                             CUE00134042001174477          1000000000001885CONSUMO CELULAR CLARO                                       001215030133129000000000001684000000000000000000000000000000                                                                                                                                       REC                               00038000000000000201001000000000000000000000000000000000000000000000000000000000000
BZDET000183000000008523245475R0916000755    MEJILLONES MARTINEZ FRANKLIN EFRAIN                         CUE00134041741140950          1000000000001790CONSUMO CELULAR CLARO                                       001215033355078000000000001599000000000000000000000000000000                                                                                                                                       REC                               00038000000000000191001000000000000000000000000000000000000000000000000000000000000
BZDET000184000000008523334245R0919499632    GUAMAN RODRIGUEZ JEFFERSON DAVID                            CUE00134040941031192          1000000000022875CONSUMO CELULAR CLARO                                       001215044348803000000000020425000000000000000000000000000000                                                                                                                                       REC                               00038000000000002450001000000000000000000000000000000000000000000000000000000000000
BZDET000185000000008523792288R0916051063    RAMOS GOMEZ CESAR ISRAEL                                    CUE00134040002279438          1000000000129402CONSUMO CELULAR CLARO                                       001215034412160000000000115538000000000000000000000000000000                                                                                                                                       REC                               00038000000000013864001000000000000000000000000000000000000000000000000000000000000
BZDET000186000000008524111426R1700941428    ORTEGA NAVAS JENNY ARGENTINA                                CUE00134040921011394          1000000000002274CONSUMO CELULAR CLARO                                       001215035433187000000000002031000000000000000000000000000000                                                                                                                                       REC                               00038000000000000243001000000000000000000000000000000000000000000000000000000000000
BZDET000187000000008524126748R0940581242    VERDUGO ROMERO ANGIEE MELISSA                               CUE00134040981414804          1000000000002288CONSUMO CELULAR CLARO                                       001215041070654000000000002044000000000000000000000000000244                                                                                                                                       REC                               00038000000000000244001000000000000000000000000002044000000000000000000000000002044
BZDET000188000000008524131379R0926828096    VELIZ SALGADO ANA MARIA                                     CUE00134041611040063          1000000000004092CONSUMO CELULAR CLARO                                       001215045357877000000000003654000000000000000000000000000000                                                                                                                                       REC                               00038000000000000438001000000000000000000000000000000000000000000000000000000000000
BZDET000189000000008524136239R0955898077    VALDEZ VERGARA EVELYN MELISSA                               CUE00134040003594567          1000000000046802CONSUMO CELULAR CLARO                                       001215043269686000000000041788000000000000000000000000000000                                                                                                                                       REC                               00038000000000005014001000000000000000000000000000000000000000000000000000000000000
BZDET000190000000008524298684R0940793771    VARGAS CEVALLOS RONALD EDUARDO                              CUE00134040851467951          1000000000053290CONSUMO CELULAR CLARO                                       001215042113603000000000047581000000000000000000000000000000                                                                                                                                       REC                               00038000000000005709001000000000000000000000000000000000000000000000000000000000000
