BZCABR00179125123700100003803REC       20230911130241MOVIoperadorRe005520000000062691710
BZMOV00000000000000000000000000202309072023090700000000003025327211R000000905675864CBCONSUMO CELULAR CLARO                                                000000000000000001000000000000000001340400000000001721008460GIL HUMBERTO ROMERO PIN                                                    000000000000000000000XDIRCUE00000000000000000000241033 FONDOS INSUFICIENTES                    0000000000000000000000000
BZMOV00000000000000000000000000202309072023090700000000003029877323R000000922769450CBCONSUMO CELULAR CLARO                                                000000000000000001000000000000000001340400000000000851346419GIL HUMBERTO ROMERO PIN                                                    000000000000000000000XDIRCUE00000000000000000000241033 FONDOS INSUFICIENTES                    0000000000000000000000000
BZMOV00000000000000000000000000202309072023090700000000003062779135R000001716684046CBCONSUMO CELULAR CLARO                                                000000000000000001000000000000000001340400000000001611071211ARSECIO GAVINO YUNGA RODRIGUEZ                                             000000000000000000000XDIRCUE00000000000000000000241033 FONDOS INSUFICIENTES                    0000000000000000000000000
BZMOV00000000000000000000000000202309072023090700000000003065960536R000000927160804CBCONSUMO CELULAR CLARO                                                000000000000000001000000000000000001340400000000001781010380ARSECIO GAVINO YUNGA RODRIGUEZ                                             000000000000000000000XDIRCUE00000000000000000000241033 FONDOS INSUFICIENTES                    0000000000000000000000000
BZMOV00000000000000000000000000202309072023090700000000003066002281R000000955307806CBCONSUMO CELULAR CLARO                                                000000000000000001000000000000000001340400000000000941361686ARSECIO GAVINO YUNGA RODRIGUEZ                                             000000000000000000000XDIRCUE00000000000000000000241033 FONDOS INSUFICIENTES                    0000000000000000000000000
BZMOV00000000000000000000000000202309072023090700000000003066252140R000001803569266CBCONSUMO CELULAR CLARO                                                000000000000000001000000000000000001340400000000001201113977LUIS GERARDO MINIGUANO CARRANZA                                            000000000000000000000XDIRCUE00000000000000000000241057 CUENTA CANCELADA/CERRADA                0000000000000000000000000
BZMOV00000000000000000000000000202309072023090700000000004116194632R000000800528176CBCONSUMO CELULAR CLARO                                                000000000000000001000000000000000001340300000000001305002881ING. JORGE MARTINEZ MARTINEZ                                               000000000000000000000XDIRCUE00000000000000000000241033 FONDOS INSUFICIENTES                    0000000000000000000000000
BZMOV00000000000000000000000000202309072023090700000000004117444061R000000907504740CBCONSUMO CELULAR CLARO                                                000000000000000001000000000000000001340300000000000885001354JORGE ANTONIO DIAZ ECHEVERRIA                                              000000000000000000000XDIRCUE00000000000000000000241033 FONDOS INSUFICIENTES                    0000000000000000000000000
BZMOV00000000000000000000000000202309072023090700000000004122137573R000000801070525CBCONSUMO CELULAR CLARO                                                000000000000000001000000000000000001340300000000000945040363WALBERTO GODOY                                                             000000000000000000000XDIRCUE00000000000000000000241033 FONDOS INSUFICIENTES                    0000000000000000000000000
BZMOV00000000000000000000000000202309072023090700000000004122274824R000000922374434CBCONSUMO CELULAR CLARO                                                000000000000000001000000000000000001340400000000000002974470GASPAR TAMAYO EDISON BYRON                                                 000000000000000000000XDIRCUE00000000000000000000241033 FONDOS INSUFICIENTES                    0000000000000000000000000
BZMOV00000000000000000000000000202309072023090700000000004122750270R000000919292581CBCONSUMO CELULAR CLARO                                                000000000000000001000000000000000001340400000000000941015764Nury Mendez G. / Ronin Mora S.                                             000000000000000000000XDIRCUE00000000000000000000241033 FONDOS INSUFICIENTES                    0000000000000000000000000
BZMOV00000000000000000000000000202309072023090700000000004123085931R000000925537110CBCONSUMO CELULAR CLARO                                                000000000000000001000000000000000001340400000000000921031088LUIS ALFONSO AMAGUAYA CAUJA                                                000000000000000000000XDIRCUE00000000000000000000241033 FONDOS INSUFICIENTES                    0000000000000000000000000
BZMOV00000000000000000000000000202309072023090700000000004123730684R000000916412943CBCONSUMO CELULAR CLARO                                                000000000000000001000000000000000001340400000000007001054943RICHARD ALFONZO CONSTANTE SANT                                             000000000000000000000XDIRCUE00000000000000000000241033 FONDOS INSUFICIENTES                    0000000000000000000000000
BZMOV00000000000000000000000000202309072023090700000000004123730711R000000910000603CBCONSUMO CELULAR CLARO                                                000000000000000001000000000000000001340400000000000871032049RICHARD ALFONZO CONSTANTE SANT                                             000000000000000000000XDIRCUE00000000000000000000241033 FONDOS INSUFICIENTES                    0000000000000000000000000
BZMOV00000000000000000000000000202309072023090700000000004124489460R000000907762355CBCONSUMO CELULAR CLARO                                                000000000000000001000000000000000001340400000000000981288840LINO RODRIGUEZ JOSE CIRILO                                                 000000000000000000000XDIRCUE00000000000000000000241057 CUENTA CANCELADA/CERRADA                0000000000000000000000000
BZMOV00000000000000000000000000202309072023090700000000004124542404R000000301380234CBCONSUMO CELULAR CLARO                                                000000000000000001000000000000000001340400000000006001032881LINO RODRIGUEZ JOSE CIRILO                                                 000000000000000000000XDIRCUE00000000000000000000241033 FONDOS INSUFICIENTES                    0000000000000000000000000
BZMOV00000000000000000000000000202309072023090700000000004124671385R000001307423887CBCONSUMO CELULAR CLARO                                                000000000000000001000000000000000001340400000000000002346158LINO RODRIGUEZ JOSE CIRILO                                                 000000000000000000000XDIRCUE00000000000000000000241033 FONDOS INSUFICIENTES                    0000000000000000000000000
BZMOV00000000000000000000000000202309072023090700000000004125174741R000000914848031CBCONSUMO CELULAR CLARO                                                000000000000000001000000000000000001340400000000000851373823LINO RODRIGUEZ JOSE CIRILO                                                 000000000000000000000XDIRCUE00000000000000000000241033 FONDOS INSUFICIENTES                    0000000000000000000000000
BZMOV00000000000000000000000000202309072023090700000000004125350022R000000924737182CBCONSUMO CELULAR CLARO                                                000000000000000001000000000000000001340400000000000061258395LINO RODRIGUEZ JOSE CIRILO                                                 000000000000000000000XDIRCUE00000000000000000000241033 FONDOS INSUFICIENTES                    0000000000000000000000000
BZMOV00000000000000000000000000202309072023090700000000004125635816R000000913585345CBCONSUMO CELULAR CLARO                                                000000000000000001000000000000000001340300000000000935002863JUAN CARLOS GOMEZ                                                          000000000000000000000XDIRCUE00000000000000000000241033 FONDOS INSUFICIENTES                    0000000000000000000000000
BZMOV00000000000000000000000000202309072023090700000000004128667177R000000926609124CBCONSUMO CELULAR CLARO                                                000000000000000001000000000000000001340400000000000911025330FRANKLIN WILLIAN REYES CARCHI                                              000000000000000000000XDIRCUE00000000000000000000241033 FONDOS INSUFICIENTES                    0000000000000000000000000
BZMOV00000000000000000000000000202309072023090700000000004129110698R000000918527565CBCONSUMO CELULAR CLARO                                                000000000000000001000000000000000001340400000000000851454717CESAR OSWALDO AREQUIPA MURILLO                                             000000000000000000000XDIRCUE00000000000000000000241057 CUENTA CANCELADA/CERRADA                0000000000000000000000000
BZMOV00000000000000000000000000202309072023090700000000004130521942R000000801183658CBCONSUMO CELULAR CLARO                                                000000000000000001000000000000000001340400000000000002624626CESAR OSWALDO AREQUIPA MURILLO                                             000000000000000000000XDIRCUE00000000000000000000241033 FONDOS INSUFICIENTES                    0000000000000000000000000
BZMOV00000000000000000000000000202309072023090700000000004130851990R000000912106879CBCONSUMO CELULAR CLARO                                                000000000000000001000000000000000001340300000000000035037794MARCELO COBOS MORGNER                                                      000000000000000000000XDIRCUE00000000000000000000241033 FONDOS INSUFICIENTES                    0000000000000000000000000
BZMOV00000000000000000000000000202309072023090700000000004131319528R000000913481073CBCONSUMO CELULAR CLARO                                                000000000000000001000000000000000001340400000000000002493574MARCELO COBOS MORGNER                                                      000000000000000000000XDIRCUE00000000000000000000241033 FONDOS INSUFICIENTES                    0000000000000000000000000
BZMOV00000000000000000000000000202309072023090700000000004131685093R000000920562873CBCONSUMO CELULAR CLARO                                                000000000000000001000000000000000001340300000000000925028774ESTRELLA CECIBEL CRUZ CELLERI                                              000000000000000000000XDIRCUE00000000000000000000241033 FONDOS INSUFICIENTES                    0000000000000000000000000
BZMOV00000000000000000000000000202309072023090700000000004134558557R000000920348810CBCONSUMO CELULAR CLARO                                                000000000000000001000000000000000001340400000000007001156875ESTRELLA CECIBEL CRUZ CELLERI                                              000000000000000000000XDIRCUE00000000000000000000241033 FONDOS INSUFICIENTES                    0000000000000000000000000
BZMOV00000000000000000000000000202309072023090700000000004134934472R000000917507162CBCONSUMO CELULAR CLARO                                                000000000000000001000000000000000001340400000000000871073183ESTRELLA CECIBEL CRUZ CELLERI                                              000000000000000000000XDIRCUE00000000000000000000241033 FONDOS INSUFICIENTES                    0000000000000000000000000
BZMOV00000000000000000000000000202309072023090700000000004135309041R000001308658879CBCONSUMO CELULAR CLARO                                                000000000000000001000000000000000001340300000000005005036128EDUARDO PERLAZA CUERO                                                      000000000000000000000XDIRCUE00000000000000000000241033 FONDOS INSUFICIENTES                    0000000000000000000000000
BZMOV00000000000000000000000000202309072023090700000000004135359138R000000921680633CBCONSUMO CELULAR CLARO                                                000000000000000001000000000000000001340400000000000851140085EDUARDO PERLAZA CUERO                                                      000000000000000000000XDIRCUE00000000000000000000241033 FONDOS INSUFICIENTES                    0000000000000000000000000
BZMOV00000000000000000000000000202309072023090700000000004135413317R000000911951564CBCONSUMO CELULAR CLARO                                                000000000000000001000000000000000001340400000000001741027876CARLOS ANDRES LINCANGO ALCOCER                                             000000000000000000000XDIRCUE00000000000000000000241033 FONDOS INSUFICIENTES                    0000000000000000000000000
BZMOV00000000000000000000000000202309072023090700000000004135446798R000000914769161CBCONSUMO CELULAR CLARO                                                000000000000000001000000000000000001340400000000000061122615CARLOS ANDRES LINCANGO ALCOCER                                             000000000000000000000XDIRCUE00000000000000000000241033 FONDOS INSUFICIENTES                    0000000000000000000000000
BZMOV00000000000000000000000000202309072023090700000000004135699142R000001313290304CBCONSUMO CELULAR CLARO                                                000000000000000001000000000000000001340400000000005081026465GABRIEL GREGORIO INTRIAGO HIDR                                             000000000000000000000XDIRCUE00000000000000000000241057 CUENTA CANCELADA/CERRADA                0000000000000000000000000
BZMOV00000000000000000000000000202309072023090700000000004135737194R000001707439350CBCONSUMO CELULAR CLARO                                                000000000000000001000000000000000001340400000000000031125115GUSTAVO EDUARDO RIOFRIO ORRANT                                             000000000000000000000XDIRCUE00000000000000000000241033 FONDOS INSUFICIENTES                    0000000000000000000000000
BZMOV00000000000000000000000000202309072023090700000000004135867891R000001308776861CBCONSUMO CELULAR CLARO                                                000000000000000001000000000000000001340400000000000841085115MARIO EFRAIN SANCHEZ VASQUEZ                                               000000000000000000000XDIRCUE00000000000000000000241033 FONDOS INSUFICIENTES                    0000000000000000000000000
BZMOV00000000000000000000000000202309072023090700000000004135988629R000000800084436CBCONSUMO CELULAR CLARO                                                000000000000000001000000000000000001340400000000000001495943WILSON DR DROUET TUTIVEN                                                   000000000000000000000XDIRCUE00000000000000000000241033 FONDOS INSUFICIENTES                    0000000000000000000000000
BZMOV00000000000000000000000000202309072023090700000000004136025760R000000915399703CBCONSUMO CELULAR CLARO                                                000000000000000001000000000000000001340400000000000001432293FIGUEROA BUSTAMANTE MARIA AMPARO                                           000000000000000000000XDIRCUE00000000000000000000241033 FONDOS INSUFICIENTES                    0000000000000000000000000
BZMOV00000000000000000000000000202309072023090700000000004136240026R000000800629867CBCONSUMO CELULAR CLARO                                                000000000000000001000000000000000001340300000000000005193640RIGOBERTO CHACON                                                           000000000000000000000XDIRCUE00000000000000000000241033 FONDOS INSUFICIENTES                    0000000000000000000000000
BZMOV00000000000000000000000000202309072023090700000000004138647077R000000916067309CBCONSUMO CELULAR CLARO                                                000000000000000001000000000000000001340400000000000021535829RIGOBERTO CHACON                                                           000000000000000000000XDIRCUE00000000000000000000241033 FONDOS INSUFICIENTES                    0000000000000000000000000
BZMOV00000000000000000000000000202309072023090700000000004139127116R000001202745129CBCONSUMO CELULAR CLARO                                                000000000000000001000000000000000001340300000000002035000741DORA M. CHUEZ IBARRA                                                       000000000000000000000XDIRCUE00000000000000000000241033 FONDOS INSUFICIENTES                    0000000000000000000000000
BZMOV00000000000000000000000000202309072023090700000000004139127129R000000906780309CBCONSUMO CELULAR CLARO                                                000000000000000001000000000000000001340300000000000045008087MIRELLA NARCISA DE FATIMA TAGL                                             000000000000000000000XDIRCUE00000000000000000000241033 FONDOS INSUFICIENTES                    0000000000000000000000000
BZMOV00000000000000000000000000202309072023090700000000004139207821R000000915402804CBCONSUMO CELULAR CLARO                                                000000000000000001000000000000000001340300000000000925007508ING. JOSE BAQUERIZO MAHUAD                                                 000000000000000000000XDIRCUE00000000000000000000241033 FONDOS INSUFICIENTES                    0000000000000000000000000
BZMOV00000000000000000000000000202309072023090700000000004139352004R000000921904934CBCONSUMO CELULAR CLARO                                                000000000000000001000000000000000001340400000000002031026281ANDRES ALFREDO BELLO VILLEGAS                                              000000000000000000000XDIRCUE00000000000000000000241033 FONDOS INSUFICIENTES                    0000000000000000000000000
BZMOV00000000000000000000000000202309072023090700000000004139408995R000000923359756CBCONSUMO CELULAR CLARO                                                000000000000000001000000000000000001340400000000000002487774ALMEIDA CONFORME ALBA AIDEE                                                000000000000000000000XDIRCUE00000000000000000000241033 FONDOS INSUFICIENTES                    0000000000000000000000000
BZMOV00000000000000000000000000202309072023090700000000004139589710R000001310338460CBCONSUMO CELULAR CLARO                                                000000000000000001000000000000000001340400000000005001057145TOALA DE LA CRUZ CESAR EFRAIN                                              000000000000000000000XDIRCUE00000000000000000000241033 FONDOS INSUFICIENTES                    0000000000000000000000000
BZMOV00000000000000000000000000202309072023090700000000004139603438R000000912211356CBCONSUMO CELULAR CLARO                                                000000000000000001000000000000000001340400000000000841051729MARIO ENRIQUE SUAREZ CARPIO                                                000000000000000000000XDIRCUE00000000000000000000241033 FONDOS INSUFICIENTES                    0000000000000000000000000
BZMOV00000000000000000000000000202309072023090700000000004139607434R000001201243449CBCONSUMO CELULAR CLARO                                                000000000000000001000000000000000001340400000000000003146345MARIO ENRIQUE SUAREZ CARPIO                                                000000000000000000000XDIRCUE00000000000000000000241033 FONDOS INSUFICIENTES                    0000000000000000000000000
BZMOV00000000000000000000000000202309072023090700000000004139812523R000000919076711CBCONSUMO CELULAR CLARO                                                000000000000000001000000000000000001340400000000000021350065BATALLAS BRIONES ERIKA ALEXANDRA                                           000000000000000000000XDIRCUE00000000000000000000241033 FONDOS INSUFICIENTES                    0000000000000000000000000
BZMOV00000000000000000000000000202309072023090700000000004139816043R000001716547409CBCONSUMO CELULAR CLARO                                                000000000000000001000000000000000001340300000000002045003729DAYSI JIMENA MEDINA VILLALVA                                               000000000000000000000XDIRCUE00000000000000000000241033 FONDOS INSUFICIENTES                    0000000000000000000000000
BZMOV00000000000000000000000000202309072023090700000000004139849184R000000951616945CBCONSUMO CELULAR CLARO                                                000000000000000001000000000000000001340400000000000841144519JHOANNA OBANDO BARAHONA                                                    000000000000000000000XDIRCUE00000000000000000000241033 FONDOS INSUFICIENTES                    0000000000000000000000000
BZMOV00000000000000000000000000202309072023090700000000004140016033R000000902181296CBCONSUMO CELULAR CLARO                                                000000000000000001000000000000000001340400000000000871012487JHOANNA OBANDO BARAHONA                                                    000000000000000000000XDIRCUE00000000000000000000241025 CUENTA BLOQUEADA PARA MOVIMIENTOS       0000000000000000000000000
BZMOV00000000000000000000000000202309072023090700000000004140491776R000000930100102CBCONSUMO CELULAR CLARO                                                000000000000000001000000000000000001340400000000000002280854JHOANNA OBANDO BARAHONA                                                    000000000000000000000XDIRCUE00000000000000000000241033 FONDOS INSUFICIENTES                    0000000000000000000000000
BZMOV00000000000000000000000000202309072023090700000000004142664351R000001719909648CBCONSUMO CELULAR CLARO                                                000000000000000001000000000000000001340400000000001611043597JHOANNA OBANDO BARAHONA                                                    000000000000000000000XDIRCUE00000000000000000000241033 FONDOS INSUFICIENTES                    0000000000000000000000000
BZMOV00000000000000000000000000202309072023090700000000004147410535R000000918147299CBCONSUMO CELULAR CLARO                                                000000000000000001000000000000000001340400000000000941077380JOSE LEONARDO JAIME MERO                                                   000000000000000000000XDIRCUE00000000000000000000241033 FONDOS INSUFICIENTES                    0000000000000000000000000
BZMOV00000000000000000000000000202309072023090700000000004147428275R000000926282906CBCONSUMO CELULAR CLARO                                                000000000000000001000000000000000001340400000000000021459655GEORGE BERNARDINO LLERENA PARRALES                                         000000000000000000000XDIRCUE00000000000000000000241025 CUENTA BLOQUEADA PARA MOVIMIENTOS       0000000000000000000000000
BZMOV00000000000000000000000000202309072023090700000000004147546856R000000951860782CBCONSUMO CELULAR CLARO                                                000000000000000001000000000000000001340400000000000911191646GEORGE BERNARDINO LLERENA PARRALES                                         000000000000000000000XDIRCUE00000000000000000000241033 FONDOS INSUFICIENTES                    0000000000000000000000000
BZMOV00000000000000000000000000202309072023090700000000004147692328R000000927247999CBCONSUMO CELULAR CLARO                                                000000000000000001000000000000000001340400000000000002832302GEORGE BERNARDINO LLERENA PARRALES                                         000000000000000000000XDIRCUE00000000000000000000241033 FONDOS INSUFICIENTES                    0000000000000000000000000
BZMOV00000000000000000000000000202309072023090700000000004147718135R000000913693487CBCONSUMO CELULAR CLARO                                                000000000000000001000000000000000001340300000000000855006343DAVID ANTONIO CAMPOS A.       MARIA CRISTINA GONZALEZ G.                   000000000000000000000XDIRCUE00000000000000000000241033 FONDOS INSUFICIENTES                    0000000000000000000000000
BZMOV00000000000000000000000000202309072023090700000000004147734749R000000910503267CBCONSUMO CELULAR CLARO                                                000000000000000001000000000000000001340300000000000045023312DAVID ANTONIO CAMPOS A.       MARIA CRISTINA GONZALEZ G.                   000000000000000000000XDIRCUE00000000000000000000241033 FONDOS INSUFICIENTES                    0000000000000000000000000
BZMOV00000000000000000000000000202309072023090700000000004147754424R000000917373813CBCONSUMO CELULAR CLARO                                                000000000000000001000000000000000001340400000000000002188598DAVID ANTONIO CAMPOS A.       MARIA CRISTINA GONZALEZ G.                   000000000000000000000XDIRCUE00000000000000000000241033 FONDOS INSUFICIENTES                    0000000000000000000000000
BZMOV00000000000000000000000000202309072023090700000000004147788420R000001713464962CBCONSUMO CELULAR CLARO                                                000000000000000001000000000000000001340300000000005005040196VERONICA VINUEZA                                                           000000000000000000000XDIRCUE00000000000000000000241033 FONDOS INSUFICIENTES                    0000000000000000000000000
BZMOV00000000000000000000000000202309072023090700000000004148740406R000001201501333CBCONSUMO CELULAR CLARO                                                000000000000000001000000000000000001340400000000002051075211VERONICA VINUEZA                                                           000000000000000000000XDIRCUE00000000000000000000241033 FONDOS INSUFICIENTES                    0000000000000000000000000
BZMOV00000000000000000000000000202309072023090700000000004148778477R000000913885380CBCONSUMO CELULAR CLARO                                                000000000000000001000000000000000001340400000000001751013880CARLOS AUGUSTO MEJIA RONQUILLO                                             000000000000000000000XDIRCUE00000000000000000000241033 FONDOS INSUFICIENTES                    0000000000000000000000000
BZMOV00000000000000000000000000202309072023090700000000004148886888R000000904337334CBCONSUMO CELULAR CLARO                                                000000000000000001000000000000000001340400000000000011013843CARLOS ORESTES CEDENO CHUM/COMERCIAL C.C                                   000000000000000000000XDIRCUE00000000000000000000241033 FONDOS INSUFICIENTES                    0000000000000000000000000
BZMOV00000000000000000000000000202309072023090700000000004149014040R000000916923303CBCONSUMO CELULAR CLARO                                                000000000000000001000000000000000001340400000000007001058551EDITH DEL ROCIO RAMIREZ RAMOS                                              000000000000000000000XDIRCUE00000000000000000000241033 FONDOS INSUFICIENTES                    0000000000000000000000000
BZMOV00000000000000000000000000202309072023090700000000004149219794R000000913427449CBCONSUMO CELULAR CLARO                                                000000000000000001000000000000000001340400000000000002485708EDITH DEL ROCIO RAMIREZ RAMOS                                              000000000000000000000XDIRCUE00000000000000000000241033 FONDOS INSUFICIENTES                    0000000000000000000000000
BZMOV00000000000000000000000000202309072023090700000000004149221892R000000923390421CBCONSUMO CELULAR CLARO                                                000000000000000001000000000000000001340400000000000051587863EDITH DEL ROCIO RAMIREZ RAMOS                                              000000000000000000000XDIRCUE00000000000000000000241033 FONDOS INSUFICIENTES                    0000000000000000000000000
BZMOV00000000000000000000000000202309072023090700000000004149296296R000000920870714CBCONSUMO CELULAR CLARO                                                000000000000000001000000000000000001340400000000000841173955EDITH DEL ROCIO RAMIREZ RAMOS                                              000000000000000000000XDIRCUE00000000000000000000241033 FONDOS INSUFICIENTES                    0000000000000000000000000
BZMOV00000000000000000000000000202309072023090700000000004149538913R000000909540817CBCONSUMO CELULAR CLARO                                                000000000000000001000000000000000001340400000000000941138106JUAN ALBERTO GUTIERREZ JIMENEZ                                             000000000000000000000XDIRCUE00000000000000000000241057 CUENTA CANCELADA/CERRADA                0000000000000000000000000
BZMOV00000000000000000000000000202309072023090700000000004149604761R000000925889693CBCONSUMO CELULAR CLARO                                                000000000000000001000000000000000001340400000000000941135798ENNER JAVIER TENORIO MINA                                                  000000000000000000000XDIRCUE00000000000000000000241033 FONDOS INSUFICIENTES                    0000000000000000000000000
BZMOV00000000000000000000000000202309072023090700000000004149759697R000001721930889CBCONSUMO CELULAR CLARO                                                000000000000000001000000000000000001340400000000005071053965ERIC ALEXANDER RIOS CHAMBA                                                 000000000000000000000XDIRCUE00000000000000000000241033 FONDOS INSUFICIENTES                    0000000000000000000000000
BZMOV00000000000000000000000000202309072023090700000000004150004299R000000803764455CBCONSUMO CELULAR CLARO                                                000000000000000001000000000000000001340400000000001301042234MONICA ANTONELLA LARA RIVERO                                               000000000000000000000XDIRCUE00000000000000000000241057 CUENTA CANCELADA/CERRADA                0000000000000000000000000
BZMOV00000000000000000000000000202309072023090700000000004150032983R000000801501883CBCONSUMO CELULAR CLARO                                                000000000000000001000000000000000001340400000000001301078316JOHN VALENTIN VALENCIA PIMENTEL                                            000000000000000000000XDIRCUE00000000000000000000241033 FONDOS INSUFICIENTES                    0000000000000000000000000
BZMOV00000000000000000000000000202309072023090700000000004150060468R000000909697443CBCONSUMO CELULAR CLARO                                                000000000000000001000000000000000001340400000000000031059887CARLOS GERMAIN TOLEDO SALAZAR                                              000000000000000000000XDIRCUE00000000000000000000241033 FONDOS INSUFICIENTES                    0000000000000000000000000
BZMOV00000000000000000000000000202309072023090700000000004150593061R000000704789544CBCONSUMO CELULAR CLARO                                                000000000000000001000000000000000001340400000000003001093023JAVIER RAFAEL CAJILEMA QUEZADA                                             000000000000000000000XDIRCUE00000000000000000000241033 FONDOS INSUFICIENTES                    0000000000000000000000000
BZMOV00000000000000000000000000202309072023090700000000004150625168R000002300105372CBCONSUMO CELULAR CLARO                                                000000000000000001000000000000000001340300000000001005035396JAVIER RAFAEL CAJILEMA QUEZADA                                             000000000000000000000XDIRCUE00000000000000000000241033 FONDOS INSUFICIENTES                    0000000000000000000000000
BZMOV00000000000000000000000000202309072023090700000000004150652537R000000908111909CBCONSUMO CELULAR CLARO                                                000000000000000001000000000000000001340400000000000001081333MARIA ANTONIETA BECKMANN FUNES                                             000000000000000000000XDIRCUE00000000000000000000241033 FONDOS INSUFICIENTES                    0000000000000000000000000
BZMOV00000000000000000000000000202309072023090700000000004150741301R000000928414622CBCONSUMO CELULAR CLARO                                                000000000000000001000000000000000001340400000000000941166370RAMIREZ RODRIGUEZ MARLON DANILO                                            000000000000000000000XDIRCUE00000000000000000000241033 FONDOS INSUFICIENTES                    0000000000000000000000000
BZMOV00000000000000000000000000202309072023090700000000004150757163R000001707202055CBCONSUMO CELULAR CLARO                                                000000000000000001000000000000000001340400000000000841051499LUIS TUPIZA CHAPIGA                                                        000000000000000000000XDIRCUE00000000000000000000241033 FONDOS INSUFICIENTES                    0000000000000000000000000
BZMOV00000000000000000000000000202309072023090700000000004150931468R000001721829701CBCONSUMO CELULAR CLARO                                                000000000000000001000000000000000001340400000000005001464855LUIS TUPIZA CHAPIGA                                                        000000000000000000000XDIRCUE00000000000000000000241033 FONDOS INSUFICIENTES                    0000000000000000000000000
BZMOV00000000000000000000000000202309072023090700000000004151069150R000001301842041CBCONSUMO CELULAR CLARO                                                000000000000000001000000000000000001340300000000001105015753GERALDINA RAMIREZ                                                          000000000000000000000XDIRCUE00000000000000000000241033 FONDOS INSUFICIENTES                    0000000000000000000000000
BZMOV00000000000000000000000000202309072023090700000000004151194985R000000917283038CBCONSUMO CELULAR CLARO                                                000000000000000001000000000000000001340300000000000885011218MARIA ISABEL BURBANO TUTIVEN                                               000000000000000000000XDIRCUE00000000000000000000241033 FONDOS INSUFICIENTES                    0000000000000000000000000
BZMOV00000000000000000000000000202309072023090700000000004151410140R000000924210917CBCONSUMO CELULAR CLARO                                                000000000000000001000000000000000001340400000000001751013412LISSETTE MARIUXI ESPINOZA BERMEO                                           000000000000000000000XDIRCUE00000000000000000000241033 FONDOS INSUFICIENTES                    0000000000000000000000000
BZMOV00000000000000000000000000202309072023090700000000004151543622R000000903232940CBCONSUMO CELULAR CLARO                                                000000000000000001000000000000000001340400000000000951087564MIGUEL ROMEO VILLAGOMEZ BUZZET                                             000000000000000000000XDIRCUE00000000000000000000241057 CUENTA CANCELADA/CERRADA                0000000000000000000000000
BZMOV00000000000000000000000000202309072023090700000000004151545623R000000930122155CBCONSUMO CELULAR CLARO                                                000000000000000001000000000000000001340400000000000871155981MIGUEL ROMEO VILLAGOMEZ BUZZET                                             000000000000000000000XDIRCUE00000000000000000000241033 FONDOS INSUFICIENTES                    0000000000000000000000000
BZMOV00000000000000000000000000202309072023090700000000004151574336R000001204278236CBCONSUMO CELULAR CLARO                                                000000000000000001000000000000000001340400000000000981130004REYES MATUS PRIMITIVO GABRIEL                                              000000000000000000000XDIRCUE00000000000000000000241033 FONDOS INSUFICIENTES                    0000000000000000000000000
BZMOV00000000000000000000000000202309072023090700000000004151653694R000000924155211CBCONSUMO CELULAR CLARO                                                000000000000000001000000000000000001340400000000000021336405JARED RAUSCHENBERG MINCHALA                                                000000000000000000000XDIRCUE00000000000000000000241033 FONDOS INSUFICIENTES                    0000000000000000000000000
BZMOV00000000000000000000000000202309072023090700000000004151793927R000000909759615CBCONSUMO CELULAR CLARO                                                000000000000000001000000000000000001340400000000000002562122JARED RAUSCHENBERG MINCHALA                                                000000000000000000000XDIRCUE00000000000000000000241033 FONDOS INSUFICIENTES                    0000000000000000000000000
BZMOV00000000000000000000000000202309072023090700000000004151811493R000000929525749CBCONSUMO CELULAR CLARO                                                000000000000000001000000000000000001340400000000000002741264JARED RAUSCHENBERG MINCHALA                                                000000000000000000000XDIRCUE00000000000000000000241033 FONDOS INSUFICIENTES                    0000000000000000000000000
BZMOV00000000000000000000000000202309072023090700000000004151891893R000001306654888CBCONSUMO CELULAR CLARO                                                000000000000000001000000000000000001340400000000000031116831SANDRA DELGADO VELEZ                                                       000000000000000000000XDIRCUE00000000000000000000230352 SERVICIO SUSPENDIDO POR CLIENTE         0000000000000000000000000
BZMOV00000000000000000000000000202309072023090700000000004151929701R000000803863679CBCONSUMO CELULAR CLARO                                                000000000000000001000000000000000001340400000000001301042954LENIN STALIN CUERO REINA                                                   000000000000000000000XDIRCUE00000000000000000000241033 FONDOS INSUFICIENTES                    0000000000000000000000000
BZMOV00000000000000000000000000202309072023090700000000004151951424R000001202801161CBCONSUMO CELULAR CLARO                                                000000000000000001000000000000000001340400000000000041063921IGNACIO SEVERO VITE ONATE                                                  000000000000000000000XDIRCUE00000000000000000000241033 FONDOS INSUFICIENTES                    0000000000000000000000000
BZMOV00000000000000000000000000202309072023090700000000004151959094R000000918143934CBCONSUMO CELULAR CLARO                                                000000000000000001000000000000000001340400000000000001889605IGNACIO SEVERO VITE ONATE                                                  000000000000000000000XDIRCUE00000000000000000000241033 FONDOS INSUFICIENTES                    0000000000000000000000000
BZMOV00000000000000000000000000202309072023090700000000004152048515R000000908061450CBCONSUMO CELULAR CLARO                                                000000000000000001000000000000000001340400000000002051083713IGNACIO SEVERO VITE ONATE                                                  000000000000000000000XDIRCUE00000000000000000000241033 FONDOS INSUFICIENTES                    0000000000000000000000000
BZMOV00000000000000000000000000202309072023090700000000004152099208R000000917968026CBCONSUMO CELULAR CLARO                                                000000000000000001000000000000000001340400000000000811002577MARIA AUXILIADORA JARA FLORES                                              000000000000000000000XDIRCUE00000000000000000000241057 CUENTA CANCELADA/CERRADA                0000000000000000000000000
BZMOV00000000000000000000000000202309072023090700000000004152154029R000000917780520CBCONSUMO CELULAR CLARO                                                000000000000000001000000000000000001340400000000000851231711CHAMORRO MOREANO MIGUEL FERNANDO                                           000000000000000000000XDIRCUE00000000000000000000241033 FONDOS INSUFICIENTES                    0000000000000000000000000
BZMOV00000000000000000000000000202309072023090700000000004152273889R000000916465800CBCONSUMO CELULAR CLARO                                                000000000000000001000000000000000001340400000000000001541571GUZMAN FERNANDEZ FELIPE FERNANDO                                           000000000000000000000XDIRCUE00000000000000000000241033 FONDOS INSUFICIENTES                    0000000000000000000000000
BZMOV00000000000000000000000000202309072023090700000000004152305240R000001308658879CBCONSUMO CELULAR CLARO                                                000000000000000001000000000000000001340300000000005005036128EDUARDO PERLAZA CUERO                                                      000000000000000000000XDIRCUE00000000000000000000241033 FONDOS INSUFICIENTES                    0000000000000000000000000
BZMOV00000000000000000000000000202309072023090700000000004152470346R000000916457773CBCONSUMO CELULAR CLARO                                                000000000000000001000000000000000001340400000000000851229689EDUARDO PERLAZA CUERO                                                      000000000000000000000XDIRCUE00000000000000000000241033 FONDOS INSUFICIENTES                    0000000000000000000000000
BZMOV00000000000000000000000000202309072023090700000000004152476707R000000917319410CBCONSUMO CELULAR CLARO                                                000000000000000001000000000000000001340400000000000951052984JOHANNA PAOLA FUENTES CHOEZ                                                000000000000000000000XDIRCUE00000000000000000000241033 FONDOS INSUFICIENTES                    0000000000000000000000000
BZMOV00000000000000000000000000202309072023090700000000004152482849R000000924407828CBCONSUMO CELULAR CLARO                                                000000000000000001000000000000000001340400000000000931189942BASILIA IRENE PACHAY DELGADO                                               000000000000000000000XDIRCUE00000000000000000000241033 FONDOS INSUFICIENTES                    0000000000000000000000000
BZMOV00000000000000000000000000202309072023090700000000004152554579R000001203770159CBCONSUMO CELULAR CLARO                                                000000000000000001000000000000000001340400000000002031052313FATIMA ELIZABETH MACIAS ZAMBRA                                             000000000000000000000XDIRCUE00000000000000000000241033 FONDOS INSUFICIENTES                    0000000000000000000000000
BZMOV00000000000000000000000000202309072023090700000000004152708838R000000923311112CBCONSUMO CELULAR CLARO                                                000000000000000001000000000000000001340400000000007001129059FATIMA ELIZABETH MACIAS ZAMBRA                                             000000000000000000000XDIRCUE00000000000000000000241033 FONDOS INSUFICIENTES                    0000000000000000000000000
BZMOV00000000000000000000000000202309072023090700000000004152873805R000000927370023CBCONSUMO CELULAR CLARO                                                000000000000000001000000000000000001340400000000000041182079QUIMIS TIGUA FREDDY JAVIER                                                 000000000000000000000XDIRCUE00000000000000000000241033 FONDOS INSUFICIENTES                    0000000000000000000000000
BZMOV00000000000000000000000000202309072023090700000000004153086662R000001708596646CBCONSUMO CELULAR CLARO                                                000000000000000001000000000000000001340400000000005011119943QUIMIS TIGUA FREDDY JAVIER                                                 000000000000000000000XDIRCUE00000000000000000000241033 FONDOS INSUFICIENTES                    0000000000000000000000000
BZMOV00000000000000000000000000202309072023090700000000004153140153R000000905932521CBCONSUMO CELULAR CLARO                                                000000000000000001000000000000000001340400000000000871148469QUIMIS TIGUA FREDDY JAVIER                                                 000000000000000000000XDIRCUE00000000000000000000241033 FONDOS INSUFICIENTES                    0000000000000000000000000
BZMOV00000000000000000000000000202309072023090700000000004153201462R000000914943972CBCONSUMO CELULAR CLARO                                                000000000000000001000000000000000001340400000000000002901400MARIA ELENA MORA ESCOBAR                                                   000000000000000000000XDIRCUE00000000000000000000241033 FONDOS INSUFICIENTES                    0000000000000000000000000
BZMOV00000000000000000000000000202309072023090700000000004153299613R000000930542238CBCONSUMO CELULAR CLARO                                                000000000000000001000000000000000001340400000000000911237174MARIA ELENA MORA ESCOBAR                                                   000000000000000000000XDIRCUE00000000000000000000241033 FONDOS INSUFICIENTES                    0000000000000000000000000
BZMOV00000000000000000000000000202309072023090700000000004153342818R000000906608872CBCONSUMO CELULAR CLARO                                                000000000000000001000000000000000001340400000000000921282440BENITEZ SANCHEZ SEGUNDO NARCOSO                                            000000000000000000000XDIRCUE00000000000000000000241033 FONDOS INSUFICIENTES                    0000000000000000000000000
BZMOV00000000000000000000000000202309072023090700000000004153342876R000000922359112CBCONSUMO CELULAR CLARO                                                000000000000000001000000000000000001340300000000000045027545BENITEZ SANCHEZ SEGUNDO NARCOSO                                            000000000000000000000XDIRCUE00000000000000000000241033 FONDOS INSUFICIENTES                    0000000000000000000000000
BZMOV00000000000000000000000000202309072023090700000000004153476818R000001205039413CBCONSUMO CELULAR CLARO                                                000000000000000001000000000000000001340400000000000001732641LOMBEIDA ABAD KARLA FERNANDA                                               000000000000000000000XDIRCUE00000000000000000000241057 CUENTA CANCELADA/CERRADA                0000000000000000000000000
BZMOV00000000000000000000000000202309072023090700000000004153655713R000000908061450CBCONSUMO CELULAR CLARO                                                000000000000000001000000000000000001340400000000002051083713LOMBEIDA ABAD KARLA FERNANDA                                               000000000000000000000XDIRCUE00000000000000000000241033 FONDOS INSUFICIENTES                    0000000000000000000000000
BZMOV00000000000000000000000000202309072023090700000000004153720577R000000930847611CBCONSUMO CELULAR CLARO                                                000000000000000001000000000000000001340400000000000041150027LOMBEIDA ABAD KARLA FERNANDA                                               000000000000000000000XDIRCUE00000000000000000000241033 FONDOS INSUFICIENTES                    0000000000000000000000000
BZMOV00000000000000000000000000202309072023090700000000004153730011R000000929278398CBCONSUMO CELULAR CLARO                                                000000000000000001000000000000000001340400000000000002928874LOMBEIDA ABAD KARLA FERNANDA                                               000000000000000000000XDIRCUE00000000000000000000241033 FONDOS INSUFICIENTES                    0000000000000000000000000
BZMOV00000000000000000000000000202309072023090700000000004154359459R000000950514307CBCONSUMO CELULAR CLARO                                                000000000000000001000000000000000001340400000000000861187695LOMBEIDA ABAD KARLA FERNANDA                                               000000000000000000000XDIRCUE00000000000000000000241033 FONDOS INSUFICIENTES                    0000000000000000000000000
BZMOV00000000000000000000000000202309072023090700000000004155112780R000001312844879CBCONSUMO CELULAR CLARO                                                000000000000000001000000000000000001340400000000000861091815LOMBEIDA ABAD KARLA FERNANDA                                               000000000000000000000XDIRCUE00000000000000000000241033 FONDOS INSUFICIENTES                    0000000000000000000000000
BZMOV00000000000000000000000000202309072023090700000000004158209291R000001710644004CBCONSUMO CELULAR CLARO                                                000000000000000001000000000000000001340300000000005055019328BRENDA DE LAS MERCEDES CASTILLO VALLADARES                                 000000000000000000000XDIRCUE00000000000000000000241033 FONDOS INSUFICIENTES                    0000000000000000000000000
BZMOV00000000000000000000000000202309072023090700000000004158256532R000000905904413CBCONSUMO CELULAR CLARO                                                000000000000000001000000000000000001340300000000000005056765ELMO RAMOS                    MARCELA DE RAMOS                             000000000000000000000XDIRCUE00000000000000000000241033 FONDOS INSUFICIENTES                    0000000000000000000000000
BZMOV00000000000000000000000000202309072023090700000000004158399619R000000928887595CBCONSUMO CELULAR CLARO                                                000000000000000001000000000000000001340400000000000002653194ELMO RAMOS                    MARCELA DE RAMOS                             000000000000000000000XDIRCUE00000000000000000000241033 FONDOS INSUFICIENTES                    0000000000000000000000000
BZMOV00000000000000000000000000202309072023090700000000004159093330R000001711939353CBCONSUMO CELULAR CLARO                                                000000000000000001000000000000000001340300000000005005032845PEDRO DANILO NARVAEZ MEJIA                                                 000000000000000000000XDIRCUE00000000000000000000241033 FONDOS INSUFICIENTES                    0000000000000000000000000
BZMOV00000000000000000000000000202309072023090700000000004159216775R000001714706692CBCONSUMO CELULAR CLARO                                                000000000000000001000000000000000001340400000000000931101124PEDRO DANILO NARVAEZ MEJIA                                                 000000000000000000000XDIRCUE00000000000000000000241057 CUENTA CANCELADA/CERRADA                0000000000000000000000000
BZMOV00000000000000000000000000202309072023090700000000004159670928R000001719412015CBCONSUMO CELULAR CLARO                                                000000000000000001000000000000000001340400000000001621022765JULIO DANIEL CASTRO BUSTAMANTE                                             000000000000000000000XDIRCUE00000000000000000000241033 FONDOS INSUFICIENTES                    0000000000000000000000000
BZMOV00000000000000000000000000202309072023090700000000004159710340R000000920455391CBCONSUMO CELULAR CLARO                                                000000000000000001000000000000000001340400000000000001507903SILVA MUNOZ RAUL EDUARDO                                                   000000000000000000000XDIRCUE00000000000000000000241033 FONDOS INSUFICIENTES                    0000000000000000000000000
BZMOV00000000000000000000000000202309072023090700000000004159739352R000000901440271CBCONSUMO CELULAR CLARO                                                000000000000000001000000000000000001340300000000000035041593MERCEDES RUIZ LARA                                                         000000000000000000000XDIRCUE00000000000000000000241033 FONDOS INSUFICIENTES                    0000000000000000000000000
BZMOV00000000000000000000000000202309072023090700000000004159917409R000000930653431CBCONSUMO CELULAR CLARO                                                000000000000000001000000000000000001340400000000000002861864MERCEDES RUIZ LARA                                                         000000000000000000000XDIRCUE00000000000000000000241033 FONDOS INSUFICIENTES                    0000000000000000000000000
BZMOV00000000000000000000000000202309072023090700000000004160586877R000001706696174CBCONSUMO CELULAR CLARO                                                000000000000000001000000000000000001340400000000000001124343DOMINGO DE JESUS MARTILLO TORRES                                           000000000000000000000XDIRCUE00000000000000000000241033 FONDOS INSUFICIENTES                    0000000000000000000000000
BZMOV00000000000000000000000000202309072023090700000000004161041037R000000912278868CBCONSUMO CELULAR CLARO                                                000000000000000001000000000000000001340400000000000941172504EDISON AUGUSTO REYES HUAYAMAVE                                             000000000000000000000XDIRCUE00000000000000000000241033 FONDOS INSUFICIENTES                    0000000000000000000000000
BZMOV00000000000000000000000000202309072023090700000000004161045854R000000921569109CBCONSUMO CELULAR CLARO                                                000000000000000001000000000000000001340400000000000941044204CHRISTIAN JOSE ZEA REYES                                                   000000000000000000000XDIRCUE00000000000000000000241033 FONDOS INSUFICIENTES                    0000000000000000000000000
BZMOV00000000000000000000000000202309072023090700000000004161077071R000000907719140CBCONSUMO CELULAR CLARO                                                000000000000000001000000000000000001340400000000001101028686CHRISTIAN JOSE ZEA REYES                                                   000000000000000000000XDIRCUE00000000000000000000241033 FONDOS INSUFICIENTES                    0000000000000000000000000
BZMOV00000000000000000000000000202309072023090700000000004161089841R000000925156630CBCONSUMO CELULAR CLARO                                                000000000000000001000000000000000001340400000000000941090954VICTOR MANUEL COQUE VELASCO                                                000000000000000000000XDIRCUE00000000000000000000241033 FONDOS INSUFICIENTES                    0000000000000000000000000
BZMOV00000000000000000000000000202309072023090700000000004161103994R000000922026414CBCONSUMO CELULAR CLARO                                                000000000000000001000000000000000001340300000000000875024754VICTOR MANUEL COQUE VELASCO                                                000000000000000000000XDIRCUE00000000000000000000241033 FONDOS INSUFICIENTES                    0000000000000000000000000
BZMOV00000000000000000000000000202309072023090700000000004161122122R000000916506793CBCONSUMO CELULAR CLARO                                                000000000000000001000000000000000001340400000000000921061168PEGGY LUCY CAVAGNARO HERNANDEZ                                             000000000000000000000XDIRCUE00000000000000000000241033 FONDOS INSUFICIENTES                    0000000000000000000000000
BZMOV00000000000000000000000000202309072023090700000000004161126879R000000918731100CBCONSUMO CELULAR CLARO                                                000000000000000001000000000000000001340400000000000941025402BURGOS LOY JULIO CESAR                                                     000000000000000000000XDIRCUE00000000000000000000241033 FONDOS INSUFICIENTES                    0000000000000000000000000
BZMOV00000000000000000000000000202309072023090700000000004161137692R000000918742735CBCONSUMO CELULAR CLARO                                                000000000000000001000000000000000001340400000000000941164722CECILIA MARIANA VALLE LITUMA                                               000000000000000000000XDIRCUE00000000000000000000241033 FONDOS INSUFICIENTES                    0000000000000000000000000
BZMOV00000000000000000000000000202309072023090700000000004161181706R000001712246444CBCONSUMO CELULAR CLARO                                                000000000000000001000000000000000001340300000000001635008159CECILIA MARIANA VALLE LITUMA                                               000000000000000000000XDIRCUE00000000000000000000241033 FONDOS INSUFICIENTES                    0000000000000000000000000
BZMOV00000000000000000000000000202309072023090700000000004161314727R000000802286138CBCONSUMO CELULAR CLARO                                                000000000000000001000000000000000001340400000000001301069378CECILIA MARIANA VALLE LITUMA                                               000000000000000000000XDIRCUE00000000000000000000241033 FONDOS INSUFICIENTES                    0000000000000000000000000
BZMOV00000000000000000000000000202309072023090700000000004161315811R000001301497077CBCONSUMO CELULAR CLARO                                                000000000000000001000000000000000001340400000000000821039707PINCAY BARCO JOSE FABIAN                                                   000000000000000000000XDIRCUE00000000000000000000241033 FONDOS INSUFICIENTES                    0000000000000000000000000
BZMOV00000000000000000000000000202309072023090700000000004161316053R000000920134590CBCONSUMO CELULAR CLARO                                                000000000000000001000000000000000001340300000000000935021088PINCAY BARCO JOSE FABIAN                                                   000000000000000000000XDIRCUE00000000000000000000241033 FONDOS INSUFICIENTES                    0000000000000000000000000
BZMOV00000000000000000000000000202309072023090700000000004161337740R000001308053626CBCONSUMO CELULAR CLARO                                                000000000000000001000000000000000001340300000000001005029427VICTOR RAMON HERRERA ACOSTA                                                000000000000000000000XDIRCUE00000000000000000000241033 FONDOS INSUFICIENTES                    0000000000000000000000000
BZMOV00000000000000000000000000202309072023090700000000004161342737R000000916908767CBCONSUMO CELULAR CLARO                                                000000000000000001000000000000000001340400000000000051562129JOHANNA PAULINA BALSECA BARBER                                             000000000000000000000XDIRCUE00000000000000000000241033 FONDOS INSUFICIENTES                    0000000000000000000000000
BZMOV00000000000000000000000000202309072023090700000000004161352775R000000924970312CBCONSUMO CELULAR CLARO                                                000000000000000001000000000000000001340400000000000021583545JOHANNA PAULINA BALSECA BARBER                                             000000000000000000000XDIRCUE00000000000000000000241033 FONDOS INSUFICIENTES                    0000000000000000000000000
BZMOV00000000000000000000000000202309072023090700000000004161359864R000001709440497CBCONSUMO CELULAR CLARO                                                000000000000000001000000000000000001340300000000005065003814JAVIER PAEZ                                                                000000000000000000000XDIRCUE00000000000000000000241033 FONDOS INSUFICIENTES                    0000000000000000000000000
BZMOV00000000000000000000000000202309072023090700000000004161379396R000000915466155CBCONSUMO CELULAR CLARO                                                000000000000000001000000000000000001340400000000000931177354GABRIEL VINICIO CHERRES VASQUEZ                                            000000000000000000000XDIRCUE00000000000000000000241033 FONDOS INSUFICIENTES                    0000000000000000000000000
BZMOV00000000000000000000000000202309072023090700000000004161384062R000000953358785CBCONSUMO CELULAR CLARO                                                000000000000000001000000000000000001340300000000000915007493ABBAS HUSEIN ALASAD                                                        000000000000000000000XDIRCUE00000000000000000000241033 FONDOS INSUFICIENTES                    0000000000000000000000000
BZMOV00000000000000000000000000202309072023090700000000004161387459R000000300555471CBCONSUMO CELULAR CLARO                                                000000000000000001000000000000000001340400000000004011140711WILSON ALFREDO VELEZ CRESPO                                                000000000000000000000XDIRCUE00000000000000000000241033 FONDOS INSUFICIENTES                    0000000000000000000000000
BZMOV00000000000000000000000000202309072023090700000000004161390236R000000705792976CBCONSUMO CELULAR CLARO                                                000000000000000001000000000000000001340400000000000002482488WILSON ALFREDO VELEZ CRESPO                                                000000000000000000000XDIRCUE00000000000000000000241033 FONDOS INSUFICIENTES                    0000000000000000000000000
BZMOV00000000000000000000000000202309072023090700000000004161413281R000000925779779CBCONSUMO CELULAR CLARO                                                000000000000000001000000000000000001340400000000000002355508MARIA JOSE JIMENEZ LEON                                                    000000000000000000000XDIRCUE00000000000000000000241033 FONDOS INSUFICIENTES                    0000000000000000000000000
BZMOV00000000000000000000000000202309072023090700000000004161425720R000001717170318CBCONSUMO CELULAR CLARO                                                000000000000000001000000000000000001340300000000005055011850PAUL PAREDES SANCHEZ                                                       000000000000000000000XDIRCUE00000000000000000000241033 FONDOS INSUFICIENTES                    0000000000000000000000000
BZMOV00000000000000000000000000202309072023090700000000004161589852R000000918844432CBCONSUMO CELULAR CLARO                                                000000000000000001000000000000000001340400000000000981124260DIANA DEL PILAR GASPAR CEDENO                                              000000000000000000000XDIRCUE00000000000000000000241033 FONDOS INSUFICIENTES                    0000000000000000000000000
BZMOV00000000000000000000000000202309072023090700000000004161624639R000000923556153CBCONSUMO CELULAR CLARO                                                000000000000000001000000000000000001340400000000000841068499JOSE ROBERTO VALVERDE NARANJO                                              000000000000000000000XDIRCUE00000000000000000000241033 FONDOS INSUFICIENTES                    0000000000000000000000000
BZMOV00000000000000000000000000202309072023090700000000004161625126R000001312432469CBCONSUMO CELULAR CLARO                                                000000000000000001000000000000000001340400000000000911198574JOSE ROBERTO VALVERDE NARANJO                                              000000000000000000000XDIRCUE00000000000000000000241033 FONDOS INSUFICIENTES                    0000000000000000000000000
BZMOV00000000000000000000000000202309072023090700000000004161629547R000000913791901CBCONSUMO CELULAR CLARO                                                000000000000000001000000000000000001340400000000000851197825JOSE ROBERTO VALVERDE NARANJO                                              000000000000000000000XDIRCUE00000000000000000000241033 FONDOS INSUFICIENTES                    0000000000000000000000000
BZMOV00000000000000000000000000202309072023090700000000004161651134R000000931208854CBCONSUMO CELULAR CLARO                                                000000000000000001000000000000000001340400000000000002405574MAURO ALEJANDRO MACKAY SANYER                                              000000000000000000000XDIRCUE00000000000000000000241033 FONDOS INSUFICIENTES                    0000000000000000000000000
BZMOV00000000000000000000000000202309072023090700000000004161890402R000000918283292CBCONSUMO CELULAR CLARO                                                000000000000000001000000000000000001340300000000000865017027ING. FERNANDO MORAN A                                                      000000000000000000000XDIRCUE00000000000000000000241033 FONDOS INSUFICIENTES                    0000000000000000000000000
BZMOV00000000000000000000000000202309072023090700000000004161894531R000000927645408CBCONSUMO CELULAR CLARO                                                000000000000000001000000000000000001340400000000000041169207ING. FERNANDO MORAN A                                                      000000000000000000000XDIRCUE00000000000000000000241033 FONDOS INSUFICIENTES                    0000000000000000000000000
BZMOV00000000000000000000000000202309072023090700000000004162079640R000001710707090CBCONSUMO CELULAR CLARO                                                000000000000000001000000000000000001340400000000000021326311WAGNER VOLTAIRE CEVALLOS ZAMBR                                             000000000000000000000XDIRCUE00000000000000000000241033 FONDOS INSUFICIENTES                    0000000000000000000000000
BZMOV00000000000000000000000000202309072023090700000000004162085107R000001718866310CBCONSUMO CELULAR CLARO                                                000000000000000001000000000000000001340400000000005001663977VANESSA FERNANDA VALLEJO FLORES                                            000000000000000000000XDIRCUE00000000000000000000241033 FONDOS INSUFICIENTES                    0000000000000000000000000
BZMOV00000000000000000000000000202309072023090700000000004162085289R000000917511693CBCONSUMO CELULAR CLARO                                                000000000000000001000000000000000001340400000000000981055002WILSON RAMON MIRABA MAGALLAN                                               000000000000000000000XDIRCUE00000000000000000000241033 FONDOS INSUFICIENTES                    0000000000000000000000000
BZMOV00000000000000000000000000202309072023090700000000004162158205R000001104813876CBCONSUMO CELULAR CLARO                                                000000000000000001000000000000000001340400000000000911236842WILSON RAMON MIRABA MAGALLAN                                               000000000000000000000XDIRCUE00000000000000000000241033 FONDOS INSUFICIENTES                    0000000000000000000000000
BZMOV00000000000000000000000000202309072023090700000000004162189898R000001721929956CBCONSUMO CELULAR CLARO                                                000000000000000001000000000000000001340300000000005005087733MILTON MONCADA                                                             000000000000000000000XDIRCUE00000000000000000000241033 FONDOS INSUFICIENTES                    0000000000000000000000000
BZMOV00000000000000000000000000202309072023090700000000004162300503R000000906780309CBCONSUMO CELULAR CLARO                                                000000000000000001000000000000000001340300000000000045008087MIRELLA NARCISA DE FATIMA TAGL                                             000000000000000000000XDIRCUE00000000000000000000241033 FONDOS INSUFICIENTES                    0000000000000000000000000
BZMOV00000000000000000000000000202309072023090700000000004162304609R000000102234150CBCONSUMO CELULAR CLARO                                                000000000000000001000000000000000001340400000000004011157007LUIS SANTIAGO TACURI MALLA                                                 000000000000000000000XDIRCUE00000000000000000000241033 FONDOS INSUFICIENTES                    0000000000000000000000000
BZMOV00000000000000000000000000202309072023090700000000004162307773R000000923237382CBCONSUMO CELULAR CLARO                                                000000000000000001000000000000000001340400000000000021558349LUIS SANTIAGO TACURI MALLA                                                 000000000000000000000XDIRCUE00000000000000000000241033 FONDOS INSUFICIENTES                    0000000000000000000000000
BZMOV00000000000000000000000000202309072023090700000000004162311213R000001703287696CBCONSUMO CELULAR CLARO                                                000000000000000001000000000000000001340300000000001105030776RIGOBERTO HERRERA MIRANDA                                                  000000000000000000000XDIRCUE00000000000000000000241033 FONDOS INSUFICIENTES                    0000000000000000000000000
BZMOV00000000000000000000000000202309072023090700000000004162315330R000000911817799CBCONSUMO CELULAR CLARO                                                000000000000000001000000000000000001340400000000000041009169SANDRA PATRICIA VILLACIS GARCIA                                            000000000000000000000XDIRCUE00000000000000000000241033 FONDOS INSUFICIENTES                    0000000000000000000000000
BZMOV00000000000000000000000000202309072023090700000000004162385681R000001715848170CBCONSUMO CELULAR CLARO                                                000000000000000001000000000000000001340400000000000941097684WILLIAM JOSE VIVEROS GUDIO                                                000000000000000000000XDIRCUE00000000000000000000241033 FONDOS INSUFICIENTES                    0000000000000000000000000
BZMOV00000000000000000000000000202309072023090700000000004162412690R000000960512697CBCONSUMO CELULAR CLARO                                                000000000000000001000000000000000001340400000000000981283620WILLIAM JOSE VIVEROS GUDIO                                                000000000000000000000XDIRCUE00000000000000000000241033 FONDOS INSUFICIENTES                    0000000000000000000000000
BZMOV00000000000000000000000000202309072023090700000000004162415674R000001304657339CBCONSUMO CELULAR CLARO                                                000000000000000001000000000000000001340300000000001105028197WILLIAM JOSE VIVEROS GUDIO                                                000000000000000000000XDIRCUE00000000000000000000241033 FONDOS INSUFICIENTES                    0000000000000000000000000
BZMOV00000000000000000000000000202309072023090700000000004162433903R000000918713579CBCONSUMO CELULAR CLARO                                                000000000000000001000000000000000001340400000000000841190511WILLIAM JOSE VIVEROS GUDIO                                                000000000000000000000XDIRCUE00000000000000000000241033 FONDOS INSUFICIENTES                    0000000000000000000000000
BZMOV00000000000000000000000000202309072023090700000000004162452182R000000800592891CBCONSUMO CELULAR CLARO                                                000000000000000001000000000000000001340400000000000851145035VILMAR ENRIQUE ACHILIE VALENCI                                             000000000000000000000XDIRCUE00000000000000000000241033 FONDOS INSUFICIENTES                    0000000000000000000000000
BZMOV00000000000000000000000000202309072023090700000000004162476112R000000918833799CBCONSUMO CELULAR CLARO                                                000000000000000001000000000000000001340400000000000861061015AGUEDA JANET FRANCO FRANCO                                                 000000000000000000000XDIRCUE00000000000000000000241033 FONDOS INSUFICIENTES                    0000000000000000000000000
BZMOV00000000000000000000000000202309072023090700000000004162624258R000000927129106CBCONSUMO CELULAR CLARO                                                000000000000000001000000000000000001340400000000000002981580AGUEDA JANET FRANCO FRANCO                                                 000000000000000000000XDIRCUE00000000000000000000241033 FONDOS INSUFICIENTES                    0000000000000000000000000
BZMOV00000000000000000000000000202309072023090700000000004162751150R000000926713678CBCONSUMO CELULAR CLARO                                                000000000000000001000000000000000001340400000000000002489008JOSEPH ISRAEL VANEGAS OLEAS                                                000000000000000000000XDIRCUE00000000000000000000241033 FONDOS INSUFICIENTES                    0000000000000000000000000
BZMOV00000000000000000000000000202309072023090700000000004162769096R000001712741188CBCONSUMO CELULAR CLARO                                                000000000000000001000000000000000001340300000000001645004567DANNY CRUZ                                                                 000000000000000000000XDIRCUE00000000000000000000241033 FONDOS INSUFICIENTES                    0000000000000000000000000
BZMOV00000000000000000000000000202309072023090700000000004162793386R000000926238312CBCONSUMO CELULAR CLARO                                                000000000000000001000000000000000001340400000000000981507974ANA ELIZABETH CEVALLOS DUEAS                                              000000000000000000000XDIRCUE00000000000000000000241033 FONDOS INSUFICIENTES                    0000000000000000000000000
BZMOV00000000000000000000000000202309072023090700000000004162980629R000001314358613CBCONSUMO CELULAR CLARO                                                000000000000000001000000000000000001340400000000001101169884ANA ELIZABETH CEVALLOS DUEAS                                              000000000000000000000XDIRCUE00000000000000000000241033 FONDOS INSUFICIENTES                    0000000000000000000000000
BZMOV00000000000000000000000000202309072023090700000000004163318503R000000802021709CBCONSUMO CELULAR CLARO                                                000000000000000001000000000000000001340400000000001301079770ANA ELIZABETH CEVALLOS DUEAS                                              000000000000000000000XDIRCUE00000000000000000000241033 FONDOS INSUFICIENTES                    0000000000000000000000000
BZMOV00000000000000000000000000202309072023090700000000004163349652R000000908519036CBCONSUMO CELULAR CLARO                                                000000000000000001000000000000000001340300000000007005005230FERNANDO CHACA V.             TALLER TIM                                   000000000000000000000XDIRCUE00000000000000000000241033 FONDOS INSUFICIENTES                    0000000000000000000000000
BZMOV00000000000000000000000000202309072023090700000000004163351067R000001716510688CBCONSUMO CELULAR CLARO                                                000000000000000001000000000000000001340300000000005015006649ISMAEL CAMPOS MANGUI                                                       000000000000000000000XDIRCUE00000000000000000000241033 FONDOS INSUFICIENTES                    0000000000000000000000000
BZMOV00000000000000000000000000202309072023090700000000004163363905R000001002719241CBCONSUMO CELULAR CLARO                                                000000000000000001000000000000000001340400000000005021178873ISMAEL CAMPOS MANGUI                                                       000000000000000000000XDIRCUE00000000000000000000241033 FONDOS INSUFICIENTES                    0000000000000000000000000
BZMOV00000000000000000000000000202309072023090700000000004163366178R000000929001246CBCONSUMO CELULAR CLARO                                                000000000000000001000000000000000001340400000000000971024016ISMAEL CAMPOS MANGUI                                                       000000000000000000000XDIRCUE00000000000000000000241033 FONDOS INSUFICIENTES                    0000000000000000000000000
BZMOV00000000000000000000000000202309072023090700000000004163373705R000001205568189CBCONSUMO CELULAR CLARO                                                000000000000000001000000000000000001340400000000002051102569ISMAEL CAMPOS MANGUI                                                       000000000000000000000XDIRCUE00000000000000000000241033 FONDOS INSUFICIENTES                    0000000000000000000000000
BZMOV00000000000000000000000000202309072023090700000000004163374354R000000704168269CBCONSUMO CELULAR CLARO                                                000000000000000001000000000000000001340300000000001755003311ISMAEL CAMPOS MANGUI                                                       000000000000000000000XDIRCUE00000000000000000000241033 FONDOS INSUFICIENTES                    0000000000000000000000000
BZMOV00000000000000000000000000202309072023090700000000004163451835R000000920891017CBCONSUMO CELULAR CLARO                                                000000000000000001000000000000000001340400000000001751038832ISMAEL CAMPOS MANGUI                                                       000000000000000000000XDIRCUE00000000000000000000241033 FONDOS INSUFICIENTES                    0000000000000000000000000
BZMOV00000000000000000000000000202309072023090700000000004163486024R000000926868894CBCONSUMO CELULAR CLARO                                                000000000000000001000000000000000001340300000000000025063433BISMARCK HARO PAZMIO                                                      000000000000000000000XDIRCUE00000000000000000000241033 FONDOS INSUFICIENTES                    0000000000000000000000000
BZMOV00000000000000000000000000202309072023090700000000004163491875R000000914823612CBCONSUMO CELULAR CLARO                                                000000000000000001000000000000000001340400000000000871112749BISMARCK HARO PAZMIO                                                      000000000000000000000XDIRCUE00000000000000000000241033 FONDOS INSUFICIENTES                    0000000000000000000000000
BZMOV00000000000000000000000000202309072023090700000000004163499824R000000925636094CBCONSUMO CELULAR CLARO                                                000000000000000001000000000000000001340400000000000971004954BISMARCK HARO PAZMIO                                                      000000000000000000000XDIRCUE00000000000000000000241033 FONDOS INSUFICIENTES                    0000000000000000000000000
BZMOV00000000000000000000000000202309072023090700000000004163518861R000000901563262CBCONSUMO CELULAR CLARO                                                000000000000000001000000000000000001340300000000000015012649HUGO GARZON LOPEZ                                                          000000000000000000000XDIRCUE00000000000000000000241033 FONDOS INSUFICIENTES                    0000000000000000000000000
BZMOV00000000000000000000000000202309072023090700000000004163537531R000002300463318CBCONSUMO CELULAR CLARO                                                000000000000000001000000000000000001340300000000001015014909KARINA MONAR                                                               000000000000000000000XDIRCUE00000000000000000000241033 FONDOS INSUFICIENTES                    0000000000000000000000000
BZMOV00000000000000000000000000202309072023090700000000004163544904R000001201456678CBCONSUMO CELULAR CLARO                                                000000000000000001000000000000000001340300000000000865014523WASHINGTON VERA CARRIEL                                                    000000000000000000000XDIRCUE00000000000000000000241033 FONDOS INSUFICIENTES                    0000000000000000000000000
BZMOV00000000000000000000000000202309072023090700000000004163569548R000001720708963CBCONSUMO CELULAR CLARO                                                000000000000000001000000000000000001340400000000005001305505WASHINGTON VERA CARRIEL                                                    000000000000000000000XDIRCUE00000000000000000000241033 FONDOS INSUFICIENTES                    0000000000000000000000000
BZMOV00000000000000000000000000202309072023090700000000004163570689R000001704402765CBCONSUMO CELULAR CLARO                                                000000000000000001000000000000000001340300000000004015023759FABIAN EDMUNDO SARMIENTO SARMIENTO                                         000000000000000000000XDIRCUE00000000000000000000241033 FONDOS INSUFICIENTES                    0000000000000000000000000
BZMOV00000000000000000000000000202309072023090700000000004163588193R000000922750112CBCONSUMO CELULAR CLARO                                                000000000000000001000000000000000001340400000000000061266907FABIAN EDMUNDO SARMIENTO SARMIENTO                                         000000000000000000000XDIRCUE00000000000000000000241033 FONDOS INSUFICIENTES                    0000000000000000000000000
BZMOV00000000000000000000000000202309072023090700000000004163588709R000000910939651CBCONSUMO CELULAR CLARO                                                000000000000000001000000000000000001340400000000000031344459FABIAN EDMUNDO SARMIENTO SARMIENTO                                         000000000000000000000XDIRCUE00000000000000000000241033 FONDOS INSUFICIENTES                    0000000000000000000000000
BZMOV00000000000000000000000000202309072023090700000000004163598886R000000940775174CBCONSUMO CELULAR CLARO                                                000000000000000001000000000000000001340400000000000921101364LINDAO JORDAN JEFFERSON ANTONIO                                            000000000000000000000XDIRCUE00000000000000000000241033 FONDOS INSUFICIENTES                    0000000000000000000000000
BZMOV00000000000000000000000000202309072023090700000000004163666522R000000940776131CBCONSUMO CELULAR CLARO                                                000000000000000001000000000000000001340400000000000861159827LINDAO JORDAN JEFFERSON ANTONIO                                            000000000000000000000XDIRCUE00000000000000000000241033 FONDOS INSUFICIENTES                    0000000000000000000000000
BZMOV00000000000000000000000000202309072023090700000000004163668800R000000906579842CBCONSUMO CELULAR CLARO                                                000000000000000001000000000000000001340300000000000005287819FRECIA NARCISA GONZALEZ HOLGUIN                                            000000000000000000000XDIRCUE00000000000000000000241033 FONDOS INSUFICIENTES                    0000000000000000000000000
BZMOV00000000000000000000000000202309072023090700000000004163670537R000000922492087CBCONSUMO CELULAR CLARO                                                000000000000000001000000000000000001340400000000000061258537GILBER JHONATAN BRAVO CASTILLO                                             000000000000000000000XDIRCUE00000000000000000000241033 FONDOS INSUFICIENTES                    0000000000000000000000000
BZMOV00000000000000000000000000202309072023090700000000004163757490R000000922068044CBCONSUMO CELULAR CLARO                                                000000000000000001000000000000000001340400000000000002712136MAYDETH MARITZA VILLAO ALVARADO                                            000000000000000000000XDIRCUE00000000000000000000241033 FONDOS INSUFICIENTES                    0000000000000000000000000
BZMOV00000000000000000000000000202309072023090700000000004163762120R000001718406059CBCONSUMO CELULAR CLARO                                                000000000000000001000000000000000001340400000000001661003911MAYDETH MARITZA VILLAO ALVARADO                                            000000000000000000000XDIRCUE00000000000000000000241033 FONDOS INSUFICIENTES                    0000000000000000000000000
BZMOV00000000000000000000000000202309072023090700000000004163769436R000001201456678CBCONSUMO CELULAR CLARO                                                000000000000000001000000000000000001340300000000000865014523WASHINGTON VERA CARRIEL                                                    000000000000000000000XDIRCUE00000000000000000000241033 FONDOS INSUFICIENTES                    0000000000000000000000000
BZMOV00000000000000000000000000202309072023090700000000004163873139R000000923785505CBCONSUMO CELULAR CLARO                                                000000000000000001000000000000000001340400000000006001066403WASHINGTON VERA CARRIEL                                                    000000000000000000000XDIRCUE00000000000000000000241033 FONDOS INSUFICIENTES                    0000000000000000000000000
BZMOV00000000000000000000000000202309072023090700000000004163877872R000002450089293CBCONSUMO CELULAR CLARO                                                000000000000000001000000000000000001340400000000000051756965ROBERTO BENITO SABINO CHEDRAUI                                             000000000000000000000XDIRCUE00000000000000000000241057 CUENTA CANCELADA/CERRADA                0000000000000000000000000
BZMOV00000000000000000000000000202309072023090700000000004163884432R000000925975286CBCONSUMO CELULAR CLARO                                                000000000000000001000000000000000001340400000000000911127454ROBERTO BENITO SABINO CHEDRAUI                                             000000000000000000000XDIRCUE00000000000000000000241033 FONDOS INSUFICIENTES                    0000000000000000000000000
BZMOV00000000000000000000000000202309072023090700000000004163898742R000000925117723CBCONSUMO CELULAR CLARO                                                000000000000000001000000000000000001340400000000000921121124WALTER POSLIGUA VELEZ                                                      000000000000000000000XDIRCUE00000000000000000000241033 FONDOS INSUFICIENTES                    0000000000000000000000000
BZMOV00000000000000000000000000202309072023090700000000004163997327R000001310076227CBCONSUMO CELULAR CLARO                                                000000000000000001000000000000000001340400000000000002134468JIMENA FRANCO                                                              000000000000000000000XDIRCUE00000000000000000000241033 FONDOS INSUFICIENTES                    0000000000000000000000000
BZMOV00000000000000000000000000202309072023090700000000004163997338R000001722188461CBCONSUMO CELULAR CLARO                                                000000000000000001000000000000000001340400000000005021136243JIMENA FRANCO                                                              000000000000000000000XDIRCUE00000000000000000000241033 FONDOS INSUFICIENTES                    0000000000000000000000000
BZMOV00000000000000000000000000202309072023090700000000004164156493R000000940356876CBCONSUMO CELULAR CLARO                                                000000000000000001000000000000000001340400000000000981380936JIMENA FRANCO                                                              000000000000000000000XDIRCUE00000000000000000000241033 FONDOS INSUFICIENTES                    0000000000000000000000000
BZMOV00000000000000000000000000202309072023090700000000004164158167R000000913374161CBCONSUMO CELULAR CLARO                                                000000000000000001000000000000000001340400000000000001235587FREDDY OSWALDO BAQUERIZO SANTILLAN                                         000000000000000000000XDIRCUE00000000000000000000241033 FONDOS INSUFICIENTES                    0000000000000000000000000
BZMOV00000000000000000000000000202309072023090700000000004164159883R000000930907761CBCONSUMO CELULAR CLARO                                                000000000000000001000000000000000001340400000000000021343697VICTOR ISAUL JURADO CORNEJO                                                000000000000000000000XDIRCUE00000000000000000000241033 FONDOS INSUFICIENTES                    0000000000000000000000000
BZMOV00000000000000000000000000202309072023090700000000004164163614R000000920876307CBCONSUMO CELULAR CLARO                                                000000000000000001000000000000000001340400000000000002048172MERA BERNARDINO JOSE ANGEL                                                 000000000000000000000XDIRCUE00000000000000000000241033 FONDOS INSUFICIENTES                    0000000000000000000000000
BZMOV00000000000000000000000000202309072023090700000000004164165058R000000926787151CBCONSUMO CELULAR CLARO                                                000000000000000001000000000000000001340400000000000851222191MERA BERNARDINO JOSE ANGEL                                                 000000000000000000000XDIRCUE00000000000000000000241033 FONDOS INSUFICIENTES                    0000000000000000000000000
BZMOV00000000000000000000000000202309072023090700000000004164323891R000001103379903CBCONSUMO CELULAR CLARO                                                000000000000000001000000000000000001340400000000000041133675CARLOS ALBERTO JARAMILLO BECERRA                                           000000000000000000000XDIRCUE00000000000000000000241033 FONDOS INSUFICIENTES                    0000000000000000000000000
BZMOV00000000000000000000000000202309072023090700000000004164354477R000001202609838CBCONSUMO CELULAR CLARO                                                000000000000000001000000000006595001340400000000000061354753JUSTO GERMAN ONOFRE TOMALA                                                 000000000000000000000PDIRCUE00000000000000000000200000 TRANSACCION EXITOSA                     0000000000000000000000000
BZMOV00000000000000000000000000202309072023090700000000004164441073R000000919492173CBCONSUMO CELULAR CLARO                                                000000000000000001000000000000000001340400000000000911262062JUSTO GERMAN ONOFRE TOMALA                                                 000000000000000000000XDIRCUE00000000000000000000241033 FONDOS INSUFICIENTES                    0000000000000000000000000
BZMOV00000000000000000000000000202309072023090700000000004164448672R000001718206509CBCONSUMO CELULAR CLARO                                                000000000000000001000000000000000001340400000000001021019359MIGUEL ANGEL RICARDO AVELINO                                               000000000000000000000XDIRCUE00000000000000000000241033 FONDOS INSUFICIENTES                    0000000000000000000000000
BZMOV00000000000000000000000000202309072023090700000000004164584851R000001713508321CBCONSUMO CELULAR CLARO                                                000000000000000001000000000000000001340400000000000021314877MARGARITA ROSARIO GUARANDA REM                                             000000000000000000000XDIRCUE00000000000000000000241033 FONDOS INSUFICIENTES                    0000000000000000000000000
BZMOV00000000000000000000000000202309072023090700000000004164589017R000001300602479CBCONSUMO CELULAR CLARO                                                000000000000000001000000000000000001340400000000000871069139MARGARITA ROSARIO GUARANDA REM                                             000000000000000000000XDIRCUE00000000000000000000241033 FONDOS INSUFICIENTES                    0000000000000000000000000
BZMOV00000000000000000000000000202309072023090700000000004164655893R000001350240410CBCONSUMO CELULAR CLARO                                                000000000000000001000000000000000001340400000000003001174775MARGARITA ROSARIO GUARANDA REM                                             000000000000000000000XDIRCUE00000000000000000000241033 FONDOS INSUFICIENTES                    0000000000000000000000000
BZMOV00000000000000000000000000202309072023090700000000004164659824R000000902503358CBCONSUMO CELULAR CLARO                                                000000000000000001000000000000000001340300000000000855002589CARLOS SALCEDO ZAMORA                                                      000000000000000000000XDIRCUE00000000000000000000241033 FONDOS INSUFICIENTES                    0000000000000000000000000
BZMOV00000000000000000000000000202309072023090700000000004164666524R000000928669274CBCONSUMO CELULAR CLARO                                                000000000000000001000000000000000001340400000000000861109691CARLOS SALCEDO ZAMORA                                                      000000000000000000000XDIRCUE00000000000000000000241033 FONDOS INSUFICIENTES                    0000000000000000000000000
BZMOV00000000000000000000000000202309072023090700000000004164720480R000000950411975CBCONSUMO CELULAR CLARO                                                000000000000000001000000000000000001340400000000000002637080JEAN CARLOS CHICAIZA MONROY                                                000000000000000000000XDIRCUE00000000000000000000241033 FONDOS INSUFICIENTES                    0000000000000000000000000
BZMOV00000000000000000000000000202309072023090700000000004164739050R000000919734822CBCONSUMO CELULAR CLARO                                                000000000000000001000000000000000001340400000000000001510059OSCAR RUBEN BAQUE ALVARADO                                                 000000000000000000000XDIRCUE00000000000000000000241033 FONDOS INSUFICIENTES                    0000000000000000000000000
BZMOV00000000000000000000000000202309072023090700000000004164739916R000001311434342CBCONSUMO CELULAR CLARO                                                000000000000000001000000000000000001340400000000000002746990ONA DOMINGUEZ ANDREA DEL ROCIO                                             000000000000000000000XDIRCUE00000000000000000000241033 FONDOS INSUFICIENTES                    0000000000000000000000000
BZMOV00000000000000000000000000202309072023090700000000004164777929R000000907447791CBCONSUMO CELULAR CLARO                                                000000000000000001000000000000000001340300000000001675000157DOMINIQUE CALLE CARRION                                                    000000000000000000000XDIRCUE00000000000000000000241033 FONDOS INSUFICIENTES                    0000000000000000000000000
BZMOV00000000000000000000000000202309072023090700000000004164849475R000000904263886CBCONSUMO CELULAR CLARO                                                000000000000000001000000000000000001340400000000005021159631DOMINIQUE CALLE CARRION                                                    000000000000000000000XDIRCUE00000000000000000000241033 FONDOS INSUFICIENTES                    0000000000000000000000000
BZMOV00000000000000000000000000202309072023090700000000004164854333R000000908082506CBCONSUMO CELULAR CLARO                                                000000000000000001000000000000000001340300000000000025004403ING PATRICIO VALDEZ REQUENA                                                000000000000000000000XDIRCUE00000000000000000000230352 SERVICIO SUSPENDIDO POR CLIENTE         0000000000000000000000000
BZMOV00000000000000000000000000202309072023090700000000004164858013R000000923480339CBCONSUMO CELULAR CLARO                                                000000000000000001000000000000000001340400000000000002694310ING PATRICIO VALDEZ REQUENA                                                000000000000000000000XDIRCUE00000000000000000000241057 CUENTA CANCELADA/CERRADA                0000000000000000000000000
BZMOV00000000000000000000000000202309072023090700000000004164858613R000000915183123CBCONSUMO CELULAR CLARO                                                000000000000000001000000000000000001340300000000000945020226ING PATRICIO VALDEZ REQUENA                                                000000000000000000000XDIRCUE00000000000000000000241033 FONDOS INSUFICIENTES                    0000000000000000000000000
BZMOV00000000000000000000000000202309072023090700000000004164864328R000000926434002CBCONSUMO CELULAR CLARO                                                000000000000000001000000000000000001340400000000000003511343ROMERO RIVAS FRANK JONATHAN                                                000000000000000000000XDIRCUE00000000000000000000241033 FONDOS INSUFICIENTES                    0000000000000000000000000
BZMOV00000000000000000000000000202309072023090700000000004164904698R000001309084125CBCONSUMO CELULAR CLARO                                                000000000000000001000000000000000001340400000000001011044113ANDREA MARGARITA ZAMBRANO MEND                                             000000000000000000000XDIRCUE00000000000000000000241033 FONDOS INSUFICIENTES                    0000000000000000000000000
BZMOV00000000000000000000000000202309072023090700000000004164908338R000000905317350CBCONSUMO CELULAR CLARO                                                000000000000000001000000000000000001340300000000000025016987LUIS MORA SILVA                                                            000000000000000000000XDIRCUE00000000000000000000241033 FONDOS INSUFICIENTES                    0000000000000000000000000
BZMOV00000000000000000000000000202309072023090700000000004164909656R000000917965568CBCONSUMO CELULAR CLARO                                                000000000000000001000000000000000001340400000000000911343132LUIS MORA SILVA                                                            000000000000000000000XDIRCUE00000000000000000000241033 FONDOS INSUFICIENTES                    0000000000000000000000000
BZMOV00000000000000000000000000202309072023090700000000004165097421R000000926753419CBCONSUMO CELULAR CLARO                                                000000000000000001000000000000000001340400000000007001128189LUIS MORA SILVA                                                            000000000000000000000XDIRCUE00000000000000000000241033 FONDOS INSUFICIENTES                    0000000000000000000000000
BZMOV00000000000000000000000000202309072023090700000000004165099715R000000921986535CBCONSUMO CELULAR CLARO                                                000000000000000001000000000000000001340400000000000041156919ANGELICA MARIA MANOBANDA RAMOS                                             000000000000000000000XDIRCUE00000000000000000000241033 FONDOS INSUFICIENTES                    0000000000000000000000000
BZMOV00000000000000000000000000202309072023090700000000004165183874R000000919949263CBCONSUMO CELULAR CLARO                                                000000000000000001000000000000000001340400000000000871054479ANGELICA MARIA MANOBANDA RAMOS                                             000000000000000000000XDIRCUE00000000000000000000241033 FONDOS INSUFICIENTES                    0000000000000000000000000
BZMOV00000000000000000000000000202309072023090700000000004165226317R000000923307235CBCONSUMO CELULAR CLARO                                                000000000000000001000000000000000001340400000000000911028424JORGE FRANCISCO LEON SANTANA                                               000000000000000000000XDIRCUE00000000000000000000241033 FONDOS INSUFICIENTES                    0000000000000000000000000
BZMOV00000000000000000000000000202309072023090700000000004165226589R000000103748000CBCONSUMO CELULAR CLARO                                                000000000000000001000000000000000001340300000000004075006990JORGE FRANCISCO LEON SANTANA                                               000000000000000000000XDIRCUE00000000000000000000241033 FONDOS INSUFICIENTES                    0000000000000000000000000
BZMOV00000000000000000000000000202309072023090700000000004165227166R000001714880976CBCONSUMO CELULAR CLARO                                                000000000000000001000000000000000001340400000000001631064897JORGE FRANCISCO LEON SANTANA                                               000000000000000000000XDIRCUE00000000000000000000241033 FONDOS INSUFICIENTES                    0000000000000000000000000
BZMOV00000000000000000000000000202309072023090700000000004165325122R000001308448768CBCONSUMO CELULAR CLARO                                                000000000000000001000000000000000001340400000000000021452953JORGE FRANCISCO LEON SANTANA                                               000000000000000000000XDIRCUE00000000000000000000241033 FONDOS INSUFICIENTES                    0000000000000000000000000
BZMOV00000000000000000000000000202309072023090700000000004165435429R000002400019341CBCONSUMO CELULAR CLARO                                                000000000000000001000000000000000001340400000000007001142091JORGE FRANCISCO LEON SANTANA                                               000000000000000000000XDIRCUE00000000000000000000241033 FONDOS INSUFICIENTES                    0000000000000000000000000
BZMOV00000000000000000000000000202309072023090700000000004165452616R000001703140192CBCONSUMO CELULAR CLARO                                                000000000000000001000000000000000001340400000000001631073879JORGE FRANCISCO LEON SANTANA                                               000000000000000000000XDIRCUE00000000000000000000241057 CUENTA CANCELADA/CERRADA                0000000000000000000000000
BZMOV00000000000000000000000000202309072023090700000000004165462788R000000803717701CBCONSUMO CELULAR CLARO                                                000000000000000001000000000000000001340400000000005021192955JORGE FRANCISCO LEON SANTANA                                               000000000000000000000XDIRCUE00000000000000000000241033 FONDOS INSUFICIENTES                    0000000000000000000000000
