BZCABR00179125123700100852303REC       20230911130532MOVIoperadorRe000849000000001056178
BZMOV00000000000000000000000000202309072023090700000000000000726970C000000923440838CB0069438650                                                           000000000000000001000000000000000001340400000000000021280409GOMEZ VERA JAMILA MICHELLE                                                 000000000000000000000XDIRCUE00000000000000000000241033 FONDOS INSUFICIENTES                    0000000000000000000000000
BZMOV00000000000000000000000000202309072023090700000000000000048288R000992588942001CB0069413434                                                           000000000000000001000000000000000001340300000000000005231373PRODUCTORA MARVIVO S.A.                                                    000000000000000000000XDIRCUE00000000000000000000231017 FONDOS INSUFICIENTES                    0000000000000000000000000
BZMOV00000000000000000000000000202309072023090700000000000000742750C000001704470192CB0068501549                                                           000000000000000001000000000000000001340300000000000935017115MARCOS HUGO VITERI ANDRADE                                                 000000000000000000000XDIRCUE00000000000000000000231017 FONDOS INSUFICIENTES                    0000000000000000000000000
BZMOV00000000000000000000000000202309072023090700000000000005799057R000923642193001CB0058605741                                                           000000000000000001000000000000000001340300000000000845032468MICHAEL EDUARDO MALDONADO HERRERA                                          000000000000000000000XDIRCUE00000000000000000000231017 FONDOS INSUFICIENTES                    0000000000000000000000000
BZMOV00000000000000000000000000202309072023090700000000000001398394C000000914681879CB0068914982                                                           000000000000000001000000000000000001340400000000000001899425ALEXIS ALBERTO GUANIN VILLALVA                                             000000000000000000000XDIRCUE00000000000000000000241033 FONDOS INSUFICIENTES                    0000000000000000000000000
BZMOV00000000000000000000000000202309072023090700000000000000761906C000000921185542CB0068968818                                                           000000000000000001000000000000000001340400000000000961017102GABRIELA FERNANDA ORTIZ CARRAN                                             000000000000000000000XDIRCUE00000000000000000000241057 CUENTA DE AHORROS CERRADA               0000000000000000000000000
BZMOV00000000000000000000000000202309072023090700000000000017183133R000992803231001CB0066424349                                                           000000000000000001000000000000000001340300000000000005265769RANCHO DON FELIX S.A.                                                      000000000000000000000XDIRCUE00000000000000000000231017 FONDOS INSUFICIENTES                    0000000000000000000000000
BZMOV00000000000000000000000000202309072023090700000000000017183133R000992803231001CB0067879880                                                           000000000000000001000000000000000001340300000000000005265769RANCHO DON FELIX S.A.                                                      000000000000000000000XDIRCUE00000000000000000000231017 FONDOS INSUFICIENTES                    0000000000000000000000000
BZMOV00000000000000000000000000202309072023090700000000000000714824R000992829567001CB0067859108                                                           000000000000000001000000000000000001340300000000000925035358VEINTIMIGLIASA S.A.                                                        000000000000000000000XDIRCUE00000000000000000000231017 FONDOS INSUFICIENTES                    0000000000000000000000000
BZMOV00000000000000000000000000202309072023090700000000000000604531R000904115672001CB0069097864                                                           000000000000000001000000000000000001340300000000000065017494LEONARDO VICENTE JIMENEZ                                                   000000000000000000000XDIRCUE00000000000000000000231017 FONDOS INSUFICIENTES                    0000000000000000000000000
BZMOV00000000000000000000000000202309072023090700000000000000761906C000000921185542CB0069109601                                                           000000000000000001000000000000000001340400000000000961017102GABRIELA FERNANDA ORTIZ CARRAN                                             000000000000000000000XDIRCUE00000000000000000000241057 CUENTA DE AHORROS CERRADA               0000000000000000000000000
BZMOV00000000000000000000000000202309072023090700000000000000046376R000791725828001CB0069294765                                                           000000000000000001000000000000000001340400000000000002076412  FRUTIBONI S.A.                                                           000000000000000000000XDIRCUE00000000000000000000241057 CUENTA DE AHORROS CERRADA               0000000000000000000000000
BZMOV00000000000000000000000000202309072023090700000000000019552780R001792735017001CB0068831127                                                           000000000000000001000000000000000001340400000000005051163927  FRUTIBONI S.A.                                                           000000000000000000000XDIRCUE00000000000000000000241033 FONDOS INSUFICIENTES                    0000000000000000000000000
BZMOV00000000000000000000000000202309072023090700000000000000144549R000992667516001CB0068816616                                                           000000000000000001000000000000000001340300000000000005225497  WINELAGO S.A.                                                            000000000000000000000XDIRCUE00000000000000000000231017 FONDOS INSUFICIENTES                    0000000000000000000000000
BZMOV00000000000000000000000000202309072023090700000000000013144961C000000912418449CB0043014184                                                           000000000000000001000000000000000001340300000000000875012120AB. JHONNY SANDOVAL           BAQUERIZO.                                   000000000000000000000XDIRCUE00000000000000000000231017 FONDOS INSUFICIENTES                    0000000000000000000000000
BZMOV00000000000000000000000000202309072023090700000000000000044904C000000906188974CB0067510581                                                           000000000000000001000000000000000001340300000000000005165364MARIO  LA MOTA CARCHI    O    CELESTE MACIAS                               000000000000000000000XDIRCUE00000000000000000000231017 FONDOS INSUFICIENTES                    0000000000000000000000000
BZMOV00000000000000000000000000202309072023090700000000000000403029R001302141443001CB0045622615                                                           000000000000000001000000000000000001340400000000000945020383MARIO  LA MOTA CARCHI    O    CELESTE MACIAS                               000000000000000000000XDIRCUE00000000000000000000218755 CUENTA NO EXISTE                        0000000000000000000000000
BZMOV00000000000000000000000000202309072023090700000000000018887676C000000919358564CB0063466328                                                           000000000000000001000000000000000001340400000000001721069480MARIO  LA MOTA CARCHI    O    CELESTE MACIAS                               000000000000000000000XDIRCUE00000000000000000000241033 FONDOS INSUFICIENTES                    0000000000000000000000000
BZMOV00000000000000000000000000202309072023090700000000000010734097C000001802988434CB0063456314                                                           000000000000000001000000000000000001340400000000001211054795MARIO  LA MOTA CARCHI    O    CELESTE MACIAS                               000000000000000000000XDIRCUE00000000000000000000241033 FONDOS INSUFICIENTES                    0000000000000000000000000
BZMOV00000000000000000000000000202309072023090700000000000001398394C000000914681879CB0068182020                                                           000000000000000001000000000000000001340400000000000001899425ALEXIS ALBERTO GUANIN VILLALVA                                             000000000000000000000XDIRCUE00000000000000000000241033 FONDOS INSUFICIENTES                    0000000000000000000000000
BZMOV00000000000000000000000000202309072023090700000000000000761906C000000921185542CB0068868531                                                           000000000000000001000000000000000001340400000000000961017102GABRIELA FERNANDA ORTIZ CARRAN                                             000000000000000000000XDIRCUE00000000000000000000241057 CUENTA DE AHORROS CERRADA               0000000000000000000000000
BZMOV00000000000000000000000000202309072023090700000000000000196957C000000900486168CB0058229308                                                           000000000000000001000000000000000001340300000000000015002978LEON BRIONES ORTEGA           GRAFICAS LEON*****                           000000000000000000000XDIRCUE00000000000000000000231017 FONDOS INSUFICIENTES                    0000000000000000000000000
BZMOV00000000000000000000000000202309072023090700000000000011704457C000000922005046CB0068612888                                                           000000000000000001000000000000000001340400000000000001774709MATAMOROS LITARDO NARCISA VANESSA                                          000000000000000000000XDIRCUE00000000000000000000241033 FONDOS INSUFICIENTES                    0000000000000000000000000
BZMOV00000000000000000000000000202309072023090700000000000017361427R000993197076001CB0056106753                                                           000000000000000001000000000000000001340300000000000065055410MATAMOROS LITARDO NARCISA VANESSA                                          000000000000000000000XDIRCUE00000000000000000000231017 FONDOS INSUFICIENTES                    0000000000000000000000000
BZMOV00000000000000000000000000202309072023090700000000000000575196C000000921274023CB0057477600                                                           000000000000000001000000000000000001340300000000000845024612MERCIAUTO S.A.                                                             000000000000000000000XDIRCUE00000000000000000000231017 FONDOS INSUFICIENTES                    0000000000000000000000000
BZMOV00000000000000000000000000202309072023090700000000000005799057R000923642193001CB0060612188                                                           000000000000000001000000000000000001340300000000000845032468MICHAEL EDUARDO MALDONADO HERRERA                                          000000000000000000000XDIRCUE00000000000000000000231017 FONDOS INSUFICIENTES                    0000000000000000000000000
BZMOV00000000000000000000000000202309072023090700000000000020819118C000000917104705CB0069213150                                                           000000000000000001000000000000000001340400000000000931271472MICHAEL EDUARDO MALDONADO HERRERA                                          000000000000000000000XDIRCUE00000000000000000000241033 FONDOS INSUFICIENTES                    0000000000000000000000000
BZMOV00000000000000000000000000202309072023090700000000000005799057R000923642193001CB0062302506                                                           000000000000000001000000000000000001340300000000000845032468MICHAEL EDUARDO MALDONADO HERRERA                                          000000000000000000000XDIRCUE00000000000000000000231017 FONDOS INSUFICIENTES                    0000000000000000000000000
BZMOV00000000000000000000000000202309072023090700000000000000355987C000000301074043CB0058525226                                                           000000000000000001000000000000000001340300000000004005011234MICHAEL EDUARDO MALDONADO HERRERA                                          000000000000000000000XDIRCUE00000000000000000000231017 FONDOS INSUFICIENTES                    0000000000000000000000000
BZMOV00000000000000000000000000202309072023090700000000000000044904C000000906188974CB0062271906                                                           000000000000000001000000000000000001340300000000000005165364MARIO  LA MOTA CARCHI    O    CELESTE MACIAS                               000000000000000000000XDIRCUE00000000000000000000231017 FONDOS INSUFICIENTES                    0000000000000000000000000
BZMOV00000000000000000000000000202309072023090700000000000018722455C000001724559685CB0058850738                                                           000000000000000001000000000000000001340400000000000052639874MARIO  LA MOTA CARCHI    O    CELESTE MACIAS                               000000000000000000000XDIRCUE00000000000000000000218755 CUENTA NO EXISTE                        0000000000000000000000000
BZMOV00000000000000000000000000202309072023090700000000000018378716C000000927793141CB0057452664                                                           000000000000000001000000000000000001340400000000001712032015MARIO  LA MOTA CARCHI    O    CELESTE MACIAS                               000000000000000000000XDIRCUE00000000000000000000218755 CUENTA NO EXISTE                        0000000000000000000000000
BZMOV00000000000000000000000000202309072023090700000000000018747475C000001712132289CB0059087300                                                           000000000000000001000000000000000001340400000000000869123598MARIO  LA MOTA CARCHI    O    CELESTE MACIAS                               000000000000000000000XDIRCUE00000000000000000000218755 CUENTA NO EXISTE                        0000000000000000000000000
BZMOV00000000000000000000000000202309072023090700000000000000716858C000000923381511CB0042423155                                                           000000000000000001000000000000000001340300000000000845035700MARIO  LA MOTA CARCHI    O    CELESTE MACIAS                               000000000000000000000XDIRCUE00000000000000000000231017 FONDOS INSUFICIENTES                    0000000000000000000000000
BZMOV00000000000000000000000000202309072023090700000000000018615606C000000919279182CB0059000629                                                           000000000000000001000000000000000001340400000000000941463281MARIO  LA MOTA CARCHI    O    CELESTE MACIAS                               000000000000000000000XDIRCUE00000000000000000000218755 CUENTA NO EXISTE                        0000000000000000000000000
BZMOV00000000000000000000000000202309072023090700000000000016681456C000000917710543CB0044061664                                                           000000000000000001000000000000000001340300000000000885021022JUANA JUDITH ANDRADE VELASQUEZ                                             000000000000000000000XDIRCUE00000000000000000000231017 FONDOS INSUFICIENTES                    0000000000000000000000000
BZMOV00000000000000000000000000202309072023090700000000000005009902C000001709980112CB0068593409                                                           000000000000000001000000000000000001340300000000005055028289JUANA JUDITH ANDRADE VELASQUEZ                                             000000000000000000000XDIRCUE00000000000000000000231017 FONDOS INSUFICIENTES                    0000000000000000000000000
BZMOV00000000000000000000000000202309072023090700000000000018477532C000000958447401CB0057010031                                                           000000000000000001000000000000000001340400000000001715201203JUANA JUDITH ANDRADE VELASQUEZ                                             000000000000000000000XDIRCUE00000000000000000000218755 CUENTA NO EXISTE                        0000000000000000000000000
BZMOV00000000000000000000000000202309072023090700000000000018615606C000000919279182CB0059000628                                                           000000000000000001000000000000000001340400000000000941463281JUANA JUDITH ANDRADE VELASQUEZ                                             000000000000000000000XDIRCUE00000000000000000000218755 CUENTA NO EXISTE                        0000000000000000000000000
BZMOV00000000000000000000000000202309072023090700000000000018472323R001312340514001CB0056810837                                                           000000000000000001000000000000000001340400000000000923512508JUANA JUDITH ANDRADE VELASQUEZ                                             000000000000000000000XDIRCUE00000000000000000000218755 CUENTA NO EXISTE                        0000000000000000000000000
BZMOV00000000000000000000000000202309072023090700000000000018532318C000000916345176CB0057284780                                                           000000000000000001000000000000000001340400000000001712302103JUANA JUDITH ANDRADE VELASQUEZ                                             000000000000000000000XDIRCUE00000000000000000000218755 CUENTA NO EXISTE                        0000000000000000000000000
BZMOV00000000000000000000000000202309072023090700000000000017772772C000000921904298CB0055556836                                                           000000000000000001000000000000000001340400000000000981174402JUANA JUDITH ANDRADE VELASQUEZ                                             000000000000000000000XDIRCUE00000000000000000000241033 FONDOS INSUFICIENTES                    0000000000000000000000000
BZMOV00000000000000000000000000202309072023090700000000000000843451R000992531142001CB0053356184                                                           000000000000000001000000000000000001340300000000000925024491JUANA JUDITH ANDRADE VELASQUEZ                                             000000000000000000000XDIRCUE00000000000000000000231017 FONDOS INSUFICIENTES                    0000000000000000000000000
BZMOV00000000000000000000000000202309072023090700000000000018692647C000000911261964CB0058802623                                                           000000000000000001000000000000000001340400000000000823659874JUANA JUDITH ANDRADE VELASQUEZ                                             000000000000000000000XDIRCUE00000000000000000000218755 CUENTA NO EXISTE                        0000000000000000000000000
BZMOV00000000000000000000000000202309072023090700000000000000843451R000992531142001CB0053356179                                                           000000000000000001000000000000000001340300000000000925024491JUANA JUDITH ANDRADE VELASQUEZ                                             000000000000000000000XDIRCUE00000000000000000000231017 FONDOS INSUFICIENTES                    0000000000000000000000000
BZMOV00000000000000000000000000202309072023090700000000000018702374C000000917405078CB0058754923                                                           000000000000000001000000000000000001340400000000000085967412JUANA JUDITH ANDRADE VELASQUEZ                                             000000000000000000000XDIRCUE00000000000000000000218755 CUENTA NO EXISTE                        0000000000000000000000000
BZMOV00000000000000000000000000202309072023090700000000000018757358C000000900030537CB0058892681                                                           000000000000000001000000000000000001340400000000001712302012JUANA JUDITH ANDRADE VELASQUEZ                                             000000000000000000000XDIRCUE00000000000000000000218755 CUENTA NO EXISTE                        0000000000000000000000000
BZMOV00000000000000000000000000202309072023090700000000000018692342C000001750397612CB0058724646                                                           000000000000000001000000000000000001340400000000000023564125JUANA JUDITH ANDRADE VELASQUEZ                                             000000000000000000000XDIRCUE00000000000000000000218755 CUENTA NO EXISTE                        0000000000000000000000000
BZMOV00000000000000000000000000202309072023090700000000000018147207C000000955359526CB0058688626                                                           000000000000000001000000000000000001340400000000001712302102JUANA JUDITH ANDRADE VELASQUEZ                                             000000000000000000000XDIRCUE00000000000000000000218755 CUENTA NO EXISTE                        0000000000000000000000000
BZMOV00000000000000000000000000202309072023090700000000000018532318C000000916345176CB0057284793                                                           000000000000000001000000000000000001340400000000001712302103JUANA JUDITH ANDRADE VELASQUEZ                                             000000000000000000000XDIRCUE00000000000000000000218755 CUENTA NO EXISTE                        0000000000000000000000000
BZMOV00000000000000000000000000202309072023090700000000000018532318C000000916345176CB0057284795                                                           000000000000000001000000000000000001340400000000001712302103JUANA JUDITH ANDRADE VELASQUEZ                                             000000000000000000000XDIRCUE00000000000000000000218755 CUENTA NO EXISTE                        0000000000000000000000000
BZMOV00000000000000000000000000202309072023090700000000000018532318C000000916345176CB0057284781                                                           000000000000000001000000000000000001340400000000001712302103JUANA JUDITH ANDRADE VELASQUEZ                                             000000000000000000000XDIRCUE00000000000000000000218755 CUENTA NO EXISTE                        0000000000000000000000000
BZMOV00000000000000000000000000202309072023090700000000000018757358C000000900030537CB0058892685                                                           000000000000000001000000000000000001340400000000001712302012JUANA JUDITH ANDRADE VELASQUEZ                                             000000000000000000000XDIRCUE00000000000000000000218755 CUENTA NO EXISTE                        0000000000000000000000000
BZMOV00000000000000000000000000202309072023090700000000000018378676R000924523921001CB0056648761                                                           000000000000000001000000000000000001340400000000000925162154JUANA JUDITH ANDRADE VELASQUEZ                                             000000000000000000000XDIRCUE00000000000000000000218755 CUENTA NO EXISTE                        0000000000000000000000000
BZMOV00000000000000000000000000202309072023090700000000000018378676R000924523921001CB0056648754                                                           000000000000000001000000000000000001340400000000000925162154JUANA JUDITH ANDRADE VELASQUEZ                                             000000000000000000000XDIRCUE00000000000000000000218755 CUENTA NO EXISTE                        0000000000000000000000000
BZMOV00000000000000000000000000202309072023090700000000000018532318C000000916345176CB0057284785                                                           000000000000000001000000000000000001340400000000001712302103JUANA JUDITH ANDRADE VELASQUEZ                                             000000000000000000000XDIRCUE00000000000000000000218755 CUENTA NO EXISTE                        0000000000000000000000000
BZMOV00000000000000000000000000202309072023090700000000000018417448C000001306304054CB0056906584                                                           000000000000000001000000000000000001340400000000001712015802JUANA JUDITH ANDRADE VELASQUEZ                                             000000000000000000000XDIRCUE00000000000000000000218755 CUENTA NO EXISTE                        0000000000000000000000000
BZMOV00000000000000000000000000202309072023090700000000000016585801C000000910470285CB0043550858                                                           000000000000000001000000000000000001340300000000000025045680SANDRA CASILARI SANTA CRUZ                                                 000000000000000000000XDIRCUE00000000000000000000231017 FONDOS INSUFICIENTES                    0000000000000000000000000
BZMOV00000000000000000000000000202309072023090700000000000018632543C000000904258001CB0058940902                                                           000000000000000001000000000000000001340400000000001715255683SANDRA CASILARI SANTA CRUZ                                                 000000000000000000000XDIRCUE00000000000000000000218755 CUENTA NO EXISTE                        0000000000000000000000000
BZMOV00000000000000000000000000202309072023090700000000000000127902C000000904061744CB0043851039                                                           000000000000000001000000000000000001340400000000000001055691LUIS CARTAGENA HERRERA                                                     000000000000000000000XDIRCUE00000000000000000000241033 FONDOS INSUFICIENTES                    0000000000000000000000000
BZMOV00000000000000000000000000202309072023090700000000000018615606C000000919279182CB0059000632                                                           000000000000000001000000000000000001340400000000000941463281LUIS CARTAGENA HERRERA                                                     000000000000000000000XDIRCUE00000000000000000000218755 CUENTA NO EXISTE                        0000000000000000000000000
BZMOV00000000000000000000000000202309072023090700000000000000403029R001302141443001CB0046716503                                                           000000000000000001000000000000000001340400000000000945020383LUIS CARTAGENA HERRERA                                                     000000000000000000000XDIRCUE00000000000000000000218755 CUENTA NO EXISTE                        0000000000000000000000000
BZMOV00000000000000000000000000202309072023090700000000000000403029R001302141443001CB0048559890                                                           000000000000000001000000000000000001340400000000000945020383LUIS CARTAGENA HERRERA                                                     000000000000000000000XDIRCUE00000000000000000000218755 CUENTA NO EXISTE                        0000000000000000000000000
BZMOV00000000000000000000000000202309072023090700000000000000046376R000791725828001CB0069208832                                                           000000000000000001000000000000000001340400000000000002076412  FRUTIBONI S.A.                                                           000000000000000000000XDIRCUE00000000000000000000241057 CUENTA DE AHORROS CERRADA               0000000000000000000000000
BZMOV00000000000000000000000000202309072023090700000000000018615606C000000919279182CB0059000612                                                           000000000000000001000000000000000001340400000000000941463281  FRUTIBONI S.A.                                                           000000000000000000000XDIRCUE00000000000000000000218755 CUENTA NO EXISTE                        0000000000000000000000000
BZMOV00000000000000000000000000202309072023090700000000000018632543C000000904258001CB0058940898                                                           000000000000000001000000000000000001340400000000001715255683  FRUTIBONI S.A.                                                           000000000000000000000XDIRCUE00000000000000000000218755 CUENTA NO EXISTE                        0000000000000000000000000
BZMOV00000000000000000000000000202309072023090700000000000018615606C000000919279182CB0059000623                                                           000000000000000001000000000000000001340400000000000941463281  FRUTIBONI S.A.                                                           000000000000000000000XDIRCUE00000000000000000000218755 CUENTA NO EXISTE                        0000000000000000000000000
BZMOV00000000000000000000000000202309072023090700000000000000716858C000000923381511CB0042423143                                                           000000000000000001000000000000000001340300000000000845035700  FRUTIBONI S.A.                                                           000000000000000000000XDIRCUE00000000000000000000231017 FONDOS INSUFICIENTES                    0000000000000000000000000
BZMOV00000000000000000000000000202309072023090700000000000018378716C000000927793141CB0057452675                                                           000000000000000001000000000000000001340400000000001712032015  FRUTIBONI S.A.                                                           000000000000000000000XDIRCUE00000000000000000000218755 CUENTA NO EXISTE                        0000000000000000000000000
BZMOV00000000000000000000000000202309072023090700000000000018477532C000000958447401CB0057010027                                                           000000000000000001000000000000000001340400000000001715201203  FRUTIBONI S.A.                                                           000000000000000000000XDIRCUE00000000000000000000218755 CUENTA NO EXISTE                        0000000000000000000000000
BZMOV00000000000000000000000000202309072023090700000000000000098648R000992642483001CB0056427255                                                           000000000000000001000000000000000001340300000000000005218332KINGSELSA S.A.                                                             000000000000000000000XDIRCUE000000000000000000002303527SERVICIO SUSPENDIDO POR CLIENTE         0000000000000000000000000
BZMOV00000000000000000000000000202309072023090700000000000017166167C000001758673121CB0069368896                                                           000000000000000001000000000000000001340400000000001631112303WILLIAMS FELIPE LOVERA ESCALONA                                            000000000000000000000XDIRCUE00000000000000000000241033 FONDOS INSUFICIENTES                    0000000000000000000000000
BZMOV00000000000000000000000000202309072023090700000000000005013751C000000801666520CB0069258336                                                           000000000000000001000000000000000001340400000000005001463803CABEZAS PASCAL SIMON BOLIVAR                                               000000000000000000000XDIRCUE00000000000000000000241033 FONDOS INSUFICIENTES                    0000000000000000000000000
BZMOV00000000000000000000000000202309072023090700000000000011549138C000000919652644CB0069369407                                                           000000000000000001000000000000000001340400000000001741068520CABEZAS PASCAL SIMON BOLIVAR                                               000000000000000000000XDIRCUE00000000000000000000241033 FONDOS INSUFICIENTES                    0000000000000000000000000
BZMOV00000000000000000000000000202309072023090700000000000004868771C000000925306599CB0069256398                                                           000000000000000001000000000000000001340400000000000002384730GINGER MIREYA GAVILANES GARCIA                                             000000000000000000000XDIRCUE00000000000000000000241033 FONDOS INSUFICIENTES                    0000000000000000000000000
BZMOV00000000000000000000000000202309072023090700000000000000692516C000000925028441CB0066856538                                                           000000000000000001000000000000000001340300000000000955002607ERNESTO RIAÃ‘O LOZANO                                                      000000000000000000000XDIRCUE00000000000000000000231017 FONDOS INSUFICIENTES                    0000000000000000000000000
BZMOV00000000000000000000000000202309072023090700000000000000044904C000000906188974CB0067207410                                                           000000000000000001000000000000000001340300000000000005165364MARIO  LA MOTA CARCHI    O    CELESTE MACIAS                               000000000000000000000XDIRCUE00000000000000000000231017 FONDOS INSUFICIENTES                    0000000000000000000000000
BZMOV00000000000000000000000000202309072023090700000000000008144027C000000930667704CB0066857766                                                           000000000000000001000000000000000001340300000000000945036683MARIO  LA MOTA CARCHI    O    CELESTE MACIAS                               000000000000000000000XDIRCUE00000000000000000000231017 FONDOS INSUFICIENTES                    0000000000000000000000000
BZMOV00000000000000000000000000202309072023090700000000000005163866C000000924572696CB0069417515                                                           000000000000000001000000000000000001340400000000000951137250VIVIANA PAULINA SANTILLAN CORONEL                                          000000000000000000000XDIRCUE00000000000000000000241057 CUENTA DE AHORROS CERRADA               0000000000000000000000000
BZMOV00000000000000000000000000202309072023090700000000000000044904C000000906188974CB0064606564                                                           000000000000000001000000000000000001340300000000000005165364MARIO  LA MOTA CARCHI    O    CELESTE MACIAS                               000000000000000000000XDIRCUE00000000000000000000231017 FONDOS INSUFICIENTES                    0000000000000000000000000
BZMOV00000000000000000000000000202309072023090700000000000010734097C000001802988434CB0065059543                                                           000000000000000001000000000000000001340400000000001211054795MARIO  LA MOTA CARCHI    O    CELESTE MACIAS                               000000000000000000000XDIRCUE00000000000000000000241033 FONDOS INSUFICIENTES                    0000000000000000000000000
BZMOV00000000000000000000000000202309072023090700000000000018867499R000993194050001CB0068709538                                                           000000000000000001000000000000000001340300000000000025073797SERVILABOCUP  S.A                                                          000000000000000000000XDIRCUE00000000000000000000231017 FONDOS INSUFICIENTES                    0000000000000000000000000
BZMOV00000000000000000000000000202309072023090700000000000003254528R000992938005001CB0068870021                                                           000000000000000001000000000000000001340300000000000005294093EFOTOMARX S.A.                                                             000000000000000000000XDIRCUE00000000000000000000231017 FONDOS INSUFICIENTES                    0000000000000000000000000
BZMOV00000000000000000000000000202309072023090700000000000000046376R000791725828001CB0069380193                                                           000000000000000001000000000000000001340400000000000002076412  FRUTIBONI S.A.                                                           000000000000000000000XDIRCUE00000000000000000000241057 CUENTA DE AHORROS CERRADA               0000000000000000000000000
BZMOV00000000000000000000000000202309072023090700000000000000753361C000000920828050CB0069381864                                                           000000000000000001000000000000000001340300000000000855007191PAOLO GUADAMUD CASTRO                                                      000000000000000000000XDIRCUE00000000000000000000231017 FONDOS INSUFICIENTES                    0000000000000000000000000
BZMOV00000000000000000000000000202309072023090700000000000000582443C000000909327140CB0068373002                                                           000000000000000001000000000000000001340300000000000865012291LUIS  JARAMILLO V.                                                         000000000000000000000XDIRCUE00000000000000000000231017 FONDOS INSUFICIENTES                    0000000000000000000000000
BZMOV00000000000000000000000000202309072023090700000000000000604531R000904115672001CB0069374771                                                           000000000000000001000000000000000001340300000000000065017494LEONARDO VICENTE JIMENEZ                                                   000000000000000000000XDIRCUE00000000000000000000231017 FONDOS INSUFICIENTES                    0000000000000000000000000
BZMOV00000000000000000000000000202309072023090700000000000000291803R000902506906001CB0069036524                                                           000000000000000001000000000000000001340300000000000025037346DR. JOSE SANCHEZ GARCIA                                                    000000000000000000000XDIRCUE00000000000000000000231017 FONDOS INSUFICIENTES                    0000000000000000000000000
BZMOV00000000000000000000000000202309072023090700000000000000144549R000992667516001CB0069002320                                                           000000000000000001000000000000000001340300000000000005225497  WINELAGO S.A.                                                            000000000000000000000XDIRCUE00000000000000000000231017 FONDOS INSUFICIENTES                    0000000000000000000000000
BZMOV00000000000000000000000000202309072023090700000000000001398394C000000914681879CB0069013860                                                           000000000000000001000000000000000001340400000000000001899425ALEXIS ALBERTO GUANIN VILLALVA                                             000000000000000000000XDIRCUE00000000000000000000241033 FONDOS INSUFICIENTES                    0000000000000000000000000
BZMOV00000000000000000000000000202309072023090700000000000000714824R000992829567001CB0068221894                                                           000000000000000001000000000000000001340300000000000925035358VEINTIMIGLIASA S.A.                                                        000000000000000000000XDIRCUE00000000000000000000231017 FONDOS INSUFICIENTES                    0000000000000000000000000
BZMOV00000000000000000000000000202309072023090700000000000003254528R000992938005001CB0068395131                                                           000000000000000001000000000000000001340300000000000005294093EFOTOMARX S.A.                                                             000000000000000000000XDIRCUE00000000000000000000231017 FONDOS INSUFICIENTES                    0000000000000000000000000
BZMOV00000000000000000000000000202309072023090700000000000017501352C000000921280061CB0058683013                                                           000000000000000001000000000000000001340400000000000025369874EFOTOMARX S.A.                                                             000000000000000000000XDIRCUE00000000000000000000218755 CUENTA NO EXISTE                        0000000000000000000000000
BZMOV00000000000000000000000000202309072023090700000000000018417448C000001306304054CB0056906578                                                           000000000000000001000000000000000001340400000000001712015802EFOTOMARX S.A.                                                             000000000000000000000XDIRCUE00000000000000000000218755 CUENTA NO EXISTE                        0000000000000000000000000
BZMOV00000000000000000000000000202309072023090700000000000008109617R000991208291001CB0069296320                                                           000000000000000001000000000000000001340300000000000002111673EFOTOMARX S.A.                                                             000000000000000000000XDIRCUE00000000000000000000218755 CUENTA NO EXISTE                        0000000000000000000000000
BZMOV00000000000000000000000000202309072023090700000000000018702374C000000917405078CB0058754921                                                           000000000000000001000000000000000001340400000000000085967412EFOTOMARX S.A.                                                             000000000000000000000XDIRCUE00000000000000000000218755 CUENTA NO EXISTE                        0000000000000000000000000
BZMOV00000000000000000000000000202309072023090700000000000018378676R000924523921001CB0056648760                                                           000000000000000001000000000000000001340400000000000925162154EFOTOMARX S.A.                                                             000000000000000000000XDIRCUE00000000000000000000218755 CUENTA NO EXISTE                        0000000000000000000000000
BZMOV00000000000000000000000000202309072023090700000000000018722455C000001724559685CB0058850724                                                           000000000000000001000000000000000001340400000000000052639874EFOTOMARX S.A.                                                             000000000000000000000XDIRCUE00000000000000000000218755 CUENTA NO EXISTE                        0000000000000000000000000
BZMOV00000000000000000000000000202309072023090700000000000017972706C000000915504989CB0054345284                                                           000000000000000001000000000000000001340400000000000002536984EFOTOMARX S.A.                                                             000000000000000000000XDIRCUE00000000000000000000218755 CUENTA NO EXISTE                        0000000000000000000000000
BZMOV00000000000000000000000000202309072023090700000000000018692342C000001750397612CB0058724642                                                           000000000000000001000000000000000001340400000000000023564125EFOTOMARX S.A.                                                             000000000000000000000XDIRCUE00000000000000000000218755 CUENTA NO EXISTE                        0000000000000000000000000
BZMOV00000000000000000000000000202309072023090700000000000011424175C000000928775709CB0057290853                                                           000000000000000001000000000000000001340400000000000941362122EFOTOMARX S.A.                                                             000000000000000000000XDIRCUE00000000000000000000241033 FONDOS INSUFICIENTES                    0000000000000000000000000
BZMOV00000000000000000000000000202309072023090700000000000016681456C000000917710543CB0044061665                                                           000000000000000001000000000000000001340300000000000885021022JUANA JUDITH ANDRADE VELASQUEZ                                             000000000000000000000XDIRCUE00000000000000000000231017 FONDOS INSUFICIENTES                    0000000000000000000000000
BZMOV00000000000000000000000000202309072023090700000000000018722455C000001724559685CB0058850731                                                           000000000000000001000000000000000001340400000000000052639874JUANA JUDITH ANDRADE VELASQUEZ                                             000000000000000000000XDIRCUE00000000000000000000218755 CUENTA NO EXISTE                        0000000000000000000000000
BZMOV00000000000000000000000000202309072023090700000000000018378676R000924523921001CB0056648756                                                           000000000000000001000000000000000001340400000000000925162154JUANA JUDITH ANDRADE VELASQUEZ                                             000000000000000000000XDIRCUE00000000000000000000218755 CUENTA NO EXISTE                        0000000000000000000000000
BZMOV00000000000000000000000000202309072023090700000000000018207407C000000958072480CB0066366979                                                           000000000000000001000000000000000001340400000000000003173161JUANA JUDITH ANDRADE VELASQUEZ                                             000000000000000000000XDIRCUE00000000000000000000241033 FONDOS INSUFICIENTES                    0000000000000000000000000
BZMOV00000000000000000000000000202309072023090700000000000018417448C000001306304054CB0056906574                                                           000000000000000001000000000000000001340400000000001712015802JUANA JUDITH ANDRADE VELASQUEZ                                             000000000000000000000XDIRCUE00000000000000000000218755 CUENTA NO EXISTE                        0000000000000000000000000
BZMOV00000000000000000000000000202309072023090700000000000018692342C000001750397612CB0058724655                                                           000000000000000001000000000000000001340400000000000023564125JUANA JUDITH ANDRADE VELASQUEZ                                             000000000000000000000XDIRCUE00000000000000000000218755 CUENTA NO EXISTE                        0000000000000000000000000
BZMOV00000000000000000000000000202309072023090700000000000018472323R001312340514001CB0056810858                                                           000000000000000001000000000000000001340400000000000923512508JUANA JUDITH ANDRADE VELASQUEZ                                             000000000000000000000XDIRCUE00000000000000000000218755 CUENTA NO EXISTE                        0000000000000000000000000
BZMOV00000000000000000000000000202309072023090700000000000018147207C000000955359526CB0058688628                                                           000000000000000001000000000000000001340400000000001712302102JUANA JUDITH ANDRADE VELASQUEZ                                             000000000000000000000XDIRCUE00000000000000000000218755 CUENTA NO EXISTE                        0000000000000000000000000
BZMOV00000000000000000000000000202309072023090700000000000018147207C000000955359526CB0057446788                                                           000000000000000001000000000000000001340400000000001712302102JUANA JUDITH ANDRADE VELASQUEZ                                             000000000000000000000XDIRCUE00000000000000000000218755 CUENTA NO EXISTE                        0000000000000000000000000
BZMOV00000000000000000000000000202309072023090700000000000016585801C000000910470285CB0043550856                                                           000000000000000001000000000000000001340300000000000025045680SANDRA CASILARI SANTA CRUZ                                                 000000000000000000000XDIRCUE00000000000000000000231017 FONDOS INSUFICIENTES                    0000000000000000000000000
BZMOV00000000000000000000000000202309072023090700000000000018477532C000000958447401CB0057010030                                                           000000000000000001000000000000000001340400000000001715201203SANDRA CASILARI SANTA CRUZ                                                 000000000000000000000XDIRCUE00000000000000000000218755 CUENTA NO EXISTE                        0000000000000000000000000
BZMOV00000000000000000000000000202309072023090700000000000018378545P000000GV2894879CB0057422853                                                           000000000000000001000000000000000001340400000000000023659874SANDRA CASILARI SANTA CRUZ                                                 000000000000000000000XDIRCUE00000000000000000000218755 CUENTA NO EXISTE                        0000000000000000000000000
BZMOV00000000000000000000000000202309072023090700000000000018692342C000001750397612CB0058724652                                                           000000000000000001000000000000000001340400000000000023564125SANDRA CASILARI SANTA CRUZ                                                 000000000000000000000XDIRCUE00000000000000000000218755 CUENTA NO EXISTE                        0000000000000000000000000
BZMOV00000000000000000000000000202309072023090700000000000000575196C000000921274023CB0053379792                                                           000000000000000001000000000000000001340300000000000845024612MERCIAUTO S.A.                                                             000000000000000000000XDIRCUE00000000000000000000231017 FONDOS INSUFICIENTES                    0000000000000000000000000
BZMOV00000000000000000000000000202309072023090700000000000018692342C000001750397612CB0058724640                                                           000000000000000001000000000000000001340400000000000023564125MERCIAUTO S.A.                                                             000000000000000000000XDIRCUE00000000000000000000218755 CUENTA NO EXISTE                        0000000000000000000000000
BZMOV00000000000000000000000000202309072023090700000000000017972706C000000915504989CB0054345278                                                           000000000000000001000000000000000001340400000000000002536984MERCIAUTO S.A.                                                             000000000000000000000XDIRCUE00000000000000000000218755 CUENTA NO EXISTE                        0000000000000000000000000
BZMOV00000000000000000000000000202309072023090700000000000018417448C000001306304054CB0056906576                                                           000000000000000001000000000000000001340400000000001712015802MERCIAUTO S.A.                                                             000000000000000000000XDIRCUE00000000000000000000218755 CUENTA NO EXISTE                        0000000000000000000000000
BZMOV00000000000000000000000000202309072023090700000000000018378545P000000GV2894879CB0057422867                                                           000000000000000001000000000000000001340400000000000023659874MERCIAUTO S.A.                                                             000000000000000000000XDIRCUE00000000000000000000218755 CUENTA NO EXISTE                        0000000000000000000000000
BZMOV00000000000000000000000000202309072023090700000000000018692647C000000911261964CB0058802630                                                           000000000000000001000000000000000001340400000000000823659874MERCIAUTO S.A.                                                             000000000000000000000XDIRCUE00000000000000000000218755 CUENTA NO EXISTE                        0000000000000000000000000
BZMOV00000000000000000000000000202309072023090700000000000018757358C000000900030537CB0058892671                                                           000000000000000001000000000000000001340400000000001712302012MERCIAUTO S.A.                                                             000000000000000000000XDIRCUE00000000000000000000218755 CUENTA NO EXISTE                        0000000000000000000000000
BZMOV00000000000000000000000000202309072023090700000000000018692647C000000911261964CB0058802644                                                           000000000000000001000000000000000001340400000000000823659874MERCIAUTO S.A.                                                             000000000000000000000XDIRCUE00000000000000000000218755 CUENTA NO EXISTE                        0000000000000000000000000
BZMOV00000000000000000000000000202309072023090700000000000000716858C000000923381511CB0042423144                                                           000000000000000001000000000000000001340300000000000845035700MERCIAUTO S.A.                                                             000000000000000000000XDIRCUE00000000000000000000231017 FONDOS INSUFICIENTES                    0000000000000000000000000
BZMOV00000000000000000000000000202309072023090700000000000019827621R000992645792001CB0069434324                                                           000000000000000001000000000000000001340300000000000005323803SUPERGOLD S.A.                                                             000000000000000000000XDIRCUE00000000000000000000231017 FONDOS INSUFICIENTES                    0000000000000000000000000
BZMOV00000000000000000000000000202309072023090700000000000000702837P000000079554562CB0069412889                                                           000000000000000001000000000000000001340300000000000855032009SUPERGOLD S.A.                                                             000000000000000000000XDIRCUE00000000000000000000231017 FONDOS INSUFICIENTES                    0000000000000000000000000
BZMOV00000000000000000000000000202309072023090700000000000000753361C000000920828050CB0069437859                                                           000000000000000001000000000000000001340300000000000855007191PAOLO GUADAMUD CASTRO                                                      000000000000000000000XDIRCUE00000000000000000000231017 FONDOS INSUFICIENTES                    0000000000000000000000000
BZMOV00000000000000000000000000202309072023090700000000000019792734C000000910055169CB0069437872                                                           000000000000000001000000000000000001340400000000000861111415CARLOS HUMBERTO ESCALANTE CASSAGNE                                         000000000000000000000XDIRCUE00000000000000000000241033 FONDOS INSUFICIENTES                    0000000000000000000000000
BZMOV00000000000000000000000000202309072023090700000000000012474429C000000910492503CB0069414034                                                           000000000000000001000000000000000001340300000000000005187340MARLON RAMSES ORNA MONTES                                                  000000000000000000000XDIRCUE00000000000000000000231017 FONDOS INSUFICIENTES                    0000000000000000000000000
BZMOV00000000000000000000000000202309072023090700000000000012059166C000000701663106CB0069434550                                                           000000000000000001000000000000000001340300000000000065048100ALBERTO RAFAEL VALAREZO CH.                                                000000000000000000000XDIRCUE00000000000000000000231017 FONDOS INSUFICIENTES                    0000000000000000000000000
BZMOV00000000000000000000000000202309072023090700000000000000621247C000000919027433CB0069413228                                                           000000000000000001000000000003920001340300000000001755003209ALBERTO RAFAEL VALAREZO CH.                                                000000000000000000000PDIRCUE000000000000000000002000000                                        0000000000000000000000000
BZMOV00000000000000000000000000202309072023090700000000000008144086C000000900424391CB0059581560                                                           000000000000000001000000000000000001340400000000000951051180LEONARDO ECUADOR BRIONES LOPEZ                                             000000000000000000000XDIRCUE000000000000000000002303527SERVICIO SUSPENDIDO POR CLIENTE         0000000000000000000000000
BZMOV00000000000000000000000000202309072023090700000000000020573747R000930397351001CB0069439887                                                           000000000000000001000000000000000001340400000000000855054861LEONARDO ECUADOR BRIONES LOPEZ                                             000000000000000000000XDIRCUE00000000000000000000218755 CUENTA NO EXISTE                        0000000000000000000000000
BZMOV00000000000000000000000000202309072023090700000000000000604531R000904115672001CB0069411810                                                           000000000000000001000000000000000001340300000000000065017494LEONARDO VICENTE JIMENEZ                                                   000000000000000000000XDIRCUE00000000000000000000231017 FONDOS INSUFICIENTES                    0000000000000000000000000
BZMOV00000000000000000000000000202309072023090700000000000000064643C000000921622775CB0069438368                                                           000000000000000001000000000000000001340300000000000875026967LEONARDO VICENTE JIMENEZ                                                   000000000000000000000XDIRCUE00000000000000000000231017 FONDOS INSUFICIENTES                    0000000000000000000000000
BZMOV00000000000000000000000000202309072023090700000000000000343232R000917563918001CB0069411875                                                           000000000000000001000000000000000001340400000000000971039226LEONARDO VICENTE JIMENEZ                                                   000000000000000000000XDIRCUE00000000000000000000241033 FONDOS INSUFICIENTES                    0000000000000000000000000
BZMOV00000000000000000000000000202309072023090700000000000000190128R000992673273001CB0069412116                                                           000000000000000001000000000000000001340300000000000005228010MANTRADESIGN S.A.                                                          000000000000000000000XDIRCUE00000000000000000000231017 FONDOS INSUFICIENTES                    0000000000000000000000000
BZMOV00000000000000000000000000202309072023090700000000000000044495C000001310868003CB0069412245                                                           000000000000000001000000000000000001340300000000000025028454MARLENE VERA ZAMBRANO                                                      000000000000000000000XDIRCUE00000000000000000000231017 FONDOS INSUFICIENTES                    0000000000000000000000000
BZMOV00000000000000000000000000202309072023090700000000000010054238R001711448694001CB0069414098                                                           000000000000000001000000000000000001340400000000005005094748MARLENE VERA ZAMBRANO                                                      000000000000000000000XDIRCUE00000000000000000000218755 CUENTA NO EXISTE                        0000000000000000000000000
BZMOV00000000000000000000000000202309072023090700000000000000582443C000000909327140CB0068017458                                                           000000000000000001000000000000000001340300000000000865012291LUIS  JARAMILLO V.                                                         000000000000000000000XDIRCUE00000000000000000000231017 FONDOS INSUFICIENTES                    0000000000000000000000000
BZMOV00000000000000000000000000202309072023090700000000000012964288C000000908494859CB0069414255                                                           000000000000000001000000000000000001340300000000000035006545PARIS A. SOTOMAYOR MADRID                                                  000000000000000000000XDIRCUE00000000000000000000231017 FONDOS INSUFICIENTES                    0000000000000000000000000
BZMOV00000000000000000000000000202309072023090700000000000011759094C000000918001421CB0069435634                                                           000000000000000001000000000000000001340300000000000845003608SILVIA HUBER M.                                                            000000000000000000000XDIRCUE00000000000000000000231017 FONDOS INSUFICIENTES                    0000000000000000000000000
BZMOV00000000000000000000000000202309072023090700000000000005259033C000000923637623CB0069439008                                                           000000000000000001000000000000000001340400000000000001794657JUAN MANUEL YEPEZ VERA                                                     000000000000000000000XDIRCUE00000000000000000000241033 FONDOS INSUFICIENTES                    0000000000000000000000000
BZMOV00000000000000000000000000202309072023090700000000000000243374R001791295056001CB0069412643                                                           000000000000000001000000000000000001340300000000005065001070COLECTRANS C.A.                                                            000000000000000000000XDIRCUE00000000000000000000231017 FONDOS INSUFICIENTES                    0000000000000000000000000
BZMOV00000000000000000000000000202309072023090700000000000020032894C000000921686465CB0069416111                                                           000000000000000001000000000003136001340400000000000921133520CHRISTIAN JAVIER LOPEZ RODRIGUEZ                                           000000000000000000000PDIRCUE000000000000000000002000000                                        0000000000000000000000000
BZMOV00000000000000000000000000202309072023090700000000000000080467C000000920066008CB0068954004                                                           000000000000000001000000000000000001340400000000000001158383CHRISTIAN JAVIER LOPEZ RODRIGUEZ                                           000000000000000000000XDIRCUE00000000000000000000241057 CUENTA DE AHORROS CERRADA               0000000000000000000000000
BZMOV00000000000000000000000000202309072023090700000000000000044904C000000906188974CB0067877697                                                           000000000000000001000000000000000001340300000000000005165364MARIO  LA MOTA CARCHI    O    CELESTE MACIAS                               000000000000000000000XDIRCUE00000000000000000000231017 FONDOS INSUFICIENTES                    0000000000000000000000000
BZMOV00000000000000000000000000202309072023090700000000000020187868C000000916040371CB0069312739                                                           000000000000000001000000000000000001340300000000000865008047FELIX LEYTON TORRES                                                        000000000000000000000XDIRCUE00000000000000000000231017 FONDOS INSUFICIENTES                    0000000000000000000000000
BZMOV00000000000000000000000000202309072023090700000000000000505668C000001709679300CB0069114680                                                           000000000000000001000000000000000001340400000000005011056101NANCY CECILIA GUALPA USHIÑA                                                000000000000000000000XDIRCUE00000000000000000000241058 CUENTA DE AHORROS INACTIVA              0000000000000000000000000
BZMOV00000000000000000000000000202309072023090700000000000018842962C000001723359095CB0068774093                                                           000000000000000001000000000000000001340300000000005085019158NANCY CECILIA GUALPA USHIÑA                                                000000000000000000000XDIRCUE00000000000000000000231017 FONDOS INSUFICIENTES                    0000000000000000000000000
BZMOV00000000000000000000000000202309072023090700000000000020398397C000000920528643CB0069400534                                                           000000000000000001000000000000000001340400000000000021203567ANGELO GUSTAVO CACAO MENDEZ                                                000000000000000000000XDIRCUE00000000000000000000241033 FONDOS INSUFICIENTES                    0000000000000000000000000
BZMOV00000000000000000000000000202309072023090700000000000000604531R000904115672001CB0069284265                                                           000000000000000001000000000000000001340300000000000065017494LEONARDO VICENTE JIMENEZ                                                   000000000000000000000XDIRCUE00000000000000000000231017 FONDOS INSUFICIENTES                    0000000000000000000000000
BZMOV00000000000000000000000000202309072023090700000000000009434022C000000925662124CB0069338391                                                           000000000000000001000000000000000001340400000000000061117653JUAN PABLO CARVAJAL QUINTERO                                               000000000000000000000XDIRCUE00000000000000000000241033 FONDOS INSUFICIENTES                    0000000000000000000000000
BZMOV00000000000000000000000000202309072023090700000000000000044904C000000906188974CB0065964932                                                           000000000000000001000000000000000001340300000000000005165364MARIO  LA MOTA CARCHI    O    CELESTE MACIAS                               000000000000000000000XDIRCUE00000000000000000000231017 FONDOS INSUFICIENTES                    0000000000000000000000000
BZMOV00000000000000000000000000202309072023090700000000000018747475C000001712132289CB0059087298                                                           000000000000000001000000000000000001340400000000000869123598MARIO  LA MOTA CARCHI    O    CELESTE MACIAS                               000000000000000000000XDIRCUE00000000000000000000218755 CUENTA NO EXISTE                        0000000000000000000000000
BZMOV00000000000000000000000000202309072023090700000000000016585801C000000910470285CB0043550857                                                           000000000000000001000000000000000001340300000000000025045680SANDRA CASILARI SANTA CRUZ                                                 000000000000000000000XDIRCUE00000000000000000000231017 FONDOS INSUFICIENTES                    0000000000000000000000000
BZMOV00000000000000000000000000202309072023090700000000000018147207C000000955359526CB0057446794                                                           000000000000000001000000000000000001340400000000001712302102SANDRA CASILARI SANTA CRUZ                                                 000000000000000000000XDIRCUE00000000000000000000218755 CUENTA NO EXISTE                        0000000000000000000000000
BZMOV00000000000000000000000000202309072023090700000000000016585801C000000910470285CB0043550867                                                           000000000000000001000000000000000001340300000000000025045680SANDRA CASILARI SANTA CRUZ                                                 000000000000000000000XDIRCUE00000000000000000000231017 FONDOS INSUFICIENTES                    0000000000000000000000000
BZMOV00000000000000000000000000202309072023090700000000000017501352C000000921280061CB0058683018                                                           000000000000000001000000000000000001340400000000000025369874SANDRA CASILARI SANTA CRUZ                                                 000000000000000000000XDIRCUE00000000000000000000218755 CUENTA NO EXISTE                        0000000000000000000000000
BZMOV00000000000000000000000000202309072023090700000000000018612923C000000921376398CB0058922653                                                           000000000000000001000000000000000001340400000000001712010584SANDRA CASILARI SANTA CRUZ                                                 000000000000000000000XDIRCUE00000000000000000000218755 CUENTA NO EXISTE                        0000000000000000000000000
BZMOV00000000000000000000000000202309072023090700000000000017501352C000000921280061CB0058683012                                                           000000000000000001000000000000000001340400000000000025369874SANDRA CASILARI SANTA CRUZ                                                 000000000000000000000XDIRCUE00000000000000000000218755 CUENTA NO EXISTE                        0000000000000000000000000
BZMOV00000000000000000000000000202309072023090700000000000018747475C000001712132289CB0059087311                                                           000000000000000001000000000000000001340400000000000869123598SANDRA CASILARI SANTA CRUZ                                                 000000000000000000000XDIRCUE00000000000000000000218755 CUENTA NO EXISTE                        0000000000000000000000000
BZMOV00000000000000000000000000202309072023090700000000000018532318C000000916345176CB0057284792                                                           000000000000000001000000000000000001340400000000001712302103SANDRA CASILARI SANTA CRUZ                                                 000000000000000000000XDIRCUE00000000000000000000218755 CUENTA NO EXISTE                        0000000000000000000000000
BZMOV00000000000000000000000000202309072023090700000000000011424175C000000928775709CB0057290847                                                           000000000000000001000000000000000001340400000000000941362122SANDRA CASILARI SANTA CRUZ                                                 000000000000000000000XDIRCUE00000000000000000000241033 FONDOS INSUFICIENTES                    0000000000000000000000000
BZMOV00000000000000000000000000202309072023090700000000000018378545P000000GV2894879CB0057422851                                                           000000000000000001000000000000000001340400000000000023659874SANDRA CASILARI SANTA CRUZ                                                 000000000000000000000XDIRCUE00000000000000000000218755 CUENTA NO EXISTE                        0000000000000000000000000
BZMOV00000000000000000000000000202309072023090700000000000018702374C000000917405078CB0058754936                                                           000000000000000001000000000000000001340400000000000085967412SANDRA CASILARI SANTA CRUZ                                                 000000000000000000000XDIRCUE00000000000000000000218755 CUENTA NO EXISTE                        0000000000000000000000000
BZMOV00000000000000000000000000202309072023090700000000000020593700C000000950217885CB0068077001                                                           000000000000000001000000000000000001340400000000000041217677SANDRA CASILARI SANTA CRUZ                                                 000000000000000000000XDIRCUE00000000000000000000218755 CUENTA NO EXISTE                        0000000000000000000000000
BZMOV00000000000000000000000000202309072023090700000000000018417448C000001306304054CB0056906569                                                           000000000000000001000000000000000001340400000000001712015802SANDRA CASILARI SANTA CRUZ                                                 000000000000000000000XDIRCUE00000000000000000000218755 CUENTA NO EXISTE                        0000000000000000000000000
BZMOV00000000000000000000000000202309072023090700000000000018378716C000000927793141CB0057452657                                                           000000000000000001000000000000000001340400000000001712032015SANDRA CASILARI SANTA CRUZ                                                 000000000000000000000XDIRCUE00000000000000000000218755 CUENTA NO EXISTE                        0000000000000000000000000
BZMOV00000000000000000000000000202309072023090700000000000000716858C000000923381511CB0042423146                                                           000000000000000001000000000000000001340300000000000845035700SANDRA CASILARI SANTA CRUZ                                                 000000000000000000000XDIRCUE00000000000000000000231017 FONDOS INSUFICIENTES                    0000000000000000000000000
BZMOV00000000000000000000000000202309072023090700000000000017501352C000000921280061CB0058683020                                                           000000000000000001000000000000000001340400000000000025369874SANDRA CASILARI SANTA CRUZ                                                 000000000000000000000XDIRCUE00000000000000000000218755 CUENTA NO EXISTE                        0000000000000000000000000
BZMOV00000000000000000000000000202309072023090700000000000018632543C000000904258001CB0058940901                                                           000000000000000001000000000000000001340400000000001715255683SANDRA CASILARI SANTA CRUZ                                                 000000000000000000000XDIRCUE00000000000000000000218755 CUENTA NO EXISTE                        0000000000000000000000000
BZMOV00000000000000000000000000202309072023090700000000000018378545P000000GV2894879CB0057422855                                                           000000000000000001000000000000000001340400000000000023659874SANDRA CASILARI SANTA CRUZ                                                 000000000000000000000XDIRCUE00000000000000000000218755 CUENTA NO EXISTE                        0000000000000000000000000
BZMOV00000000000000000000000000202309072023090700000000000016585801C000000910470285CB0043550862                                                           000000000000000001000000000000000001340300000000000025045680SANDRA CASILARI SANTA CRUZ                                                 000000000000000000000XDIRCUE00000000000000000000231017 FONDOS INSUFICIENTES                    0000000000000000000000000
BZMOV00000000000000000000000000202309072023090700000000000018477532C000000958447401CB0057010022                                                           000000000000000001000000000000000001340400000000001715201203SANDRA CASILARI SANTA CRUZ                                                 000000000000000000000XDIRCUE00000000000000000000218755 CUENTA NO EXISTE                        0000000000000000000000000
BZMOV00000000000000000000000000202309072023090700000000000018147207C000000955359526CB0058688622                                                           000000000000000001000000000000000001340400000000001712302102SANDRA CASILARI SANTA CRUZ                                                 000000000000000000000XDIRCUE00000000000000000000218755 CUENTA NO EXISTE                        0000000000000000000000000
BZMOV00000000000000000000000000202309072023090700000000000018615606C000000919279182CB0059000634                                                           000000000000000001000000000000000001340400000000000941463281SANDRA CASILARI SANTA CRUZ                                                 000000000000000000000XDIRCUE00000000000000000000218755 CUENTA NO EXISTE                        0000000000000000000000000
BZMOV00000000000000000000000000202309072023090700000000000018472323R001312340514001CB0056810848                                                           000000000000000001000000000000000001340400000000000923512508SANDRA CASILARI SANTA CRUZ                                                 000000000000000000000XDIRCUE00000000000000000000218755 CUENTA NO EXISTE                        0000000000000000000000000
BZMOV00000000000000000000000000202309072023090700000000000000127902C000000904061744CB0043851040                                                           000000000000000001000000000000000001340400000000000001055691LUIS CARTAGENA HERRERA                                                     000000000000000000000XDIRCUE00000000000000000000241033 FONDOS INSUFICIENTES                    0000000000000000000000000
BZMOV00000000000000000000000000202309072023090700000000000018722455C000001724559685CB0058850733                                                           000000000000000001000000000000000001340400000000000052639874LUIS CARTAGENA HERRERA                                                     000000000000000000000XDIRCUE00000000000000000000218755 CUENTA NO EXISTE                        0000000000000000000000000
BZMOV00000000000000000000000000202309072023090700000000000011424175C000000928775709CB0057290846                                                           000000000000000001000000000000000001340400000000000941362122LUIS CARTAGENA HERRERA                                                     000000000000000000000XDIRCUE00000000000000000000241033 FONDOS INSUFICIENTES                    0000000000000000000000000
BZMOV00000000000000000000000000202309072023090700000000000018692647C000000911261964CB0058802643                                                           000000000000000001000000000000000001340400000000000823659874LUIS CARTAGENA HERRERA                                                     000000000000000000000XDIRCUE00000000000000000000218755 CUENTA NO EXISTE                        0000000000000000000000000
BZMOV00000000000000000000000000202309072023090700000000000016681456C000000917710543CB0044061659                                                           000000000000000001000000000000000001340300000000000885021022JUANA JUDITH ANDRADE VELASQUEZ                                             000000000000000000000XDIRCUE00000000000000000000231017 FONDOS INSUFICIENTES                    0000000000000000000000000
BZMOV00000000000000000000000000202309072023090700000000000018722455C000001724559685CB0058850729                                                           000000000000000001000000000000000001340400000000000052639874JUANA JUDITH ANDRADE VELASQUEZ                                             000000000000000000000XDIRCUE00000000000000000000218755 CUENTA NO EXISTE                        0000000000000000000000000
BZMOV00000000000000000000000000202309072023090700000000000018472323R001312340514001CB0056810843                                                           000000000000000001000000000000000001340400000000000923512508JUANA JUDITH ANDRADE VELASQUEZ                                             000000000000000000000XDIRCUE00000000000000000000218755 CUENTA NO EXISTE                        0000000000000000000000000
BZMOV00000000000000000000000000202309072023090700000000000001398394C000000914681879CB0068828182                                                           000000000000000001000000000000000001340400000000000001899425ALEXIS ALBERTO GUANIN VILLALVA                                             000000000000000000000XDIRCUE00000000000000000000241033 FONDOS INSUFICIENTES                    0000000000000000000000000
BZMOV00000000000000000000000000202309072023090700000000000000144549R000992667516001CB0068606080                                                           000000000000000001000000000000000001340300000000000005225497  WINELAGO S.A.                                                            000000000000000000000XDIRCUE00000000000000000000231017 FONDOS INSUFICIENTES                    0000000000000000000000000
BZMOV00000000000000000000000000202309072023090700000000000000077912C000000905418760CB0062302439                                                           000000000000000001000000000000000001340300000000000915005411BEHSI LEONOR CEDEÃ‘O ALARCON                                               000000000000000000000XDIRCUE00000000000000000000231017 FONDOS INSUFICIENTES                    0000000000000000000000000
BZMOV00000000000000000000000000202309072023090700000000000017183133R000992803231001CB0063025037                                                           000000000000000001000000000000000001340300000000000005265769RANCHO DON FELIX S.A.                                                      000000000000000000000XDIRCUE00000000000000000000231017 FONDOS INSUFICIENTES                    0000000000000000000000000
BZMOV00000000000000000000000000202309072023090700000000000000355987C000000301074043CB0059624105                                                           000000000000000001000000000000000001340300000000004005011234RANCHO DON FELIX S.A.                                                      000000000000000000000XDIRCUE00000000000000000000231017 FONDOS INSUFICIENTES                    0000000000000000000000000
BZMOV00000000000000000000000000202309072023090700000000000018252583C000000951442003CB0066216446                                                           000000000000000001000000000000000001340400000000000003386875RANCHO DON FELIX S.A.                                                      000000000000000000000XDIRCUE00000000000000000000241033 FONDOS INSUFICIENTES                    0000000000000000000000000
BZMOV00000000000000000000000000202309072023090700000000000019552780R001792735017001CB0068932334                                                           000000000000000001000000000000000001340400000000005051163927RANCHO DON FELIX S.A.                                                      000000000000000000000XDIRCUE00000000000000000000241033 FONDOS INSUFICIENTES                    0000000000000000000000000
BZMOV00000000000000000000000000202309072023090700000000000008109159C000001002742938CB0068854750                                                           000000000000000001000000000000000001340400000000001101069456MIGUEL ANGEL LOPEZ ORDONEZ                                                 000000000000000000000XDIRCUE00000000000000000000241033 FONDOS INSUFICIENTES                    0000000000000000000000000
BZMOV00000000000000000000000000202309072023090700000000000000044904C000000906188974CB0065420125                                                           000000000000000001000000000000000001340300000000000005165364MARIO  LA MOTA CARCHI    O    CELESTE MACIAS                               000000000000000000000XDIRCUE00000000000000000000231017 FONDOS INSUFICIENTES                    0000000000000000000000000
BZMOV00000000000000000000000000202309072023090700000000000008144027C000000930667704CB0067500217                                                           000000000000000001000000000000000001340300000000000945036683MARIO  LA MOTA CARCHI    O    CELESTE MACIAS                               000000000000000000000XDIRCUE00000000000000000000231017 FONDOS INSUFICIENTES                    0000000000000000000000000
BZMOV00000000000000000000000000202309072023090700000000000017183133R000992803231001CB0067512729                                                           000000000000000001000000000000000001340300000000000005265769RANCHO DON FELIX S.A.                                                      000000000000000000000XDIRCUE00000000000000000000231017 FONDOS INSUFICIENTES                    0000000000000000000000000
BZMOV00000000000000000000000000202309072023090700000000000016846965R000992817674001CB0056122790                                                           000000000000000001000000000000000001340300000000000065045044COACGESA                                                                   000000000000000000000XDIRCUE00000000000000000000231017 FONDOS INSUFICIENTES                    0000000000000000000000000
BZMOV00000000000000000000000000202309072023090700000000000000604531R000904115672001CB0068954722                                                           000000000000000001000000000000000001340300000000000065017494LEONARDO VICENTE JIMENEZ                                                   000000000000000000000XDIRCUE00000000000000000000231017 FONDOS INSUFICIENTES                    0000000000000000000000000
BZMOV00000000000000000000000000202309072023090700000000000000505668C000001709679300CB0068970996                                                           000000000000000001000000000000000001340400000000005011056101NANCY CECILIA GUALPA USHIÑA                                                000000000000000000000XDIRCUE00000000000000000000241033 FONDOS INSUFICIENTES                    0000000000000000000000000
BZMOV00000000000000000000000000202309072023090700000000000013144961C000000912418449CB0042519990                                                           000000000000000001000000000000000001340300000000000875012120AB. JHONNY SANDOVAL           BAQUERIZO.                                   000000000000000000000XDIRCUE00000000000000000000231017 FONDOS INSUFICIENTES                    0000000000000000000000000
BZMOV00000000000000000000000000202309072023090700000000000005799057R000923642193001CB0061485153                                                           000000000000000001000000000000000001340300000000000845032468MICHAEL EDUARDO MALDONADO HERRERA                                          000000000000000000000XDIRCUE00000000000000000000231017 FONDOS INSUFICIENTES                    0000000000000000000000000
BZMOV00000000000000000000000000202309072023090700000000000004579624C000000917775850CB0061962250                                                           000000000000000001000000000000000001340300000000000025009460GARCIA GURUMENDI JESSICA      EMMA GURUMENDI LOOR                          000000000000000000000XDIRCUE00000000000000000000231017 FONDOS INSUFICIENTES                    0000000000000000000000000
BZMOV00000000000000000000000000202309072023090700000000000000098648R000992642483001CB0054441433                                                           000000000000000001000000000000000001340300000000000005218332KINGSELSA S.A.                                                             000000000000000000000XDIRCUE000000000000000000002303527SERVICIO SUSPENDIDO POR CLIENTE         0000000000000000000000000
BZMOV00000000000000000000000000202309072023090700000000000005799057R000923642193001CB0054527958                                                           000000000000000001000000000000000001340300000000000845032468MICHAEL EDUARDO MALDONADO HERRERA                                          000000000000000000000XDIRCUE00000000000000000000231017 FONDOS INSUFICIENTES                    0000000000000000000000000
BZMOV00000000000000000000000000202309072023090700000000000016846965R000992817674001CB0057233232                                                           000000000000000001000000000000000001340300000000000065045044COACGESA                                                                   000000000000000000000XDIRCUE00000000000000000000231017 FONDOS INSUFICIENTES                    0000000000000000000000000
BZMOV00000000000000000000000000202309072023090700000000000000144549R000992667516001CB0069228561                                                           000000000000000001000000000000000001340300000000000005225497  WINELAGO S.A.                                                            000000000000000000000XDIRCUE00000000000000000000231017 FONDOS INSUFICIENTES                    0000000000000000000000000
BZMOV00000000000000000000000000202309072023090700000000000017772772C000000921904298CB0055556837                                                           000000000000000001000000000000000001340400000000000981174402  WINELAGO S.A.                                                            000000000000000000000XDIRCUE00000000000000000000241033 FONDOS INSUFICIENTES                    0000000000000000000000000
BZMOV00000000000000000000000000202309072023090700000000000018615606C000000919279182CB0059000615                                                           000000000000000001000000000000000001340400000000000941463281  WINELAGO S.A.                                                            000000000000000000000XDIRCUE00000000000000000000218755 CUENTA NO EXISTE                        0000000000000000000000000
BZMOV00000000000000000000000000202309072023090700000000000018477532C000000958447401CB0056912734                                                           000000000000000001000000000000000001340400000000001715201203  WINELAGO S.A.                                                            000000000000000000000XDIRCUE00000000000000000000218755 CUENTA NO EXISTE                        0000000000000000000000000
BZMOV00000000000000000000000000202309072023090700000000000018692342C000001750397612CB0058724645                                                           000000000000000001000000000000000001340400000000000023564125  WINELAGO S.A.                                                            000000000000000000000XDIRCUE00000000000000000000218755 CUENTA NO EXISTE                        0000000000000000000000000
BZMOV00000000000000000000000000202309072023090700000000000018472323R001312340514001CB0056810854                                                           000000000000000001000000000000000001340400000000000923512508  WINELAGO S.A.                                                            000000000000000000000XDIRCUE00000000000000000000218755 CUENTA NO EXISTE                        0000000000000000000000000
BZMOV00000000000000000000000000202309072023090700000000000018417448C000001306304054CB0056906568                                                           000000000000000001000000000000000001340400000000001712015802  WINELAGO S.A.                                                            000000000000000000000XDIRCUE00000000000000000000218755 CUENTA NO EXISTE                        0000000000000000000000000
BZMOV00000000000000000000000000202309072023090700000000000018702374C000000917405078CB0058754929                                                           000000000000000001000000000000000001340400000000000085967412  WINELAGO S.A.                                                            000000000000000000000XDIRCUE00000000000000000000218755 CUENTA NO EXISTE                        0000000000000000000000000
BZMOV00000000000000000000000000202309072023090700000000000018632543C000000904258001CB0058940895                                                           000000000000000001000000000000000001340400000000001715255683  WINELAGO S.A.                                                            000000000000000000000XDIRCUE00000000000000000000218755 CUENTA NO EXISTE                        0000000000000000000000000
BZMOV00000000000000000000000000202309072023090700000000000018615606C000000919279182CB0059000630                                                           000000000000000001000000000000000001340400000000000941463281  WINELAGO S.A.                                                            000000000000000000000XDIRCUE00000000000000000000218755 CUENTA NO EXISTE                        0000000000000000000000000
BZMOV00000000000000000000000000202309072023090700000000000000843451R000992531142001CB0053356182                                                           000000000000000001000000000000000001340300000000000925024491  WINELAGO S.A.                                                            000000000000000000000XDIRCUE00000000000000000000231017 FONDOS INSUFICIENTES                    0000000000000000000000000
BZMOV00000000000000000000000000202309072023090700000000000018147207C000000955359526CB0058688619                                                           000000000000000001000000000000000001340400000000001712302102  WINELAGO S.A.                                                            000000000000000000000XDIRCUE00000000000000000000218755 CUENTA NO EXISTE                        0000000000000000000000000
BZMOV00000000000000000000000000202309072023090700000000000018747475C000001712132289CB0059087308                                                           000000000000000001000000000000000001340400000000000869123598  WINELAGO S.A.                                                            000000000000000000000XDIRCUE00000000000000000000218755 CUENTA NO EXISTE                        0000000000000000000000000
BZMOV00000000000000000000000000202309072023090700000000000018532318C000000916345176CB0057284791                                                           000000000000000001000000000000000001340400000000001712302103  WINELAGO S.A.                                                            000000000000000000000XDIRCUE00000000000000000000218755 CUENTA NO EXISTE                        0000000000000000000000000
BZMOV00000000000000000000000000202309072023090700000000000018747475C000001712132289CB0059087312                                                           000000000000000001000000000000000001340400000000000869123598  WINELAGO S.A.                                                            000000000000000000000XDIRCUE00000000000000000000218755 CUENTA NO EXISTE                        0000000000000000000000000
BZMOV00000000000000000000000000202309072023090700000000000018612923C000000921376398CB0058922658                                                           000000000000000001000000000000000001340400000000001712010584  WINELAGO S.A.                                                            000000000000000000000XDIRCUE00000000000000000000218755 CUENTA NO EXISTE                        0000000000000000000000000
BZMOV00000000000000000000000000202309072023090700000000000018477532C000000958447401CB0056912735                                                           000000000000000001000000000000000001340400000000001715201203  WINELAGO S.A.                                                            000000000000000000000XDIRCUE00000000000000000000218755 CUENTA NO EXISTE                        0000000000000000000000000
BZMOV00000000000000000000000000202309072023090700000000000016691176R001712045093001CB0044085693                                                           000000000000000001000000000000000001340400000000005055018468  WINELAGO S.A.                                                            000000000000000000000XDIRCUE00000000000000000000218755 CUENTA NO EXISTE                        0000000000000000000000000
BZMOV00000000000000000000000000202309072023090700000000000018692342C000001750397612CB0058724636                                                           000000000000000001000000000000000001340400000000000023564125  WINELAGO S.A.                                                            000000000000000000000XDIRCUE00000000000000000000218755 CUENTA NO EXISTE                        0000000000000000000000000
BZMOV00000000000000000000000000202309072023090700000000000018692647C000000911261964CB0058802632                                                           000000000000000001000000000000000001340400000000000823659874  WINELAGO S.A.                                                            000000000000000000000XDIRCUE00000000000000000000218755 CUENTA NO EXISTE                        0000000000000000000000000
BZMOV00000000000000000000000000202309072023090700000000000018417448C000001306304054CB0056906575                                                           000000000000000001000000000000000001340400000000001712015802  WINELAGO S.A.                                                            000000000000000000000XDIRCUE00000000000000000000218755 CUENTA NO EXISTE                        0000000000000000000000000
BZMOV00000000000000000000000000202309072023090700000000000000843451R000992531142001CB0053356183                                                           000000000000000001000000000000000001340300000000000925024491  WINELAGO S.A.                                                            000000000000000000000XDIRCUE00000000000000000000231017 FONDOS INSUFICIENTES                    0000000000000000000000000
BZMOV00000000000000000000000000202309072023090700000000000018147207C000000955359526CB0058688618                                                           000000000000000001000000000000000001340400000000001712302102  WINELAGO S.A.                                                            000000000000000000000XDIRCUE00000000000000000000218755 CUENTA NO EXISTE                        0000000000000000000000000
BZMOV00000000000000000000000000202309072023090700000000000017972706C000000915504989CB0054345287                                                           000000000000000001000000000000000001340400000000000002536984  WINELAGO S.A.                                                            000000000000000000000XDIRCUE00000000000000000000218755 CUENTA NO EXISTE                        0000000000000000000000000
BZMOV00000000000000000000000000202309072023090700000000000000608879C000000903775260CB0066097206                                                           000000000000000001000000000000000001340400000000000951002396VICTOR RAUL TORRES ARIAS                                                   000000000000000000000XDIRCUE00000000000000000000241033 FONDOS INSUFICIENTES                    0000000000000000000000000
BZMOV00000000000000000000000000202309072023090700000000000018615606C000000919279182CB0059000616                                                           000000000000000001000000000000000001340400000000000941463281VICTOR RAUL TORRES ARIAS                                                   000000000000000000000XDIRCUE00000000000000000000218755 CUENTA NO EXISTE                        0000000000000000000000000
BZMOV00000000000000000000000000202309072023090700000000000018378676R000924523921001CB0056648752                                                           000000000000000001000000000000000001340400000000000925162154VICTOR RAUL TORRES ARIAS                                                   000000000000000000000XDIRCUE00000000000000000000218755 CUENTA NO EXISTE                        0000000000000000000000000
BZMOV00000000000000000000000000202309072023090700000000000016691176R001712045093001CB0044085692                                                           000000000000000001000000000000000001340400000000005055018468VICTOR RAUL TORRES ARIAS                                                   000000000000000000000XDIRCUE00000000000000000000218755 CUENTA NO EXISTE                        0000000000000000000000000
BZMOV00000000000000000000000000202309072023090700000000000020593700C000000950217885CB0068077002                                                           000000000000000001000000000000000001340400000000000041217677VICTOR RAUL TORRES ARIAS                                                   000000000000000000000XDIRCUE00000000000000000000218755 CUENTA NO EXISTE                        0000000000000000000000000
BZMOV00000000000000000000000000202309072023090700000000000018477532C000000958447401CB0056912728                                                           000000000000000001000000000000000001340400000000001715201203VICTOR RAUL TORRES ARIAS                                                   000000000000000000000XDIRCUE00000000000000000000218755 CUENTA NO EXISTE                        0000000000000000000000000
BZMOV00000000000000000000000000202309072023090700000000000018477532C000000958447401CB0057010029                                                           000000000000000001000000000000000001340400000000001715201203VICTOR RAUL TORRES ARIAS                                                   000000000000000000000XDIRCUE00000000000000000000218755 CUENTA NO EXISTE                        0000000000000000000000000
BZMOV00000000000000000000000000202309072023090700000000000018378545P000000GV2894879CB0057422872                                                           000000000000000001000000000000000001340400000000000023659874VICTOR RAUL TORRES ARIAS                                                   000000000000000000000XDIRCUE00000000000000000000218755 CUENTA NO EXISTE                        0000000000000000000000000
BZMOV00000000000000000000000000202309072023090700000000000005009902C000001709980112CB0068593408                                                           000000000000000001000000000000000001340300000000005055028289VICTOR RAUL TORRES ARIAS                                                   000000000000000000000XDIRCUE00000000000000000000231017 FONDOS INSUFICIENTES                    0000000000000000000000000
BZMOV00000000000000000000000000202309072023090700000000000011424175C000000928775709CB0057290848                                                           000000000000000001000000000000000001340400000000000941362122VICTOR RAUL TORRES ARIAS                                                   000000000000000000000XDIRCUE00000000000000000000241033 FONDOS INSUFICIENTES                    0000000000000000000000000
BZMOV00000000000000000000000000202309072023090700000000000018472323R001312340514001CB0056810852                                                           000000000000000001000000000000000001340400000000000923512508VICTOR RAUL TORRES ARIAS                                                   000000000000000000000XDIRCUE00000000000000000000218755 CUENTA NO EXISTE                        0000000000000000000000000
BZMOV00000000000000000000000000202309072023090700000000000018757358C000000900030537CB0058892686                                                           000000000000000001000000000000000001340400000000001712302012VICTOR RAUL TORRES ARIAS                                                   000000000000000000000XDIRCUE00000000000000000000218755 CUENTA NO EXISTE                        0000000000000000000000000
BZMOV00000000000000000000000000202309072023090700000000000018747475C000001712132289CB0059087294                                                           000000000000000001000000000000000001340400000000000869123598VICTOR RAUL TORRES ARIAS                                                   000000000000000000000XDIRCUE00000000000000000000218755 CUENTA NO EXISTE                        0000000000000000000000000
BZMOV00000000000000000000000000202309072023090700000000000018692647C000000911261964CB0058802635                                                           000000000000000001000000000000000001340400000000000823659874VICTOR RAUL TORRES ARIAS                                                   000000000000000000000XDIRCUE00000000000000000000218755 CUENTA NO EXISTE                        0000000000000000000000000
BZMOV00000000000000000000000000202309072023090700000000000018472323R001312340514001CB0056810857                                                           000000000000000001000000000000000001340400000000000923512508VICTOR RAUL TORRES ARIAS                                                   000000000000000000000XDIRCUE00000000000000000000218755 CUENTA NO EXISTE                        0000000000000000000000000
